:040000006F408013BA
:100004000000000000000000441B00006A1B000008
:100014000000000036410000000000000000000065
:1000240036410000364100000000000000000000DE
:1000340036410000000000003641000000000000CE
:1000440036410000364100003641000036410000D0
:1000540036410000364100003641000036410000C0
:1000640036410000364100003641000036410000B0
:1000740036410000364100003641000036410000A0
:100084003641000036410000364100003641000090
:100094003C1D00003641000036410000364100009E
:1000A4003641000036410000364100003641000070
:1000B400461B000036410000364100003641000076
:1000C4003641000036410000364100003641000050
:1000D4003641000086070000641A00003641000023
:1000E4003641000036410000EC1C0000364100009F
:0C00F4003641000036410000364100009B
:10010000397101436EC619A0397141536AC866CA74
:1001100062CC5ECE19A0397101535AD056D252D456
:100120004ED64AD826DA22DC06DE330161408282CE
:1001300041114AC026C222C406C68282B24D410184
:10014000024D924C224CB24B4101024B924A224A40
:10015000B2494101024992442244B24041018280A5
:1001600015C22A8385466367B500FD561307F6FF5F
:100170003A93BA9583830500230073007D16369366
:10018000B6956DFA82802A8309CA8383050023000D
:1001900073007D16050385056DFA82802A8311C6DA
:1001A0002300B3007D16050365FE8280EFF25FF841
:1001B00085451145EF30704785450545EF30D048FE
:1001C000014549BFEFF2DFF641113705004002C299
:1001D00002C423160100EF30D04C83A701813747BA
:1001E0000F0013070724B3D7E7024C003705004080
:1001F00023130100FD172312F10089679387F7701D
:100200003EC4EF30B052854537050040EF30B05C5A
:100210000546854537050040EF30905AB7E700E0C6
:1002200005472386E742056723A2E7108545370582
:100230000040EF303057410131BFEFF2DFED0545AF
:10024000EF30502AEF107022EF30E04F7165130548
:100250000520EF300055156513054573EF40A031BB
:10026000156513050575EF4000318937A13F156508
:1002700013050576EF402030EF0090151565130546
:100280000577EF40402F0145EF00700A852915657D
:1002900013050578EF40202EEF1060351565130526
:1002A0000579EF40402DEF00905D15651305057A47
:1002B000EF40602CEF00B030EF10F02CEF20105129
:1002C000EF10703515651305057B1969EF40A02AFD
:1002D0001309C9B69149994AEF00D05DEF00B00902
:1002E000EF00B047EF00B03D83A7418583A441876D
:1002F00063EAFA068A07CA979C43828703A7418D5F
:1003000095476311F70623A891841565854723AAAD
:10031000F1841305057CEF406035A9A083A6418DCB
:100320001547639EE60205472386E18483A701857E
:1003300013071003B387F4406376F70283C5D184B3
:1003400015651305C57E8505EF40E0220D45EF00DC
:10035000007E4D2B23A8918423AA318521A083C739
:10036000C184E9F7EF10803A6D213DD5EF00F057D9
:10037000552995B7EF00B05319C919651305858044
:10038000EF40C02E0545EF00807A954795A0EF001D
:10039000900309C5196513058582B5BF83A701853B
:1003A00013073006B387F440E37EF7FA83C5D184A0
:1003B0009387150093F7F70FA386F1840947636FBE
:1003C000F700890519650D4693F5F50F1305858529
:1003D000EF40601A052B23A8918469B719658D45F4
:1003E0001305C587EF4020190945EF004074994770
:1003F00023AAF18485BFEF00904B2DF5F5B7EF00F0
:10040000104B49F1EF00207C19C519651305458B88
:10041000EF40C02581B783A7018513071003B38779
:10042000F440E371F7F47DB7EFF21FCEEF30E04810
:1004300037F50008EF30804E91476305F500EF3047
:100440006049FDB983C5B185D567938767B4E20577
:10045000DD8D37F50008EF302050B707002083A569
:100460000714B7F4000813854400938B0401138C20
:100470004401EF30604E0144314B93898191E10496
:1004800083C7B185E37DF4FA33096403050413746B
:10049000F40F330A390183250A0033057901EF305F
:1004A000A04B83254A0033058901EF30E04A8325BC
:1004B0008A0033059900EF30204AD9B72A860147D0
:1004C00001459377F70F63E3B7008280B307E60037
:1004D00083C707003D8DA1471318850193161500AA
:1004E0001358884113F5F60F6356080093C6160398
:1004F00013F5F60FFD1793F7F70FF9FF0507D1B7BF
:10050000EFF21FC383A7C18819476360F712196709
:100510008A07130787B8BA979C43AA8482879307F0
:10052000E007631DF500854723A6F188A3840188B1
:1005300023840188A38301882383018821B923842C
:10054000A188894723A6F188238AA1A80547A38407
:10055000E188EDB7A383A18803C7918893071700AB
:1005600093F7F70FA384F188938741A9BA97238063
:10057000A7008D4723A6F18803C68188854663F0CE
:10058000C60283C78188F91793F7F70F2383F18891
:1005900083C76188C5F7954723A6F18845B72383AC
:1005A0000188FDB783C691889387160093F7F70FEC
:1005B000A384F188938741A9B6972380A70003C736
:1005C000918883C761888907E36AF7F6E9B783C52D
:1005D0008188138541A9DD356399A40499476DBFCE
:1005E0009307F0076313F50483C761809DCF83C62B
:1005F00071889387019993F6F60FA380D71083C66D
:1006000081881387019993F6F60F2380D71003C6CC
:1006100061881376F60F2381C71083C7618889EB41
:100620008547A301F7102383018023A6018839B7EA
:1006300083C761888147138641A983C56188E3F137
:10064000B7FE93852700B29583C505003308F700F0
:10065000850793F5F50F2300B80093F7F70FF1BF67
:10066000411181471386818793860184A145380013
:100670003308F700B388D7003387C7000347070064
:1006800083C808008507334717012300E800E3907B
:10069000B7FE3C0019663E87130646C58346070031
:1006A0000507B29683C60600A30FD7FE1408E3978A
:1006B000E6FE1307F10083C50700850793D6750092
:1006C0008605CD8E83C50700AD8E2380D700E31449
:1006D000F7FE8147A146138737001D8B41070A9714
:1006E000034787FFB305F5008507329703470700E7
:1006F0002380E500E391D7FE41018280EFF25FA302
:10070000411193070040371501402312F1004C00BE
:100710009147130505803EC6EF30602937450140FB
:100720008357C58013050580054693E747002316C8
:10073000F5008357C5009305505293E70701231630
:10074000F500EF307017B7E700E0A38A07423707DC
:10075000200023A2E710B747014013850780854595
:10076000EF301014239901882398018823A601886B
:1007700005472383E18093870199A38107104101F5
:100780006FF05F9DB5BB5D7122DE374401402ADC0E
:100790002EDA130504809305505286C696C49AC279
:1007A0009EC032D836D63AD43ED242D046CE72CC53
:1007B00076CA7AC87EC6EF30B01305C903554480A7
:1007C00083D7218903D70189850793F7F70F13751D
:1007D000F50F630BF70003D62189138741B93297D0
:1007E0002300A7002399F188213B7254B640A6420A
:1007F000164386436255D2554256B25622579257F7
:100800000258F248624ED24E424FB24F61617300BD
:1008100020309387019983C737101385019991E39D
:100820000145828093870199A3810710054723839F
:10083000E1808280EFF2DF8F6D712E87328411C2EA
:10084000D1C99307E0072306F1009307240093F52D
:10085000F70FA306B1002307A100814793F6F70F16
:100860009384360093F4F40F13860411B304260026
:1008700063E586061305D100913113065400110477
:100880001374F40F9307041133842700238EA4EE0E
:100890009307F007230EF4EE1376F60F8147B74661
:1008A000014013F7F70F6362C70403A7418D954713
:1008B0006312F70283C7418B91EF6C001305300878
:1008C000EF2010638547930500030D45238AF18AC5
:1008D000EF20F03451616FF0FF87B306F70083C655
:1008E00006008507238ED4EE95BF03D706801377C5
:1008F000070465DF78003E970347070085072392CA
:10090000E68045B7EFF2DF8241119307E027231419
:10091000F10089458947130591002305F100793ECF
:100920009307F0072306F100A305A1008147B7460E
:100930000140154603D706801377070465DF3800AA
:100940003E970347070085072392E680E394C7FE9E
:1009500003A7418D631DF7002C00154613053008D1
:10096000EF201059930500030D45EF20502B410156
:100970006FF04FFEEFF2CFFB6D712E87328411C600
:1009800089E5014551616FF0EFFC9307E00723060D
:10099000F1009307240093F5F70FA306B100230796
:1009A000A100814793F6F70F9384360093F4F40F78
:1009B00013860411B304260063ED86041305D100E9
:1009C000F53C9307440093F7F70F938707118A9735
:1009D0001307F007238EA4EE238EE7EE03A7418DC5
:1009E0009547E310F7FA83C7418BC1FF1306540004
:1009F0001376F60F6C0013053008EF20704F854713
:100A00000D4593050003238AF18AEF205021054507
:100A100095BFB306F70083C606008507238ED4EE84
:100A200051B7EFF2EFF04111935706012315C100C2
:100A300061822304A100A304B100A306C1002C001D
:100A40001946130510052306F1002D3741016FF0FB
:100A50006FF0EFF24FEC8547AA892E89B2846303C9
:100A6000F50499679385078F99671386478F8547A4
:100A70006301F90499669386069083C7018895CF30
:100A80009967938747821965268713050592EF308A
:100A9000902E83C7018895C72686CA854E85513713
:100AA0006FF0AFEA99679385478E99671386878EB3
:100AB0007DBF99669386868FC9B79967938787901C
:100AC000D9B7B70A002083A70A14054785076373BF
:100AD000F7003E8783C7B18523A0EA14254B637CCA
:100AE000FB001306C0069385419213858191EFF0B8
:100AF0002FE7A38D618503C7B185B14693878191A7
:100B0000B306D7020507A38DE184B697930650FA82
:100B10002380D70083A60A14A380370123812701ED
:100B2000A3810700C4C394C7EFF01F9095BFEFF2F5
:100B30002FE0A386A18603A7418723A4E18605E1D0
:100B40002A84856537150140054693850580130580
:100B500005C0EF20B076238681866FF0AFDF856514
:100B600037150140014693850580130505C0EF2028
:100B7000F0740544CDB783C7D18609476387E70082
:100B80000D4729466385E70082801306200383A76B
:100B9000418783A581868D8FE3E8C7FE83A74187C0
:100BA00085653715014023A4F18603C6C186938568
:100BB0000580130505C0133716003336C0002386A1
:100BC000E1866F20B06F03C5E186238701868280AE
:100BD000EFF26FD4411185452145EF300025854561
:100BE0001145EF30802485450545EF300024B706D8
:100BF0000140DC42370700F17D17F98F370700020B
:100C0000D98F37140140DCC28D49E14741494C007E
:100C1000130504C02312F1004EC44AC6EF20305918
:100C2000130504C00146A145EF2050690546130590
:100C300004C0C145EF2090688564938724004C0070
:100C4000130504C02312F1004EC44AC6EF203056EB
:100C5000130504C005468945EF205066014613057B
:100C600004C08565EF209065938404804C001305D3
:100C700004C0231291004EC44AC6EF2050530546CB
:100C8000A685130504C0EF2070639307003023127C
:100C9000F1004C0093078004130504C03EC6EF200A
:100CA000105185474C00130504802312F1004EC4F7
:100CB0004AC6EF20D04F0546854513050480EF2036
:100CC000F05F41016FF06FC83336A0003715014067
:100CD000A145130505C0A382C1886F20305E33365D
:100CE000A00037150140C145130505C0A382C1808E
:100CF0006F20D05CEFF2CFC32A840145CD37228527
:100D0000EF20D0260545E13F6FF0CFC43337A00078
:100D100013361500371501408945130505C0A38119
:100D2000E1886F20B059EFF2AFC037150140894517
:100D3000130505C0EF20F056133515006FF08FC175
:100D40003336A000371501408565130505C02381A2
:100D5000C1886F20B056EFF2AFBD371501408565F1
:100D6000130505C0EF20F0537D15133515006FF006
:100D70006FBE3337A0001336150037150140854587
:100D800013050580A380E1886F20505303C5518867
:100D900083C751803335A00099C31365250083C7ED
:100DA000318899C31365450083C7218899C31365AA
:100DB000850083C7118899C3136505018280B7F741
:100DC000000803C6070013076004B705002063127C
:100DD000E60E03C617001307B004631CE60C03C637
:100DE000270005476317E60C03C7370029469377AA
:100DF000F70F6373E6008147A38DF18437F700088E
:100E000003454700834757000346670003477700C1
:100E1000A2074206D18F6207C98FD98F0547637336
:100E2000F7003E8703C8B18523A0E514B7F7000893
:100E300013878191C10701466317C80003C7018862
:100E4000238CE184828083C6070005061376F60FA3
:100E50002300D70083C61700B107A300D70083C6BD
:100E600067FF2301D70083C677FFA301D70083C89C
:100E700087FF83C697FF03C5A7FF83C5B7FFA206F9
:100E80004205C98EB3E61601E205CD8E54C383C870
:100E9000C7FF83C6D7FF03C5E7FF83C5F7FFA206D9
:100EA0004205C98EB3E61601E205CD8E14C731079F
:100EB00061B78547A38D018423A0F51441B7EFF2F4
:100EC0002FA703C7018801CF83C6818589EA83C61E
:100ED000B18591C68546238DD184A38C0184238C52
:100EE000E18483C7A18581CB03A7418D9547630624
:100EF000F700238D01846FF0EFA503C7918583C7A9
:100F0000B1856360F702A38D0184238D0184EFF026
:100F1000AFD183C59185196513054596EF30A0655E
:100F2000D9BF83C7418BE1FBB1463307D702938713
:100F30008191BA97D04383C5270003C51700EFF00E
:100F40005FAE83C7918503C7B185850793F7F70F18
:100F5000A38CF184E3E1E7FA7DB7EFF2CF9B371979
:100F6000014093050010130509C003A44187EF2039
:100F700050339334150093050020130509C0EF206A
:100F8000503283C6718613351500638A960603A70F
:100F9000018685463307E44063F4E600A383918627
:100FA00003CA718683C66186638EA60403A7C185C2
:100FB00085463307E44063F4E6002383A18603C932
:100FC000618683C7518663020A0491E722868545BC
:100FD0000545EFF01FA80545C53983C74186630F56
:100FE000090291E7228685450945EFF09FA6014554
:100FF000FD31A3824187238221876FF00F9523A0C3
:10100000818679BF23AE81845DBFE1DB0545228601
:101010008945EFF01FA403C541887DBFF9DB094571
:1010200022868945EFF0FFA2B707002003C54714C9
:10103000C1B729C5B7F7FF1F1387877E144393876E
:10104000C77E2300D5001443A182A300D50014431A
:10105000C1822301D50018436183A301E5009843B1
:101060002302E50098432183A302E50098434183CE
:101070002303E5009C43E183A303F50082802380E2
:10108000018803A7418723A8E186828005C18147A3
:1010900013878187A1463306F50083450600338612
:1010A000E70085072300B600E397D7FE828003C5DB
:1010B0000188828083C7018885CB83A6018783A7A7
:1010C0004187958F9306401F63F0F602EFF24F863B
:1010D000094523800188EFF09FA519651305459AFE
:1010E000EF30C0586FF00F878280630A0538EFF247
:1010F0008F8283C701888344151011712A849DE76C
:1011000005476386E40C4147638DE4204547638BC4
:10111000E422494751456385E4280146814513058A
:10112000200FEFF02FF111616FF02F829307400431
:1011300063E297069307F00263E9970285476388A5
:10114000F408938704FF93F7F70F5947637DF7027D
:10115000014681451305300FEFF0CFED1965A685E7
:101160001305859EEF3020417DBF938704FD93F7E3
:10117000F70F5147E36EF7FC19678A07130747BA61
:10118000BA979C43828719678A07130787BFBA9764
:101190009C43828793072006638DF42693074006BD
:1011A0006385F42893070006E394F4FA13052100FD
:1011B00023110100EF00607EAA8909C58357210031
:1011C00063940724014681451305100699BFB7575C
:1011D0002D30938767B43EC28967938717133EC447
:1011E00003A74187214623A8E1864C00094515BF86
:1011F0008347251091CB034505003335A00023829A
:10120000A188EFF07FAC05B7014681451305000FBB
:1012100009BF83C7518805464C002302F10013051E
:10122000200201B783472510E5D303450500B70722
:1012300000203335A0002382A714EFF05FAAE5B5A4
:1012400083C7518005464C002302F100130550026C
:10125000C9BD034725108547E3F8E7FA8347140023
:1012600003450500A2075D8DEFF0DFA86DBD834744
:101270002510D9DB034505003335A000EFF01FA989
:101280005DB5EFF05FAA2302A10005464C001305EF
:10129000200341BD83472510A5DB034505003335F9
:1012A000A000EFF0FFA941B5EFF0FFAA2302A100D3
:1012B00005464C0013055003ADB583472510A9D74B
:1012C000034505003335A000EFF0BFAAA9BD83C7D1
:1012D000118805464C002302F1001305800391B5E7
:1012E000C167938707103EC211464C0013051004D6
:1012F0000DBD48003D3B21464C001305300415B59B
:1013000083C751882302F10083C75180A302F100F3
:10131000EFF0DFA72303A1000D464C001305500496
:1013200009B505472387E186034724109D47E3FD60
:10133000E7EC2285A13B4800EFF08FB221464C003C
:101340004145C5B3034724109D47E3FFE7EA480042
:10135000EFF00FB18147214654003307F400BE96E9
:1013600083C6060003470700639DE60E8507E395E5
:10137000C7FE85472380F18803A74187054523A839
:10138000E186EFF0CFFA4D4501468145EFF08FCA77
:101390001965130545A0EF30602D71B385474D45A4
:1013A0002302F10005464C00ADBB858D1394050169
:1013B0004180814763758A0085471304A00FB38578
:1013C000990022861305610023022101A302F10086
:1013D000EFE07FDB13062400A2941376F60F4C0097
:1013E00013051006C2040509EFF0CFC4C1801379BC
:1013F000F90F83552100E3EAB4FA19654A8613050B
:10140000059CEF30401705B381440149130AA00F32
:10141000CDB7834525101307B00F9387F5FF93F7DA
:10142000F70FE363F7DEED29FDB903472510954774
:10143000E3FCE7DC034715008347050083445500C0
:1014400022075D8F8347250003453500834544000F
:10145000C207D98F62055D8D9D23E38604CCE12B05
:10146000D9B1014523800188EFF06FEC5145014669
:101470008145EFF02FBC1965130505A129BF8280B6
:10148000EFE27FC91D64B7540040B70900102A89F4
:101490001304145393840440054A938909407D142E
:1014A00001CCCA852685EF20207F630A4501CE85C1
:1014B0002685EF20100065D501456FE01FC9054561
:1014C000EDBF63040612EFE21FC5375900402A8AB8
:1014D000AE89130509408545B28437040300EF2027
:1014E000A07213051400693F4DC583C5C180130563
:1014F00009400146EF20E077370B070013052B0862
:10150000413741C913050940D285EF208075130585
:101510004B08BD373DCD130509408545EF20C06E12
:1015200013051400B13F35C583C5C18013050940BB
:101530000546EF20007413052400993739C9B75ABE
:1015400000400149138BF4FF138A0A40130404047A
:10155000631A2B0181455285EF20C06E8545528567
:10156000EF20606C2285293F0DC55285EF20C06FAA
:10157000B387290105092380A70093170901C183B7
:10158000E3E897FC13850A408545EF20A06B0545ED
:10159000A1A037540040130504408545EF20806A20
:1015A000130504408545EF20006813050440854578
:1015B000EF20206D130504408145EF20806C13055A
:1015C000044085459D64EF206062938414531304A6
:1015D0000440FD1481E401456FE03FB7B705020008
:1015E0002285EF20006D75F5FDB705458280EFE29D
:1015F0009FB2797185453545EF2030038545370524
:101600002200EF207004B71401401144E1478D49D6
:101610004C0013850480231281003EC64EC4EF2087
:101620000039A1474C00138504803749004023123C
:10163000F10022C6EF20A037716413040420B7071D
:101640000C000C08130509403ECC22C802CA231E18
:101650000100EF203019130509408545EF20502483
:1016600005461305094093055052EF20F024B7E7D3
:1016700000E00547238BE7423707400023A2E7102D
:101680009307000C2312F1004C00F147138504C0AE
:101690003EC64EC4EF20A031E1679387076A3ED073
:1016A000B707FFBF3ED2B7070004B7540040938787
:1016B00007033ED40C109167138504402316F102F2
:1016C000EF206041138504408545EF20205223928E
:1016D000018A2391018A239D0188239C018823800C
:1016E000018AA388018A2399018A2386018A1965C0
:1016F00023A4018A13060002A285130505A223A4D0
:101700008180EF20506745616FE03FA4EFE2DF9FEB
:1017100083C7C18A03A6418705474111638FE7024A
:1017200089466389D70AB1E383A7818A9305700C40
:10173000B307F64063F6F50023A4C18A2386E18A45
:10174000EFF0FF96631605102392018A2391018A18
:101750002380018A41016FE0BF9E41468A85014591
:10176000EFF03FD611E5A388018A2386018AC9BF1D
:101770000347010093076004E317F7FE03471100D6
:101780009307B004E311F7FE83478100034771001C
:101790009306F03FA207D98F1387F7FF42074183D3
:1017A000E3E3E6FC834631002388D18A8346410087
:1017B000A387D18A834651002387D18A834661005B
:1017C000A386D18A2399F18A2393018A89472386A4
:1017D000F18ABDB703D5618A83D7218B4147898FB1
:1017E0003E84C207C1836373F700414442044180D1
:1017F000410522868A851375F50FEFF09FCC21C530
:1018000003DB618A1385410D22868A855A95EFE0B4
:101810009F975A94420483D5218B41802393818AD8
:10182000E360B4F20547A388E18A03C7F18A83C65F
:10183000D18A03C6E18A1965130545A52386018A65
:10184000EF207053F5BDA388018A2399018A31BF27
:1018500003A7418D9547E31FF7EE83C7418BE39BB9
:1018600007EE03C6018A83A9418705C283A7C18900
:101870000947B387F940637AF700938541E9130577
:101880003006EFF02F8F2380018A138A41ED938B6E
:1018900041E903C7018A81461308F00303D5418A51
:1018A00083D5218A9317050113960501C1834182CF
:1018B0006365B506918FC207C18381EBE38C06E8AF
:1018C00023AE21892380E18A71B583D6218A9307CB
:1018D00017005E97D29603C6060083D6218A93F737
:1018E000F70F2300C700850693F6F61F2391D18AD0
:1018F00085466371F80213060004938541E91305D8
:10190000300623AE31892380F18AEFF0AF86238041
:10191000018A41B74E893E8751B79387072059BF47
:1019200025CDBDC9EFE2DF800147138841C983D7C8
:10193000A18903D68189850793F7F71F631CF602F7
:1019400083A54189850523AAB18813F7F503854747
:101950006317F70019651305C5A7EF20D041374578
:10196000004005469305707213050540EF20C074D2
:101970006FE04FFE03D6A189B308E50083C80800D5
:101980004296050723001601239DF188931707014E
:10199000C183E3EEB7F8E1B7828083C7118B81C7BB
:1019A00083D7218B91E719C123100500014582805F
:1019B00001E51385410D82802310F500DDBFEFE2C4
:1019C0002FF74111AE8421C903A781802A846304C3
:1019D000A7043749004023A4A1802AC0B7070C0000
:1019E0008A85130509403EC402C223160100EF2078
:1019F000605F854513050940EF20806A93055052CA
:101A0000130509400546EF20206B1965A2851305D3
:101A100045AAEF20503689CC03C7C180630A9700DE
:101A20001965A685130505AC23869180EF20B03497
:101A300041016FE02FF22392018A2391018A239DB5
:101A40000188239C01882380018AA388018A239925
:101A5000018A19652386018A1305C5AD23A4018A6D
:101A60006F20D0405D7122DE374400402ADC2EDA40
:101A7000130504409305505286C696C49AC29EC070
:101A800032D836D63AD43ED242D046CE72CC76CA7E
:101A90007AC87EC6EF20C0650DC98356444083D7FF
:101AA000418A03D7218A8507C20693F7F71FC182AF
:101AB000630DF70083D5418A138741ED93F6F60F46
:101AC0002E972300D7002392F18A374400409305D4
:101AD000707213050440EF20A0610DC983D6A1895F
:101AE00083D781896388F60483D68189938741C926
:101AF000B69783C7070093F7F70F2312F44083D7F5
:101B00008189850793F7F71F239CF1887254B640AB
:101B1000A642164386436255D2554256B2562257C4
:101B200092570258F248624ED24E424FB24F616114
:101B30007300203001469305707213050440EF20B6
:101B4000A057E9B701A041113AC63EC483A7418717
:101B5000850723AAF186B707004079572398E70045
:101B60003247A24741017300203041113EC4B707FC
:101B7000EFBE3AC69387070837E700E03CC701A0ED
:101B8000B71702409843B706FFF0411113671700DB
:101B900098C3D84337060200758FD8C39843B70659
:101BA000F7FEFD16758F98C39843B706FCFFFD1628
:101BB000758F98C3D843B70601FFFD16758FD8C33C
:101BC00037079F0098C702C402C69843C166558F65
:101BD00098C3B716024005679C42F18F3EC6A247E4
:101BE00085073EC4B24781E7A247E397E7FEB717F0
:101BF00002409C4337070200F98FB5C785473EC6B0
:101C000032478547631FF704B7170240D843B7062A
:101C1000C1FFFD16D8C3D843D8C3D84313670740C4
:101C2000D8C3D843758FD8C3D843B7062900558F7A
:101C3000D8C39843B7060001558F98C3B706000272
:101C40009843758F75DFD843B7160240719BD8C390
:101C5000D84313672700D8C32147DC42B18BE39EEA
:101C6000E7FE4101828002C661BF371702405C4334
:101C7000A146B18B6397D7065C435843C166C983BD
:101C8000BD8B758F8907C5466393D700C94701EFA0
:101C90003747024003270780418B09CF37177A0067
:101CA0001307072021A8371702405843B706020040
:101CB000758F6DD737173D0013070790B387E7027D
:101CC000371702405443370700201307070091825B
:101CD000BD8A369703470700B3D7E70023A8F180F2
:101CE0008280B7177A0093870720D9BF39712AD627
:101CF0003705040006DE16DC1ADA1ED82ED432D2DE
:101D000036D03ACE3ECC42CA46C872C676C47AC2F3
:101D10007EC0EF10D039F250E2525253C2533255C6
:101D2000A255125682567247E2475248C248324E76
:101D3000A24E124F824F216173002030397106DEAE
:101D400016DC1ADA1ED82AD62ED432D236D03ACEA3
:101D50003ECC42CA46C872C676C47AC27EC0E92A60
:101D6000F250E2525253C2533255A2551256825685
:101D70007247E2475248C248324EA24E124F824F3B
:101D8000216173002030EFE2AFBA0111680002C692
:101D900002C802CA02CC02CEEF10707D3247B747AC
:101DA00095089387074009456300F702B7E7B80530
:101DB0009387078005456309F700B777DC029387AF
:101DC00007C06315F7000145EF10D078854537054A
:101DD0008000EF20600705616FE0CFB7EFE24FB5FD
:101DE0001965130585AFEF2070080D4723AAE18C14
:101DF0006FE04FB6EFE2CFB31965130545B1EF20A1
:101E0000F00603C7E14F11C7154723AAE18C6FE025
:101E10006FB40547DDBFEFE2AFB101113705040034
:101E2000EF10F028B707040005443EC80808C14772
:101E30003ECC22CE02CAEF10702193074012280038
:101E40002314F10022C623050100EF10106A930746
:101E5000A00328002314F100EF10306905616FE042
:101E60006FAFEFE2EFACAA842E8411458545EF10E9
:101E7000D07BB7670040938707C49843A9C4C16665
:101E8000F516758F98C3B717014093870780D8431D
:101E9000B716F0FFFD16758FD8C3D847F97693862D
:101EA000F67F758FD8C7D843B7460400558FD8C37F
:101EB000B74702409387078098431DCC13672700DC
:101EC00098C36FE02FA9136727004207418398C387
:101ED000B717014093870780D843B716F0FFFD1668
:101EE000758FD8C3D847F9769386F67F758FD8C794
:101EF000D843B73603005DBF759BD9B78280EFE248
:101F00002FA339718A850945EF107001AA84014415
:101F1000631994008D650945EF10E05421616FE06D
:101F20006FA3B307810003C507000504EFE09F8599
:101F3000C5B7238A018A8280EFE28F9F376600400F
:101F4000130606C51C42C1651385F5FFB736002090
:101F5000E98F9906B69786079C4303D7418C9385F2
:101F600005C0ED8F0111638BE7001C42137707C09A
:101F7000E98FB69786079443558F98C3B76600409C
:101F8000938646C49C42C207C1832391F18C03D738
:101F9000218C83D7418E7D8F1377072001CF416736
:101FA0001307F7DF98C203C7018C05071377F70FF4
:101FB0002380E18C03D7218CF98FC207C18763D4BA
:101FC0000700EF10400383D7218C03D7418EF98F90
:101FD00093F7074091CFC1679387F7BF37670040FA
:101FE0002322F7C4B70700209387470ADC43829770
:101FF00003D7218C83D7418E89667D8F758F19C752
:102000003967B76600407D1723A2E6C403D7218C49
:10201000F98F0567F98F89CBBD6737670040FD17DA
:102020002322F7C40145512383D7218C03D7418E46
:10203000F98FAD83858B89CF83A7018363880710D0
:102040007121BD67376700409387F77F2322F7C46C
:1020500083D7218C03D7418EF98F93F70710E5C7FB
:10206000B76700404167938647C41306F7EF90C2F5
:10207000938687C494429395060163D2050C83A688
:10208000C18B850623AED18A83A5C18B8D4663FAA9
:10209000B60A938607C49C42A18BC5E78C427D1784
:1020A000F98D23ACB18AB76500400145138E05C098
:1020B000214313182500B308C80183A8080013049E
:1020C000080233082400B3F8E800232018FF0505B0
:1020D000E31165FE03A5818B938505C41365150087
:1020E00023ACA18A03A5818B798D88C103A5818B3F
:1020F000799923ACA18A83A6818B758F98C1B76526
:102100000040938645C49842137707407DDB4167C2
:102110009305F7BF376500408CC2130505C09306D1
:10212000F7FF214813972700930507028A9583A597
:1021300005FE2A978507F58D0CC3E39507FF23AEAF
:10214000018A1D459D2105616FE0CF800945B129B8
:10215000CDBD83C7E14F81C7154723AAE18C82809B
:10216000114723AAE18C8280828099E513352500EE
:1021700013451500060582800945828019E583A76D
:10218000C18E1D472398E70082801385818282805B
:102190006FF0DFFE03A7C18E930610020945834747
:1021A000070093F7F707639BD70283461700638303
:1021B000F602930700026393F60289679387071973
:1021C000EFD21FF71CCF2319070001458297014565
:1021D0006FD05FF889679387C717DDB7828003A741
:1021E000C18E9306100201458347070093F7F70756
:1021F000639ED70083471700130720026388E70018
:102200009387D7FDB337F000139517008280EFD284
:102210003FF283A7C18E238507005124B767004092
:10222000056637670040938707C01306F6F09305ED
:1022300007C29443F18E94C39107E39CB7FE130742
:1022400047C49307F00F1CC3EF1020488145014598
:1022500023AA018CEFF0FFC05145EF1020518545B6
:102260000545EFF01FC06FD0FFEEEFD27FEC19678E
:102270000347F7D883A7C18E0145A384E7002395C0
:102280000700EF10C016930500200145EF1020173E
:10229000C1450145EF10A018930500040145EF105A
:1022A000602F930500080145EF10C02C0145EF1089
:1022B000E026B707002083C5070D0145EF10A035C4
:1022C0000145EF10801FB7670040938707C0984310
:1022D0009166758F19CB984385669386F6F0758F56
:1022E000B16693860608558F98C3B76700409387F9
:1022F00007C098431377070419CB984385669386E4
:10230000F6F0758FA1669386060C558F98C39305DA
:1023100000600545EF10A00E930500020545EF1083
:1023200000109305000C0545EF10C02481450545BC
:10233000EF106013B7670040938747C09843137747
:10234000070419CB984385669386F6F0758FA166CE
:102350009386060C558F98C3B7670040938747C094
:1023600098439166758F19CB984385669386F6F0EE
:10237000758FB16693860608558F98C381450945C8
:10238000EF10E00781450945EF1060099305001043
:102390000945EF102020930500040945EF10A02700
:1023A0008D650945EF10200CB7670040938787C003
:1023B00098439166758F19CB984385669386F6F09E
:1023C000758FB16693860608558F98C3B76700402E
:1023D000938787C098431377070419CB9843856682
:1023E0009386F6F0758FA1669386060C558F98C379
:1023F00081450D45EF10A000930500020D45EF103B
:102400000002930500140D45EF10C01681450D45DF
:10241000EF106005B76700409387C7C098431377F4
:10242000070419CB984385669386F6F0758FA166ED
:102430009386060C558F98C3B76700409387C7C033
:1024400098439166758F19CB984385669386F6F00D
:10245000758FB16693860608558F98C30145EF00C6
:10246000102C054723AAE18C6FD0DFCE9385C18164
:102470000DAD9385418135A583A7C18E83C53700F6
:10248000914763E9B700B7070020938707068E05D9
:10249000BE9501AD01458280828082808280B767CF
:1024A0000040138707C4854614C323200700938781
:1024B00047C423A00700F177938707F02392F18E9A
:1024C000B167938707F01CC301458280B76700405E
:1024D00083A707C4376700404168C207C1838146AC
:1024E000130307C07D189385414DA148139626001C
:1024F0003305660008412E9685063375050108C22E
:10250000E39616FF93E60740130707C414C393E648
:102510001740F99B14C31395070193E707404181C6
:102520001CC3B7660040138746C41C4393F707409B
:10253000FDDBC1669387F6BF1CC3B7670040014748
:10254000138307C01386F6FFA1489316270033882C
:10255000D500032808009A9605073378C80023A001
:102560000601E31417FF938707C41367854098C3D8
:102570009843420741831367470098C36FF01F8653
:10258000EFD21FBB37640040130404C41C40C207D1
:10259000C183ED9BC207C1831CC0EFF0BF85B1674B
:1025A000938707F01CC06FD0FFBAEFD27FB89D476A
:1025B0001384C18C6303F50008C01C401547636E8B
:1025C000F70019678A07130707DEBA979C438287CB
:1025D00083A7818C89E7EFF0BFFA994711A095474F
:1025E0001CC001A8EFF0DFF991471CC0054723A4E8
:1025F000E18C6FD03FB689472302F4008D47CDB7F9
:1026000083474400FD1793F7F70F2302F400834735
:102610004400E5F39147E9B737670040130707C463
:102620001C43C207C18393E707011CC395471CC025
:10263000A9472302F40075BF83474400FD1793F7B1
:10264000F70F2302F40083474400C5F737670040C3
:10265000130707C41C43C207C183BD9BC207C183C4
:102660001CC399471CC023A4018C61B7EFD25FAC97
:1026700001E983A7C18E05472398E7006FD09FAD7E
:1026800083A7018E9C43829703A5C18E2905FDB7C0
:10269000EFD21FAA01E983A7C18E05472398E7005F
:1026A0006FD05FAB83A7018E9C47829703A5C18E35
:1026B0003105FDB703A7C18E51C5EFD27FA7239E79
:1026C000018C8347070093F7F70785EF03479700CF
:1026D0009377070281C78947238EF18C137707040C
:1026E00083C7C18D09CF93E71700238EF18C83A791
:1026F000018E9C4B82971385C18D6FD0BFA5F99B2E
:10270000EDB78546E389D7FE89460145E397D7FEB5
:1027100003475700B7660040938606C09377F700DB
:102720008A07B69762079C4361876359070093F74E
:1027300007034147E39DE7FA854745BF0D67F98FDA
:102740000567CDBF89472318F70001458280EFD286
:102750009F9C83A4C18E03D4040103C7840051EC61
:1027600091476316F70403A7818D8547631CF70221
:10277000B767004083A707C5373700200907C2079E
:10278000C183BA97860723A0070093070003239904
:10279000F18E23AC018C114983A7C18E23842701BC
:1027A0006FD0BF9AC1472399F18E1D49F5B71149E2
:1027B00001449C4C42044180228582972A8A01452B
:1027C000EF00705FAA8522865285EF00F03DA2855A
:1027D0000145EF00706283D704010D67818F239854
:1027E000F40083D724013E94930700032399F18ECC
:1027F00023998400239AE18E45B783D74401114978
:1028000063F387000949E3F687FA3E845DB783A73F
:10281000C18E83C6518203C73700094563E3E602D0
:1028200083C6270099EE83D6470081EEEFD25F90F2
:102830002385E70083A7018EDC43829701456FD093
:102840007F918280EFD2DF8E83A7C18E03A7818E16
:10285000411183C53700184F03C55700029783A75E
:10286000C18E03C7A7001DCB2AC60DE903C74700C9
:1028700015E783C727009DE383A7018EDC47829776
:1028800083A7C18E324503C75700A385E70003C75E
:1028900037002386E70041016FD0DF8B0945E5BF94
:1028A00083A7C18E03C707001377F70711EB03C790
:1028B000970081461377F7FDA384E7003685828071
:1028C00009468946E31CC7FE03D7270065FB03C7FB
:1028D00047006DF7EFD2DF8503C65700376700402A
:1028E000130707C01375F6F7131425003A94620610
:1028F000184061864111635806041377070383C5A6
:1029000041828946637DB5021DCB83C7A70085CB75
:102910001C40635D060293F707034147639CE70091
:102920001375F50F2AC6EF00504232459305000398
:10293000EF00F02E83A7018EDC4B8297814636850F
:1029400041016FD03F818D66758F55BF0D67F98F3F
:102950000567E391E7FE15EDB707002083C5070D76
:10296000EF00704B1C4071771307F7F8F98FC2071F
:102970000D67C183B98F617713070708D98FC20725
:10298000C1831CC08D661840758FE305D7FA1CC043
:10299000DDBFEF00F0381C4071771307F7F8F98FAF
:1029A000C2070D67C183B98F617713070708D98FF5
:1029B000C207C1831CC08D661840758FE30CD7F623
:1029C0001CC0DDBF03A6C18E37670040130707C0D8
:1029D0008346560093F5F6F793972500BA97E206DB
:1029E0009843E18663D106061377070303C8418243
:1029F000094563F6050983552600D1E149C303471C
:102A0000A60035CFEFD2CFF2984363D30604E57624
:102A10009386F6FB758F42074183E17613470701E2
:102A200093860608558F4207418398C341469443D5
:102A300093F60603639CC60083A7018E9C4F829782
:102A400001456FD02FF10D65698F4DB798C3C5B79C
:102A5000F1769386F6F8758F420785664183358F48
:102A6000E17693860608558F4207418398C38D65AA
:102A700005669443ED8EE381C6FC98C3DDBF82807A
:102A8000EFD20FEB03A7C18E8347970093E70702AE
:102A9000A304F70083A7018EDC4F829701456FD016
:102AA0006FEB83A6C18E03D7260119E583D74500B6
:102AB000998F2398F600828088413A958280EFD2E0
:102AC0002FE7B707002083C5070D0145EF00B0349D
:102AD00083A7C18E03C58700A1476318F50005676A
:102AE000239AE18E41472399E18E5D151335150038
:102AF0006FD04FE6EFD2CFE303A9C18E3766004017
:102B0000930706C5834689009C4325474111638A84
:102B1000E60441677D17B7360020F98F9106B69716
:102B200086078443F98C8604B29483C7040023008B
:102B3000F90083C71400A300F90003D54400EF0097
:102B4000F0372311A90003D5840003A9C18EEF003B
:102B5000F0362312A90003D7C40083A7C18E2393A4
:102B6000E70083A7C18E054783D667002384E7006B
:102B700083C417006397060E83C6070093F6F60713
:102B8000D5EEA5466396D400EFF07FC835E51DA8C5
:102B90009546639CD40403873700635C0700A14714
:102BA00003A7C18E2304F700EFF07FF141016FD03E
:102BB0006FDA03C7270065F703D747006DF383C7B4
:102BC000A700F1FFB767004083A707C5373700208C
:102BD0000907C207C183BA97860723A00700130716
:102BE00000032399E18E994765BF8D466397D40210
:102BF00083C63700638DE60083A7818E2685DC4B74
:102C000082970D47A547E30DE5F84DDD49BF83D712
:102C10004700FDF3EFF0DFE695BFE39FE4FC03C759
:102C20003700E31B97FC03D7470079F783C797006A
:102C300093F70702F1D3EFF0BFC689BF6398E600B0
:102C4000AD47E39BF4FAEFF0FFBF89B78947E395FF
:102C5000F6FAE382E4FE8D47E390F4FAEFF09FD6B4
:102C600035B79946639AD40203C6070083A6818EBE
:102C70001376F60771EA83C727006395E700DC4EF9
:102C8000A1E7D9A009476394E7009C52D5BF0D473F
:102C9000639CE70ADC52EDB7E9E883D62700CDE66E
:102CA000D44341761306F60FF18E37060200639D7A
:102CB000C60883C6070093F6F60795EA83D7470050
:102CC000C1E789679387476B03A7C18E01451CCF76
:102CD00023190700829783A7C18EC166FD1603D70B
:102CE0000701631ED70E25472384E70075BD639057
:102CF000E60203A7818E03C557008145184F02974E
:102D000021E583A7C18E83C7A700C5FF35A8094762
:102D1000639CE60203C75700B7660040938606C06F
:102D20001376F70093172600B6979C4393168701F6
:102D3000E18663D9060293F7070383C64182637570
:102D4000D6001377070771D303A7C18E83A7818E9F
:102D5000034517009C4B82978D476317F50683A7A1
:102D6000C18E51B78D66F58FC9BFA146639BD40054
:102D700083C7070093F7F707E1FB89679387C76667
:102D8000A1B703A6818EA946E390D4FC83C60700B1
:102D900093F6F607E39AE6FA03C7A70055D703D7D9
:102DA00027005DF3D843C1769386F60F758FC16611
:102DB000E31CD7F8184E03C557008145029749F523
:102DC00089679387076909B783A7C18EC166FD1616
:102DD00003D70701E309D7F089466303D50019E358
:102DE000214719B78386070063D2060403D667001C
:102DF00083A6818E32C6B24583C6C60263FAE50059
:102E000032472398E700239AD700EFF05F9469BB1D
:102E1000E37BC7FE6375D70023AC018CEDB7336746
:102E2000D70275F3054623ACC18CF1BF0D4723844F
:102E3000E7000D67239AE18E85BBEFD2CFAD03A4E7
:102E4000C18E834784001387E7FF1377D70F71C7BD
:102E50001387D7FF1377D70F55EB184C835704010F
:102E600005CF83544401B1C763F39700BE84C20405
:102E7000C1802685029783570401AA890145858F61
:102E80002318F40083572401A6972319F400A127DF
:102E9000AA8526864E852D2B8357040199CB0D6775
:102EA00081450145239AE18E812F13070003239961
:102EB000E18E835704018356440103A7C18E63EF5B
:102EC000D7008D472304F7008347870003A7C18EEF
:102ED0002304F700EFF0BFBE6FD02FA799C395472B
:102EE000D5B799472304F700B767004083A707C504
:102EF000B73600208906C207C183B697860723A08C
:102F00000700930600032399D18E7DBF1D4763966A
:102F1000E70083A7818EDC478297A14745BF83C81E
:102F2000418237660040856521680147130606C067
:102F30009385F5F013080808636917011365050800
:102F4000B767004023A6A7C4828093162700B296D5
:102F50009C42ED8FD98FB3E707019CC20507E9BFFB
:102F6000EFD20F9D83A7C18E83C687001387E6FF2C
:102F70001377D70F19EFEFF08FFD83A7C18E83C7AB
:102F8000870003A7C18E2304F700EFF05FB36FD073
:102F90006F9C19476384E600A147E5B783C6170015
:102FA0001547639FE60003C707001377F70709EB90
:102FB00003C53700EFF0BFF683A7018E9C538297BD
:102FC00083A7818E9C478297C1BF82809387414FA0
:102FD00023A6F18E09472384E700B70700209387D3
:102FE000470A23A4F18E9C433707002013070708E4
:102FF00023A0E18E8287EFD20F924111B709002002
:10300000370A00202317010093894904130A8A0212
:1030100037670040930747C49C4393960701C182DA
:10302000C2072391D18CC18763D3071683D7218C24
:10303000130507C0BD8B2388F18E639307301C41B5
:103040000D67B166C207C183239AF18E83D7418F82
:103050009386F6F8A16593F707032399F18E83D73A
:10306000418F9385050837680040F98F239AF18EC8
:103070001841A5679387F7FB7D8F1C411347070213
:10308000F58F8966B58F931607015D8F4D8F18C137
:103090006177C18213070708558F420713050002A5
:1030A0004183930508C0944193F606036394A60EEA
:1030B000617713070708D98FC207376500408D6510
:1030C0008966C183130405C018406D8F6316D70C41
:1030D00083D7218CC18BF9E71C40A5691387F9F0D0
:1030E000F98F1CC0EFF0DFE718401C40B1669386F3
:1030F000F6F8F58F83D6418F05669389F9FBF18E3B
:103100003377370199C28566B58F83D6418F0966BB
:10311000F18E99C28966B58F83D6218FC18A99C2F3
:103120001347070183D6218F93F6060299C21347EE
:103130000702216693160701130606085D8F518F5B
:10314000376600402320E6C06177C1821307070875
:10315000558F4207376500404183130605C014426E
:1031600083D5218F93F60603639AD50261771307FF
:103170000708D98FC207376500408D65C183930664
:1031800005C0984203D6418F6D8F631BE600410155
:103190006FC0BFFB98C131B71CC02DB718C275BF37
:1031A0009CC2F1BF1C40856A13870A80C207C18395
:1031B0002317F1008357E100F98FDDCF1C401387FF
:1031C000FAF8F98F1CC0EFF0FF921840A5679387BB
:1031D000F7FB7D8F1C40B1669386F6F8F58F83D69A
:1031E000418F0566F18E99C2B3C7570183D6418FCF
:1031F0000966F18E99C28966B58F83D6218FC18AFF
:1032000099C21347070183D6218F93F6060299C20C
:1032100013470702216693160701130606085D8F00
:10322000518F376600402320E6C06177C1821307C3
:103230000708558F4207376500404183130605C0D4
:10324000144283D5218F93F606036395D5026177E7
:1032500013070708D98FC207376500408D65C18302
:10326000930605C0984203D6418F6D8FE301C7F2E4
:103270009CC2FDB718C2D9B78357E100C207C18706
:10328000E3D807D81C401387FAF8F98F1CC0EFF079
:10329000DFBA1840A5679387F7FB7D8F1C40B166A6
:1032A0009386F6F8F58F83D6418F0566F18E99C225
:1032B000B3C7570183D6418F0966F18E99C28966DB
:1032C000B58F83D6218FC18A99C21347070183D650
:1032D000218F93F6060299C21347070221669316BF
:1032E0000701130606085D8F518F376600402320C3
:1032F000E6C06177C18213070708558F420737651B
:1033000000404183130605C0144283D5218F93F6F4
:1033100006036395D502617713070708D98FC207A3
:10332000376500408D65C183930605C0984203D67A
:10333000418F6D8FE30DC7E49CC2FDB718C2D9B7AA
:10334000139727002A971443C206C1822317D1007E
:103350008356E100C206C18663DD0600FD171443F3
:103360008A070566D2971306F6F89C43F18E14C3BC
:1033700082978357E10093F70708E38B07C883C759
:10338000018FB7660040938606C0139727003697D3
:10339000FD1714438A07CE9725661306F6F09C4363
:1033A000F18E14C38297ADB1B73700200506BE95E4
:1033B0000586860511E282808347150003470500D4
:1033C0009105A207D98F239EF5FE09057D16DDB76D
:1033D000B73700200506BE950586860511E2828076
:1033E0009C4109057D16231FF5FE9105C5BF619916
:1033F00042054181B767004023A8A7C48280B76710
:103400000040938707C00A053E951C416577130766
:10341000F798F98FDD8DC205C1810CC18280B76735
:103420000040938707C00A053E951C416577130746
:10343000F7FBF98FC20713F70501C18319C393C7BF
:10344000070113F7050219C393C707026177130732
:103450000708D98FC207C1831CC11841137707031E
:10346000E31CB7FE8280B7670040938707C00A0558
:103470003E951C4171771307F7F8F98F0567C2076E
:10348000B3F6E500C18381C6B98FC207C18309675E
:10349000B3F6E50081C6B98FC207C1836177130710
:1034A0000708D98FC207C1831CC18D661841758F6B
:1034B0006313B70082801CC1D5BFB76700409387F4
:1034C00007C00A053E951C4171771307F7F8F98F7D
:1034D000C2070D67C183B98F617713070708D98FBA
:1034E000C207C1831CC18D661841758F6313D70055
:1034F00082801CC1D5BFB7670040938707C00A050B
:103500003E951C4105671307F7E0F98F61771307B4
:103510000708D98FC207C1831CC182806FF0BFFD2D
:10352000B7670040938707C00A053E951C411167A5
:10353000F98F99CB1C4105671307F7F0F98F3167B5
:1035400013070708D98F1CC18280B7670040938793
:1035500007C00A053E951C4193F7070499CB1C410F
:1035600005671307F7F0F98F21671307070CD98F49
:103570001CC18280B767004083A707C50E058581FF
:10358000C207C1833E95B73700203E9506058605E4
:103590000CC18280B767004083A707C50E058581EF
:1035A000C207C1833E95B737002091073E950605B7
:1035B00086050CC18280B767004003A707C5931733
:1035C000350042074183BA9737370020BA978607FC
:1035D00003D507008280B767004003A707C593178C
:1035E000350042074183BA97373700201107BA9751
:1035F000860703D507008280B767004083A707C509
:103600000E05C207C1833E95B737002089073E9556
:1036100006050CC18280B767004003A707C5931752
:103620003500420741833E97B737002099073E9700
:103630009307E003060763F3B70493D75500FD89AA
:1036400081E5FD17C207C183AA07A166D58F1CC3F8
:103650000DE5B707002083C7070D1307E003637666
:10366000F70213D75700FD8B81E77D17420741838F
:103670002A07E1775D8F2392E18C828093D7150032
:10368000858991C18507AA07D9B713D71700858BFC
:1036900091C305072A07C5B7B767004003A707C549
:1036A0009317350042074183BA973737002019072F
:1036B000BA97860788431375F53F82809317850074
:1036C00021815D8D420541818280B767004013876B
:1036D00047C4232007007177130707F02392E18E78
:1036E0003167938707C4130707F098C301458280A9
:1036F000EFC21FA432849374F507268542042E89F5
:103700004180EFF05FEBAA8522864A85EFF0DFC9A2
:103710002685A285EFF05FEE01456FC0BFA3EFC223
:103720003FA19374F50726852E89EFF0FFF62A84D2
:103730002685EFF05FEAAA8522864A85EFF05FC909
:1037400022856FC03FA183A7018137177A00130735
:103750000720B3D7E70293F7F70F238CF18E1307F7
:10376000803EB387E702239BF18E8280B7F700E0AB
:10377000D8438146799BD8C303D7618F3306A7020C
:1037800090CBD4CB98431367070198C39843136732
:10379000170298C3D843058B75DF9843799B98C36C
:1037A0008280EFC2FF982A841165011185451105B9
:1037B000AD2D930700202312F100371501408D47EE
:1037C0003EC44C00E147130505803EC6CD2222C809
:1037D00037440140B70708000C08130504803ECCAD
:1037E00002CA231E0100EF00E07F85451305048017
:1037F000EF00100B05616FC0FF9532858147B7461A
:10380000014063C3A700828003D7068013770704B3
:1038100065DF3387F5000307070085072392E680FD
:10382000CDB7AA8703A5418337170020130787F870
:10383000AA9763EBE70037570020130707806365FB
:10384000F70023AAF18282807D55828058410C4185
:103850005045B7070140938707403E9793C6F5FF51
:1038600039C29043758E90C3D043F18ED4C31443B4
:10387000CD8E14C3184190479346F7FF758E90C7BD
:10388000D047F18ED4C7144541466399C60094478A
:10389000D98E94C7D447558FD8C78280B6979443A2
:1038A000558F98C382801C43F58F1CC38280B70755
:1038B000014093870740C8CB8280B7076745372709
:1038C0000240938737125CC3B797EFCD9387B79ABF
:1038D0005CC38280372702401C4B93E707081CCB50
:1038E0008280B7270240C847058911E5C84741894A
:1038F000133515000D058280EFC29F832A8485440D
:10390000EFF03FFE6319950019E0154531A0EFF087
:103910005FFD7D14C5BF75D86FC0DF83EFC25F81C7
:10392000AA8437051300EFF03FFD91476314F502B9
:10393000372402401C483705130093E727001CC8B2
:1039400044C81C4893E707041CC8EFF0FFFA1C4862
:10395000F59B1CC86FC01F80EFC2EFFB41112A8985
:103960001565AE8402C69149EFF01FF9631E350359
:10397000372402401C48156593E717001CC893972D
:103980000401C1832310F900EFF01FF7631B350119
:1039900009094AC6B247C180156523909700EFF028
:1039A000BFF51C48F99B1CC841016FC00FFA9C452C
:1039B00013F7070113F8F70001C7D8413368E8008F
:1039C00037270240145B3707000F758F5DEB854684
:1039D000A38CD18E371701406317E50003D705008C
:1039E00035832390E50083D5050013F7F50F31C328
:1039F00018418146054E930E80023D4F930F80047F
:103A000021433316DE00B3F8C5006310160363923A
:103A1000D70950C913962600B318CF0093C8F8FFF2
:103A200033F7E8003316C800518F8506E39B66FC28
:103A300018C11307F00F6375B70454410146054ED2
:103A4000930E8002130F800421431307860033175F
:103A5000EE00B3F8E500631117036390D70558C96A
:103A6000931826003D47331717011347F7FFF98EC8
:103A7000B3181801B3E6D8000506E31866FC54C174
:103A8000828037170140E310E5F603C7918F21DFED
:103A9000B1B7E391F7F910C9B5BFE393E7FD18C9D2
:103AA000C1B7B71701406316F50083C7918F91C363
:103AB000B5811C45FD8D3335B0008280B7170140BC
:103AC0006316F50083C7918F91C3B58119C20CC9E4
:103AD00082804CC98280EFC2AFE50111835445005A
:103AE0002A8468002E896124D24737470F001307C4
:103AF000072433D7E702C204C18093F404FCC20454
:103B0000B7869303C1809386F66F42074183D98CB1
:103B100063F4F6001307C0032312940083560400D5
:103B200061661306066AC206C182F99AC206C1829C
:103B30002310D400832609006363D6068606B3D615
:103B4000D7021146B687C206C18263F3C600914709
:103B5000C207C1830507420741832310E402231EE5
:103B6000F40083570400035749008356A90093E7E4
:103B700017002310F40083570400558FC207C18338
:103B800093F757BFD98F2310F40003578900835749
:103B9000C900D98F2314F40005616FC0AFDB8355D2
:103BA000690031667D166399C5020D46B386C6026B
:103BB000B3D7D702C207C1839396470199E293E72F
:103BC0001700A166D58F9306C0123307D70293065C
:103BD000803E3347D702BDBF6546B386C602B3D722
:103BE000D7029166C207C183D58FF9B78357050005
:103BF00091C593E717002310F5008280C207C183A7
:103C0000F99BC207C183C5BF8357050091C593E7E0
:103C100007102310F5008280C207C18393F7F7EFE6
:103C2000C207C183FDB78357050091C593E70720FD
:103C30002310F5008280C207C18393F7F7DFC20724
:103C4000C183FDB78357050091C593E70740231053
:103C5000F5008280C207C18393F7F7BFC207C18313
:103C6000FDB72318B5008280035505011375F50FC4
:103C7000828093F7E50F19C293E715002318F5002A
:103C800082808357050091C52167D98F2310F500E5
:103C90008280C607C583DDBF835745010355850173
:103CA00042055D8D6D8D220521810D8D1335150029
:103CB0008280411102C402C693D7C5012AC63EC400
:103CC000A247A205A18199CBB247D1073EC6B24710
:103CD000884341016D8D3335A0008280B247C18198
:103CE000E107EDB723AEA18E828003A7C18F854780
:103CF000834605006312F70283471500639DE702C0
:103D000083472500960793E707F837E700E093F726
:103D1000F70F36972300F740054793D75600331720
:103D2000D700544191CE938707048A07B7E600E095
:103D3000B69798C38280EDF3834725009607F1B7C5
:103D400093870706B7E600E08A07B69798C30F1077
:103D500000008280B7170240D843B70640FFFD1627
:103D6000758FD8C3D8435A05598DC8C38280371779
:103D700002405C43A146B18B6394D70A5C4358432D
:103D8000C166C983BD8B758F8907C5466393D7000C
:103D9000C94701EF3747024003270780418B09CF0E
:103DA00037177A001307072021A837170240584316
:103DB000B7060200758F6DD737173D0013070790C0
:103DC000B387E7021CC13716024054423707002070
:103DD0001307470D9182BD8ABA9683C60600B3D7F2
:103DE000D7005CC15442A1829D8ABA9683C6060060
:103DF000B3D6D70014C55442AD829D8A3697034787
:103E0000070093868183B3D7E7005CC558423983A6
:103E10000D8B369703470700B3D7E7021CC9828092
:103E2000B7177A009387072071BF99C537170240EB
:103E30001C4FC98F1CCF8280B7170240984F134583
:103E4000F5FF798D88CF828099C5371702405C4F86
:103E5000C98F5CCF8280B7170240D84F1345F5FF5A
:103E6000798DC8CF828099C5371702405C47C98FCA
:103E70005CC78280B7170240D8471345F5FF798D9C
:103E8000C8C7828099C5371702401C4BC98F1CCB0D
:103E90008280B7170240984B1345F5FF798D88CB88
:103EA0008280EFC2EFA8B7370140938707C0631F36
:103EB000F5000564854513050480EFF0DFFA8145C0
:103EC00013050480EFF03FFA6FC0CFA8B70700409A
:103ED000631BF50085450545EFF0DFFA8145054593
:103EE000EFF05FFAD5B7938707406319F500854572
:103EF0000945EFF03FF981450945DDB7B7170040A7
:103F0000138707806319E50085451145EFF09FF79A
:103F100081451145F1B7938707C0E317F5FA854549
:103F20002145EFF03FF6814521455DBF83570500F0
:103F300037370140130707C0C207C1836300E5029A
:103F400037070040630CE500130707406308E500EE
:103F500037170040130707806317E50003D72500D4
:103F600093F7F7F8D98F03D7650093F7F7CFC20718
:103F7000C183D98F2310F50083D745002316F5029E
:103F800083D705002314F502B7370140938707C094
:103F90006316F50083C785002318F5028547231AA9
:103FA000F50082808357050091C593E71700231021
:103FB000F5008280C207C183F99BC207C183C5BFD8
:103FC0008357C50009C6CD8F2316F500828093C59F
:103FD000F5FFED8FD5BF93C5F5FFC205C18123184D
:103FE000B5008280EFC2CF9403570501F577FD1726
:103FF0007D8F83D7650083D685000111D98F231863
:10400000F50083D745000357C5002A84D58F83D692
:10401000A500AE84D58FFD769386369F758FD98F98
:104020002316F5008357450103D7C500C207C18396
:1040300093F7F7CFD98F231AF5006800EFF03FD33D
:10404000B7470140938707806316F404E24765454C
:10405000B335F502904081460A063305F502A522E4
:10406000930640063357D5021306F06312079357A1
:104070004700B387F602B307F540920793872703FB
:10408000637CF6004107420741832314E400056185
:104090006FC04F8CD24765BFB3D7D7025D8FE5B7EE
:1040A0008357C50091C50967D98F2316F500828013
:1040B00079777D17F98FD5BF13F7F50F85471583EE
:1040C000B395B7006319F7009307C500984301CE75
:1040D0004D8F98C38280894693074501E318D7FE28
:1040E00093070501E5B793C5F5FFF98D8CC3828071
:1040F00093F6F50F054695822A87B317B6006393AA
:10410000C6028356C50033F5F60083570700C20781
:10411000C18301C9A18105473317B700F98F333532
:10412000F000828009466395C60083560501E1BF11
:1041300083564501C9BF01A097D1FF1F938181809C
:1041400017110020130101EC17250000130585E06D
:1041500097C5FF1F938505EB17C6FF1F1306460380
:1041600063FAC5008322050023A0550011059105BF
:10417000E3EAC5FE1385C18497D5FF1F938505E14A
:104180006377B500232005001105E36DB5FEFD4200
:10419000739002BC894273904280930280087390AE
:1041A000023097C2FFFF938222E693E232007390BF
:1041B0005230EFD0FF9C97C2FFFF9382420873906A
:1041C0001234730020303288AA882E87C5EE63F33C
:1041D000C510C1676360F61AB7070001B337F60070
:1041E000B307F040E19BE1073353F6009726000048
:1041F0009386C6C09A9683C6060013030002B6973C
:10420000B306F340630BF3003397D500B357F500C3
:104210003318D6005D8FB318D500135608013355F7
:10422000C70293160801C18293D708013377C702EA
:10423000B385A6024207D98F63FAB700C297130766
:10424000F5FF63E4070163E1B7323A858D8F33D719
:10425000C702C20893D80801B3F7C702B386E602C3
:10426000C207B3E8F80063FBD800C2989307F7FFD2
:1042700063E50801791763E3D8003E874205598D4D
:104280008145828063F5D500814501458280C16703
:1042900063EAF618B7070001B3B7F600B307F040BA
:1042A000E19BE10733D8F60017270000130707B595
:1042B000429703470700930800023E973388E8407F
:1042C0006397E81863E4B6283335C5001345150035
:1042D0008145828055C6C1676372F6261337061082
:1042E000134717000E07B356E60097270000938781
:1042F000E7B0B69783C7070093060002BA97B38E5C
:10430000F640639FF608B387C54093560601420600
:104310004182854533D5D70213D70801B3F7D702B9
:104320003303C502C207D98F63FA6700C297130728
:10433000F5FF63E4070163E667223A85B3876740C8
:1043400033D7D702C20893D80801B3F7D702330690
:10435000C702C207B3E8F80063FBC800C29893071E
:10436000F7FF63E50801791763E3C8003E8742055C
:10437000598D82809337061093C717008E07ADB50D
:10438000814697270000938767A7B69783C70700E2
:10439000014793060002BA97B38EF640E385F6F61E
:1043A0003318D60133D3F50093560801335ED30298
:1043B00013160801B395D5014182B357F500CD8F8F
:1043C00013D70701B318D5013373D302B305C6035E
:1043D000420333676700637BB70042971305FEFF14
:1043E000636D0717637BB716791E42970D8F3355A0
:1043F000D702C207C1833377D7023303A60242072D
:10440000D98F63FB6700C2971307F5FF63E30715B6
:1044100063F167147915C29793150E01B38767404E
:10442000C98DCDBD93B7061093C717008E0733D83B
:10443000F600172700001307679C42970347070001
:10444000930800023E973388E840E38DE8E6335E48
:10445000E600B3960601336EDE00B3D8E500935E46
:104460000E01B3D7D80313130E01B39505011353EF
:1044700003013357E5004D8F9356070133160601AC
:10448000B3F8D803B305F302C208B3E6160163FB21
:10449000B600F2969388F7FF63E3C60D63F1B60C9E
:1044A000F917F2968D8EB3D5D60342074183B3F642
:1044B000D603B308B302C206558F637B1701729708
:1044C0009386F5FF6369C70963771709F915729732
:1044D000C207C16ECD8F9386FEFFB3F5D70013D30D
:1044E0000701F18E4182338ED50233071741B3069F
:1044F000D30293580E01B385C502B695C695330312
:10450000C30263F3D500769393D605019A9663634D
:10451000D7026305D7003E8581458280C166FD16BE
:1045200033F7D5004207337EDE003315050172975D
:10453000E373E5FE1385F7FF81458280B70700012D
:104540006377F60293560601414745B38145054519
:1045500082803A85D1B5B685A5BF2A8E41BDC68772
:1045600091B77915C297D9BB7915C297C5B1935642
:10457000860161479DBB397132D436D63EDA2ED2E0
:104580003AD842DC46DE83A7C1838C4754102A8682
:104590003E8506CE36C6C521F240216182801C517F
:1045A000011122CC26CA4AC806CE4EC652C40045C6
:1045B000AA842E8999E3EF00505C7C50858B81EBB7
:1045C0008357C40093F7072099E3284C012C8357A5
:1045D000C400A18B99C31C48BDEFA2852685152A6E
:1045E0003DC9FD547C50858B81EB8357C40093F704
:1045F000072099E3284CE522F24062444249B2493F
:10460000224A2685D244056182801CC4050963C9FB
:1046100007021C401387170018C02380B7001C44F2
:1046200083450900FD17F5F11CC463D907022286F2
:10463000A94526858920FD57E305F5FAA9445DB70C
:10464000184C63C4E700E39645FD228626852520A5
:10465000E31735FD79B7FD59294AD1B71C401387B7
:10466000170018C029472380E700C9BFAA8503A502
:10467000C1836FF0DFF2011122CC26CA4AC806CEF0
:104680004EC62A89AE84328409C51C5199E3EF00D5
:10469000D04E1C4C1CC48357C400A18B99C31C482A
:1046A00091EFA2854A85B52011C9FD54F2406244BC
:1046B0004249B2492685D244056182801C4018488F
:1046C00093F9F40F93F4F40F3385E7405C486347A4
:1046D000F500A2854A85EF00F03061F91C44FD1712
:1046E0001CC41C401387170018C02380370158488A
:1046F000930715006309F7008357C400858BDDD746
:10470000A947E395F4FAA2854A85EF00B02D59DD5B
:1047100069BF411122C426C206C6AA8403A5C1836B
:104720002E8409C51C5199E3EF0030458317C4005E
:1047300013F7870021EB13F7070109EB254798C012
:1047400093E707042316F4007D55A5A8918B8DC728
:104750004C5889C9930744046384F5002685492091
:10476000232A04028357C4002322040093F7B7FDD1
:104770002316F4001C481CC08357C40093E787002D
:104780002316F4001C4889EF8317C40013F7072091
:1047900001C793F7070889C7A2852685EF00104D4A
:1047A0008317C40013F7170015C3584823240400C7
:1047B0003307E04018CC1848014501E713F7070814
:1047C00041F3B240224492444101828013F7270012
:1047D000814611E3544814C4F9BF828082808280EC
:1047E000D1CD83A7C5FF011122CC06CE1384C5FF0E
:1047F00063D307003E942AC601241387C1901C434B
:10480000324581EB2322040000C36244F24005617B
:10481000C5AA637DF4001040B306C4006396D700B8
:104820009443DC43B29614C05CC0F9BF3E87DC43BE
:1048300099C3E37DF4FE14433306D700631F86005B
:104840001040B29614C33306D700E390C7FC9043E0
:10485000DC43B29614C35CC34DBF6375C400B1475B
:104860001CC165B71040B306C4006396D7009443DB
:10487000DC43B29614C05CC040C341BF828041118A
:104880004AC0138981908327090022C426C206C624
:10489000AA842E8491E78145EF00D0602320A900EF
:1048A000A2852685EF0010607D59631A25017D548D
:1048B000B24022852244924402494101828013047D
:1048C00035007198E30685FEB305A4402685EF0008
:1048D000705DE31F25FDE1BF011126CA93843500F9
:1048E000F1984AC806CE22CC4EC652C4A104B147A4
:1048F0002A8963F6F406B14463E5B4064A85ED28D7
:104900009389C19083A709003E8425E8A6854A853E
:10491000EFF0FFF6FD572A84631EF50C03A409008F
:10492000A287CDEB71C0032A040081454A85229AF3
:10493000EF005057631AAA0A1C404A859D8CA68531
:10494000EFF0FFF3FD576301F50A1C40A6971CC06A
:1049500083A70900D84351E323A6019081A0E3DD9A
:1049600004F8B1472320F9000145F2406244D244E3
:104970004249B249224A056182801440858E63C84B
:1049800006042D47637DD70204C033079400639665
:10499000870223A0E9005C4014C35CC34A858D20D4
:1049A0001305B4009307440061993307F540E30E03
:1049B000F5FA3A94898F1CC04DBFD8C3E9BF58405F
:1049C0006395870023A0E900D1BFD8C3C1BFA287E8
:1049D000404025BF3E84DC43A9B73E87DC43E39ECD
:1049E00087FE232207005DBFB1472320F9004A85D7
:1049F00001289DBF04C15DB7138501906FF01FDED4
:104A0000138501906FF0BFDD1C46FD171CC663DAED
:104A10000700184E63C5E700A9476394F5006FF0DF
:104A20009FC51C422E851387170018C22380B7002C
:104A30008280011122CC26CA4AC84EC652C406CE74
:104A40002A89AE893284B304D6007D5A6314940057
:104A5000014511A8834504004E864A85EFF0DFFA30
:104A60000504E31545FFF2406244D2444249B2498D
:104A7000224A05618280357122CD26CB4AC94EC7B4
:104A800006CF52C556C35AC1DEDEE2DCE6DAAA8999
:104A9000AE843289368409C51C5199E3EF00F00DCC
:104AA000FC50858B89EB83D7C40093F7072081E7FF
:104AB000A84CEFF0BFD283D7C400A18B99C39C4808
:104AC000A1E3A6854E85EFF0DFC41DC9FC50858BA0
:104AD00099CF7D55FA406A44DA444A49BA492A4A8C
:104AE0009A4A0A4BF65B665CD65C0D61828083D77E
:104AF000C40093F70720F1FFA84CEFF05FCED1BFC1
:104B000093070002A304F1029307000302D22305D6
:104B1000F10222C6930B5002971A0000938A8A0171
:104B2000054C294B4A848347040099C3639D770948
:104B3000B30C2441630E2401E6864A86A6854E8581
:104B4000EFF03FEFFD576301F51A9257E6973ED21B
:104B500083470400638A0718FD571309140002C82D
:104B600002CE3ECA02CCA309010482D483450900C7
:104B700015465685EF00F024C2471304190031E5AD
:104B800013F7070109C713070002A309E10413F78C
:104B9000870009C71307B002A309E104834609008F
:104BA0001307A002638BE602F2474A84814625463A
:104BB0000347040093051400130707FD6375E60619
:104BC0008DC63ECE1DA00504B9BF33055541331532
:104BD000AC00C98F3EC8228951BF324793064700B7
:104BE000184336C6634A07023ACE034704009307C8
:104BF000E002631EF704034714009307A002631A40
:104C0000F702B2470904138747009C433AC663D3AF
:104C10000700FD573ECA25A83307E04093E7270069
:104C20003ACE3EC8D9B7B38767032E848546BA9774
:104C300041B7050402CA814681472546034704005F
:104C400093051400130707FD6376E606E1F6834536
:104C500004000D4617150000130545EEEF00701611
:104C600011CD97170000938767ED1D8DC24713077D
:104C700000043317A700D98F05043EC883450400FC
:104C80001946171500001305A5EB1309140023049A
:104C9000B102EF00101325CD9307000095E74247BE
:104CA000B2471377071009CF91073EC69257D297A4
:104CB0003ED28DBDB38767032E848546BA97BDBFAC
:104CC0009D07E19BA107D5B7780097060000938662
:104CD00086D626860C084E8597000000E700000067
:104CE000FD572A8AE314F5FCFC50858B89EB83D7AA
:104CF000C40093F7072081E7A84CEFF05FAE83D79D
:104D0000C40093F70704E39607DC1255E1B378007B
:104D100097060000938626D226860C084E85112A17
:104D2000C1B7797156CA9C49BA8A984522D44AD0EB
:104D30004ECE52CC06D626D25AC85EC6AA892E843A
:104D40003289368A63D3E700BA872320F900034704
:104D5000340401C785072320F9001C4093F707029C
:104D600091C78327090089072320F9000440998807
:104D700091E8130B9401FD5B5C4403270900998FB4
:104D800063CCF40483473404B336F0001C4093F73B
:104D90000702A5EB13063404D2854E85829AFD578F
:104DA0006303F5041C4011478144998B6399E70024
:104DB0004444832709009D8C63D3040081441C4430
:104DC00018486354F700998FBE94014969047D5BCC
:104DD00063982405014509A885465A86D2854E85E3
:104DE000829A631E75017D55B25022549254025925
:104DF000F249624AD24A424BB24B456182808504F5
:104E0000A5BF3307D40013060003A301C70403475B
:104E1000540493871600A2978906A381E7049DBFD7
:104E200085462286D2854E85829AE30E65FB05096A
:104E300045B7797122D44AD04ECE52CC06D626D26E
:104E400056CA5AC803C88501930780072A892E8449
:104E5000B289368A63E207039307200693863504F6
:104E600063E10703630B081C930780051716000016
:104E7000130686CD6308F814930424042301040563
:104E800015A89307D8F993F7F70F5546E366F6FE92
:104E900017160000130686068A07B2979C43B2973E
:104EA00082871C4393842504938647009C4314C344
:104EB0002381F50485475DA290411C4313750608C4
:104EC0009385470039C19C430CC3584063DD0712EA
:104ED0009305D002A301B40418C463500704B307B8
:104EE000F04017160000130626C62948B68433F78B
:104EF0000703FD143297034707002380E4003E8731
:104F0000B3D70703E37507FFB1A89C4313750604E5
:104F10000CC345DDC207C1874DBF6D9A10C0C1B734
:104F20008C41104313F505081C42110611E593F559
:104F3000050499C1C207C18310C31307F0061716F1
:104F40000000130666C0631EE80A2148A30104049A
:104F5000584018C4E34C07F80C40ED990CC0D9F741
:104F6000B68449F7A147631EF8001C40858B91CB9E
:104F700058401C4863C7E70093070003A38FF4FE63
:104F8000FD14858E14C85287CE867000A2854A858E
:104F9000EFF03FD9FD5A6317550D7D55B25022549D
:104FA00092540259F249624AD24A424B4561828088
:104FB0009C4193E707029CC1130880071716000065
:104FC0001306C6B9A30204050C40084313F80508EC
:104FD0001C4111056318080013F805046304080058
:104FE000C207C18308C313F7150001C793E5050283
:104FF0000CC099C3414899BF18401377F7FD18C0FA
:10500000D5BF2948A1B7171600001306E6B32948F3
:1050100081B790411C43CC4913780608138547009B
:105020006306080008C39C438CC301A808C3137619
:1050300006049C4375DA2390B70023280400B68445
:1050400099B71C43D04181459386470014C38443DC
:105050002685852B19C1058D48C05C401CC8A3015D
:10506000040415B714482686CE854A85029AE306BD
:1050700055F31C40898B8DE7B2474844E350F5F265
:105080003E8529BF85465686CE854A85029AE30627
:1050900065F185045C443247998FE3C5F4FEE9BFAE
:1050A0008144930A94017D5BF5B78397C500011194
:1050B00022CC26CA06CE4AC84EC613F78700AA8459
:1050C0002E8471E7D8416345E000B8416359E00898
:1050D000585451C7B18303A90400858B23A0040051
:1050E0000C50A1CF70488357C400918B99C75C4086
:1050F0001D8E5C5899C33C401D8E5C540C508146FB
:1051000026858297FD57630EF5041C480567232208
:1051100004001CC08357C400F98F91C368C84C5861
:1051200023A024018DCD930744046385F5002685D3
:10513000EFF00FEB232A04021DA0014685462685C9
:105140000297FD572A86E310F5FA9C40C9DF7547A0
:105150006385E70059476395E70623A024010145CD
:10516000BDA098408317C40001CFF5466305D70062
:10517000D9466319D7041C48232204001CC045B734
:105180001848B1832322040018C0858B79B783A9FE
:105190000501E38609FC03A905008D8B23A03501D9
:1051A00033093941014791E3D84918C4E35920FB39
:1051B0001C540C50CA864E86268582976340A002F6
:1051C0008317C40093E707042316F4007D55F240CB
:1051D0006244D2444249B24905618280AA993309A6
:1051E000A940E9B79C49411106C622C426C281EBF9
:1051F0008144B24022442685924441018280AA849F
:105200002E8401C51C5191E38D2A8317C400EDD370
:105210007850058B19E793F7072081E7284CEFF0CA
:10522000EFDB2685A285EFF05FE87C50AA84858BB2
:10523000E9F38357C40093F70720C5FF284CEFF02C
:105240000FDA45BF411122C406C62A842316B500D1
:105250002317C50023200500232205002324050071
:105260002322050623280500232A0500232C0500F8
:10527000214681451305C505EFA05FF297070000A1
:105280009387C7285CD0970700009387272B1CD4EF
:10529000970700009387672F5CD4970700009387D8
:1052A00027321CD800D093870151630AF4009387FA
:1052B00081576306F4009387015E6319F4001305B8
:1052C00084052244B24041016FF02FD1B240224404
:1052D0004101828017B6FF1F1306C6E5970500003F
:1052E000938585F017B5FF1F130505E07DA84C4198
:1052F000411122C406C6938701512A846384F500B4
:10530000EFF05FEE0C44938781576385F5002285AB
:10531000EFF05FED4C449387015E6388F5002285D2
:105320002244B24041016FF0FFEBB2402244410100
:105330008280411197070000938707FA0146914543
:105340001385015106C623A8F190EFF0BFEF054683
:10535000A54513858157EFF0FFEEB2400946C945D8
:105360001385015E41016FF0FFED138541906FF0F1
:10537000EFC6138541906FF08FC6411122C406C657
:105380002A84EFF09FFE1C5091C72244B240410195
:105390006FF03FFE970700009387A7F51CD083A707
:1053A0000191E5F7EFF0FFF8CDB7797122D44AD03B
:1053B0004ECE52CC5AC85EC606D626D256CAAA8946
:1053C0002E8A32840149054BFD5B0444832A440044
:1053D000FD1A63D00A0200406DF8B2502254925474
:1053E000F249624AD24A424BB24B4A850259456160
:1053F000828083D7C400637BFB008397E4006387CC
:105400007701A6854E85029A3369A90093848406A4
:10541000C1B75971A2D42E848395E500A6D2CAD013
:1054200086D6B284368963D305028357C40093F7C6
:1054300007088DEB13070040B65026542320F900CF
:1054400098C0065996540145656182803000552AFE
:10545000E34D05FC3247BD67F98F7977BA9793B76B
:105460001700C9BF814713070004F9B783D7C500E8
:10547000797122D406D626D24AD04ECE898B2E847C
:1054800091CF930774041CC01CC885475CC8B250F8
:10549000225492540259F2494561828074003000CE
:1054A000AA84EFF01FF7A2492A892685CE85EFF05E
:1054B000AFC201ED8317C40013F7072069FBF19B0E
:1054C00093E727002316F4006DBF8357C40008C07C
:1054D00008C893E707082316F400B247232A3401CB
:1054E00089CF8315E4002685892201C98357C4002A
:1054F000F19B93E717002316F4008357C40033E5AC
:1055000027012316A40061B7411122C42E8483957C
:10551000E50006C69D22634905007C48AA977CC821
:10552000B2402244410182808357C4007D777D17B9
:10553000F98F2316F400EDB783D7C500011122CCF3
:1055400026CA4AC84EC606CE93F70710AA842E84F0
:105550003289B68991C78395E50089460146CD28F1
:105560008357C4007D777D17F98F8315E4002316D8
:10557000F4006244F240CE864A86B249424926850A
:10558000D2440561A1A2411122C42E848395E50075
:1055900006C67D287D578357C400631BE5007D77D1
:1055A0007D17F98F2316F400B24022444101828016
:1055B0000567D98F2316F40068C8FDB78395E50009
:1055C00031A893F5F50F2A966314C5000145828032
:1055D00083470500E38DB7FE0505FDB7411122C4E1
:1055E0002A842E8523AA019006C63922FD57631608
:1055F000F50083A7419191C31CC0B24022444101F0
:105600008280411122C42A842E85B28523AA01906A
:1056100006C6CD28FD576316F50083A7419191C3B7
:105620001CC0B240224441018280411122C42A841C
:105630002E8523AA019006C6E128FD576316F500C2
:1056400083A7419191C31CC0B24022444101828092
:10565000411122C42A842E85B285368623AA019060
:1056600006C66D28FD576316F50083A7419191C3C7
:105670001CC0B240224441018280411122C42A84CC
:105680002E85B285368623AA019006C67128FD575D
:105690006316F50083A7419191C31CC0B240224418
:1056A00041018280411122C42A842E8523AA0190BF
:1056B00006C6EFE00F97FD576316F50083A74191EB
:1056C00091C31CC0B240224441018280411122C4D6
:1056D0002A842E85B285368623AA019006C6EFE07D
:1056E000CF91FD576316F50083A7419191C31CC06C
:1056F000B2402244410182809307800523AAF190A1
:105700007D5582809307800523AAF1907D55828084
:105710009307800523AAF1900145828093078005B5
:1057200023AAF1907D5582809307800523AAF190EA
:105730007D5582801B5B316D1B5B39326D464B2D75
:10574000303120426F6F740D0A1B5B306D0000001A
:105750001B5B39366D4D310D0A1B5B306D0000004F
:105760001B5B39366D4D320D0A1B5B306D0000003E
:105770001B5B39366D4D330D0A1B5B306D0000002D
:105780001B5B39366D4D340D0A1B5B306D0000001C
:105790001B5B39366D4D34620D0A1B5B306D0000AA
:1057A0001B5B39366D4D350D0A1B5B306D000000FB
:1057B0001B5B39326D4D360D0A1B5B306D000000EE
:1057C0005B494E49545D2055534220636F6E6669B4
:1057D00067757265642C2077616974696E6720351E
:1057E00030306D732E2E2E0D000000005B494E49A7
:1057F000545D2053656E64696E672048454C4C4F7C
:10580000202325640D0A00005B494E49545D204861
:10581000616E647368616B6520636F6D706C657435
:105820006564210D000000005B494E49545D204332
:1058300048414C4C454E4745207265636569766525
:10584000642C206175746820696E2070726F6772B5
:105850006573732E2E2E0D005B494E49545D204E0C
:105860006F20726573706F6E73652C207265747231
:10587000792025642F25640D0A0000005B494E49FC
:10588000545D20416C6C20256420726574726965DA
:10589000732065786861757374656420E280942074
:1058A0005043206E6F742064657465637465640D85
:1058B0000A0000005B494E49545D204368616C6CEE
:1058C000656E67652C20737769746368696E6720FD
:1058D000746F20574149545F4348414C4C454E47F3
:1058E000450D000050423800424F4F540000000068
:1058F0005042390052535400E68C89E4B88B0000C2
:10590000E69DBEE5BC8000002028E5B7B2E7BC9369
:10591000E5AD98E588B020466C6173682900000009
:105920005B4556545D20425554544F4E5F45564595
:105930004E5420E794A8E688B7E6938DE4BD9CE436
:10594000BA8620257320E68C89E994AE2028257339
:105950002C202573292C207469636B3D256C7525DB
:10596000730D0A005B4556545D20E5B7B2E4B88A72
:10597000E4BCA020256420E69DA1E7BC93E5AD989A
:10598000E68C89E994AEE4BA8BE4BBB6E5B9B6E639
:10599000B885E7A9BAE69CACE59CB0E8AEB0E5BD39
:1059A000950D0A005B415554485D2048656172744D
:1059B000626561742074696D656F75740D00000017
:1059C0005B4D4F445D204745545F494E464F202D67
:1059D0003E20256420627974657320282564206642
:1059E00072616773290D0A005B434D445D20556E5B
:1059F0006B6E6F776E20636D643A2030782530329D
:105A0000580D0A005B415554485D204F4B0D000076
:105A10005B415554485D204641494C0D0000000053
:105A20005B4D4F445D206D6F64756C6520627269DB
:105A300064676520696E6974202855534152543259
:105A40002025642C204932433120307825303258CB
:105A5000290D0A005B4D4F445D206D616E696665DE
:105A6000737420256442206F6E6C696E6520287601
:105A700025642E25642E2564290D0A005B4D4F44B4
:105A80005D2054582071756575652066756C6C2CA9
:105A90002064726F7070656420256420627974657B
:105AA000730D0A005B4D4F445D20555341525432F3
:105AB0002062617564202D3E2025640D0A000000DF
:105AC0005B4D4F445D204932432061646472202D58
:105AD0003E203078253032580D0A00005B4D4F448F
