:040000006F4080438A
:100004000000000000000000B81D0000DE1D00001C
:100014000000000036440000000000000000000062
:1000240036440000364400000000000000000000D8
:1000340036440000000000003644000000000000C8
:1000440036440000364400003644000036440000C4
:1000540036440000364400003644000036440000B4
:1000640036440000364400003644000036440000A4
:100074003644000036440000364400003644000094
:100084003644000036440000364400003644000084
:100094001A200000364400003644000036440000B4
:1000A4003644000036440000364400003644000064
:1000B400BA1D0000364400003644000036440000F7
:1000C4003644000036440000364400003644000044
:1000D400364400002E070000D81C000036440000FF
:1000E4003644000036440000CA1F000036440000B5
:0C00F40036440000364400003644000092
:10010000397101436EC619A0397141536AC866CA74
:1001100062CC5ECE19A0397101535AD056D252D456
:100120004ED64AD826DA22DC06DE330161408282CE
:1001300041114AC026C222C406C68282B24D410184
:10014000024D924C224CB24B4101024B924A224A40
:10015000B2494101024992442244B24041018280A5
:1001600015C22A8385466367B500FD561307F6FF5F
:100170003A93BA9583830500230073007D16369366
:10018000B6956DFA82802A8309CA8383050023000D
:1001900073007D16050385056DFA82802A8311C6DA
:1001A0002300B3007D16050365FE8280EFF25FF841
:1001B00085451145EF30707785450545EF30D0789E
:1001C000014549BFEFF2DFF641113705004002C299
:1001D00002C423160100EF30D07C83A7018137478A
:1001E0000F0013070724B3D7E7024C003705004080
:1001F00023130100FD172312F10089679387F7701D
:100200003EC4EF40A002854537050040EF40A00CFA
:100210000546854537050040EF40800AB7E700E016
:1002200005472386E742056723A2E7108545370582
:100230000040EF402007410131BFEFF2DFED0545FF
:10024000EF30505AEF105050EF30807C716513053D
:100250000520EF3010051965130545A3EF40A06197
:100260001965130505A5EF40006183C7218C91C76F
:100270001965130505A6EF4000600D3FA13719650C
:10028000130585ABEF40205FEF00100A19651305D9
:1002900085ACEF40405E0145EF00E07E0129196525
:1002A000130585ADEF40205DEF10005A1965130569
:1002B00085AEEF40405CEF00B0731965130585AF64
:1002C000EF40605BEF0070591965130585B0EF4092
:1002D000805AEF00D028EF10F058EF20107BEF107D
:1002E000705F1965130585B11969EF40C05813098E
:1002F00089F09149994AEF001073EF00407DEF00BB
:100300007043EF00F017EF00903583A7C18483A4FA
:10031000418663EAFA068A07CA979C43828703A745
:10032000018E95476311F70623A4918419658547CB
:1003300023A6F184130585B2EF404063A9A083A6EC
:10034000018E1547639EE60205472382E18483A759
:10035000818413071003B387F4406376F70283C5E3
:1003600051841965130545B58505EF40C0500D450D
:10037000EF006071D92123A4918423A6318521A0A7
:1003800083C74184E9F7EF10405E31212DD5EF009E
:10039000F06C192985B7EF00B06819C91965130504
:1003A00005B7EF40A05C0545EF00E06D954795A0CF
:1003B000EF00E07609C51965130505B9B5BF83A738
:1003C000818413073006B387F440E37EF7FA83C5D0
:1003D00051849387150093F7F70FA382F18409479F
:1003E000636FF700890519650D4693F5F50F130541
:1003F00005BCEF404048912123A4918469B7196559
:100400008D45130545BEEF4000470945EF00A06745
:10041000994723A6F18485BFEF0090602DF5F5B7CD
:10042000EF00106049F1EF00806F19C519651305E1
:10043000C5C1EF40A05381B783A781841307B012D1
:10044000B387F440E371F7F47DB7EFF2DFCC83C7F5
:10045000318C4111AA842E868DC7B767004083A7CF
:10046000C7C01307000293F70703638AE70003A7D7
:10047000418583A74186998F25476374F706A38139
:10048000018C03A7018E954701456317F70283C7C7
:10049000318C9DE3A68513053008EF304051854728
:1004A000A381F18C03A741860D459305000323AA80
:1004B000E184EF30A0220545410141B9294532C60A
:1004C000EF3060579387C9C09C43324693F70703C8
:1004D000E38747FB83C7318CCDD77D19E31009FE35
:1004E0004DB71309900CB7690040130A0002DDB73D
:1004F0002A86014701459377F70F63E3B7008280AF
:10050000B307E60083C707003D8DA1471318850197
:10051000931615001358884113F5F60F635608001B
:1005200093C6160313F5F60FFD1793F7F70FF9FFB0
:100530000507D1B7EFF2DFBFAA84EF30A04C2A89BC
:100540009307800873B007800F10000083A7C1894C
:1005500019476362F71219678A07130747F2BA97B8
:100560009C4382879307E007639DF400854723AE91
:10057000F188238C0188A38B0188238B0188A38AAF
:1005800001884A85EF306048F1B6A38B918889478E
:1005900023AEF188238091AA0547238CE188D5B743
:1005A000238B918803C781899307170093F7F70F6F
:1005B000238CF188938701AABA97238097008D47EF
:1005C00023AEF18803C67189854663F0C60283C7EE
:1005D0007189F91793F7F70FA38AF18883C75189B7
:1005E000CDF3954723AEF18869BFA38A0188FDB793
:1005F00083C681899387160093F7F70F238CF188C0
:10060000938701AAB6972380970003C7818983C780
:1006100051898907E367F7F6E9B783C571891385BF
:1006200001AAF9356399A40499476DBF9307F007B0
:100630006393F40483C761809DCF83C661899387E8
:10064000C19993F6F60FA380D71083C671891387DB
:10065000C19993F6F60F2380D71003C651891376FC
:10066000F60F2381C71083C7518989EB8547A30102
:10067000F7102383018023AE018821B783C75189F6
:100680008147138601AA83C55189E3F1B7FE93859B
:100690002700B29583C505003308F700850793F559
:1006A000F50F2300B80093F7F70FF1BFEFF25FA843
:1006B000411193070040371501402312F1004C000F
:1006C0009147130505803EC6EF30605E3745014017
:1006D0008357C58013050580054693E74700231619
:1006E000F5008357C5009305505293E70701231681
:1006F000F500EF30704CB7E700E0A38A07423707F8
:10070000200023A2E710B7470140138507808545E5
:10071000EF30104923AE018805472383E18093879A
:10072000C199A381071041016FF0DFA221B55D716E
:1007300022DE374401402ADC2EDA130504809305BB
:10074000505286C696C49AC29EC032D836D63AD483
:100750003ED242D046CE72CC76CA7AC87EC6EF3040
:10076000304911C5035544801375F50FE1337254B8
:10077000B640A642164386436255D2554256B256FB
:10078000225792570258F248624ED24E424FB24F11
:100790006161730020309387C19983C73710138537
:1007A000C19991E3014582809387C199A381071084
:1007B00005472383E1808280EFF29F976D712E873A
:1007C000328411C2A5C19307E0072306F100930705
:1007D000240093F5F70FA306B1002307A10081477A
:1007E00093F6F70F9384360093F4F40F13860411F5
:1007F000B304260063EB86021305D100D5399307B5
:10080000440093F7F70F9387071193055400238E45
:10081000A4EE8A971307F00793F5F50F6800238E6F
:10082000E7EE253151616FF0FF92B306F70083C602
:1008300006008507238ED4EE65B7EFF27F8F411156
:100840009307E0272314F100894589471305910098
:100850002305F1007139A305A1009307F007954521
:1008600028002306F100D53641016FF0BF8EEFF26C
:100870003F8C6D71AA862E87328419C20145A5C1AD
:100880009307E0072306F1009307240093F5F70F81
:10089000A306B1002307D100814793F6F70F938495
:1008A000360093F4F40F13860411B304260063EBAF
:1008B00086021305D1002D399307440093F7F70FF3
:1008C0009387071193055400238EA4EE8A9713078C
:1008D000F00793F5F50F6800238EE7EEBD36516102
:1008E0006FF05F87B306F70083C606008507238E87
:1008F000D4EE65B7EFF2DF8341119357060123155C
:10090000C10061822304A100A304B100A306C100B9
:100910002C001946130510052306F100893F4101FB
:100920006FF05F83EFF24FFE8547AA8A2E8AB28965
:100930006303F50499671966938587C51306C6C5D1
:1009400085476301FA049966938686C683C78187C3
:1009500095CF99679387C7B819654E87130585C8E2
:10096000EF30707183C4818795C44E86D2855685D9
:1009700051376FF0EFFC996719669385C7C413066A
:1009800006C57DBF9966938606C6C9B799679387E2
:1009900007C7D9B7370B002083270B1405478507F6
:1009A0006373F7003E8783C731852320EB14A54B83
:1009B00063FCFB001306C0069385019313854192E7
:1009C000EFF00FFAA389718503C73185B14693878C
:1009D0004192B306D7020507A389E184B69793062F
:1009E00050FA2380D70083260B1423814701A3806C
:1009F0005701A381070023A2370194C7EF30E01B02
:100A000037F50008EF3080219147138A4192630542
:100A1000F500EF30201CB1BF83C53185D5679387C2
:100A200067B4E205DD8D37F50008EF30E02283255D
:100A30000B1437F4000813054400930B0401130C46
:100A40004401EF306021314B610483C73185E3F20B
:100A5000F4FCB3896403850493F4F40FB30A3A01F8
:100A600083A50A0033857901EF30001F83A54A0072
:100A700033858901EF30401E83A58A0033858900C4
:100A8000EF30801DD9B7EFF2AFEAA38EA18403A7A0
:100A9000418623ACE18405E12A8485653715014050
:100AA000054693850580130505C0EF302031238E60
:100AB00081846FF02FEA85653715014001469385E3
:100AC0000580130505C0EF30602F0544CDB783C7FF
:100AD000D18509476387E7000D4729466385E7000D
:100AE00082801306200383A7418683A581858D8F8D
:100AF000E3E8C7FE83A7418685653715014023AC2F
:100B0000F18403C6C18593850580130505C013379D
:100B100016003336C000238EE1846F30202A03C5CF
:100B2000E185238F01848280EFF2EFDE411185455C
:100B30002145EF30805F85451145EF30005F8545E9
:100B40000545EF30805EB7060140DC42370700F113
:100B50007D17F98F37070002D98F37140140DCC2A7
:100B60000D49E147C1444C00130504C02312F100B4
:100B70004AC426C6EF30A013130504C00146A145A0
:100B8000EF30C0230546130504C0C145EF300023F4
:100B90008D674C00130504C02312F1004AC426C619
:100BA000EF30E010130504C005468965EF300021E1
:100BB0000146130504C08565EF304020856993899F
:100BC00009804C00130504C0231231014AC426C613
:100BD000EF30E00D0546CE85130504C0EF30001E52
:100BE000930700302312F1004C0093078004130593
:100BF00004C03EC6EF30A00B85474C0013050480AF
:100C00002312F1004AC426C6EF30600A0546854526
:100C100013050480EF30801A41016FF00FD3333693
:100C2000A00037150140A145130505C0238AC188DE
:100C30006F30C0183336A00037150140C145130589
:100C400005C0A382C1806F30601709671307077161
:100C5000BA876363A700AA87A507C207C183A54611
:100C600005476385D700294733D7E70283A7418625
:100C70000145BA9723A6F18805472384E1885DBF23
:100C800083C781889DC383A7418683A6C188958F2A
:100C900063CD070083C7618823840188014589E704
:100CA000B707002003C5471471B782803337A0000F
:100CB00013361500371501408965130505C02389D2
:100CC000E1886F30A00FEFF2AFC63715014089659C
:100CD000130505C0EF30E00C133515006FF08FC71A
:100CE0003336A000371501408565130505C0A3887C
:100CF000C1886F30A00CEFF2AFC337150140856596
:100D0000130505C0EF30E0097D15133515006FF0B0
:100D10006FC43337A00013361500371501408545E1
:100D2000130505802388E1886F30400903C5418998
:100D300083C751803335A00099C31365250083C74D
:100D4000218999C31365450083C7118999C3136528
:100D5000850083C7018999C3136505018280B7F7B0
:100D6000000803C6070013076004B70500206312DC
:100D7000E60E03C617001307B004631CE60C03C697
:100D8000270005476317E60C03C73700294693770A
:100D9000F70F6373E6008147A389F18437F70008F2
:100DA0000345470083475700034667000347770022
:100DB000A2074206D18F6207C98FD98F0547637397
:100DC000F7003E8703C8318523A0E514B7F7000874
:100DD00013874192C10701466317C80003C7818783
:100DE0002388E184828083C6070005061376F60F08
:100DF0002300D70083C61700B107A300D70083C61E
:100E000067FF2301D70083C677FFA301D70083C8FC
:100E100087FF83C697FF03C5A7FF83C5B7FFA20659
:100E20004205C98EB3E61601E205CD8E54C383C8D0
:100E3000C7FF83C6D7FF03C5E7FF83C5F7FFA20639
:100E40004205C98EB3E61601E205CD8E14C73107FF
:100E500061B78547A389018423A0F51441B7EFF258
:100E60008FAB03C7818701CF83C6018589EA83C61B
:100E7000318591C685462389D184A388018423883E
:100E8000E18483C7218581CB03A7018E9547630643
:100E9000F700238901846FF04FAB03C7118583C727
:100EA00031856375F702B1463307D70293874192C4
:100EB000BA97D04383C5270003C51700EFF09FA35F
:100EC00011C583C711858507A388F18403C91185DE
:100ED00083C73185E361F9FCA389018423890184F7
:100EE0002947CA8763732701A94793F9F70F37F496
:100EF0000008EF20904C0C4037F500084104A20593
:100F0000A181EF2070558144639B9900EF20904CA4
:100F10001965CA851305C5CCEF30F015ADBF0C407F
:100F20002285850493F505F0EF20105393F4F40F18
:100F30003104D9BFEFF22F9E3719014093050010FD
:100F4000130509C003A44186EF20B0659334150052
:100F500093050020130509C0EF20B06483C6718893
:100F600013351500638B960603A701888546330762
:100F7000E44063F4E600A383918803CA718883C6C2
:100F80006188638FA60403A7C18785463307E440C1
:100F900063F4E6002383A18803C9618883C751886D
:100FA00063030A0491E7228685450545EFF09F9784
:100FB0000545B53183C741886300090491E722865E
:100FC00085450945EFF01F960145EFF0BFC6A382A6
:100FD0004189238221896FF04F9723A0818871BFB7
:100FE00023AE818655BFF9D7054522868945EFF0A6
:100FF0007F9303C5318975BFF9DB09452286894591
:10100000EFF05F92B707002003C547147DBF29C5E5
:10101000B7F7FF1F1387877E14439387C77E23008C
:10102000D5001443A182A300D5001443C18223013B
:10103000D50018436183A301E50098432302E5002E
:1010400098432183A302E500984341832303E500ED
:101050009C43E183A303F5008280EFF26F8D411181
:101060005C00B7E400083E8537E400081387C4003D
:1010700083C6040085048507A38FD7FEE39AE4FEA8
:10108000B145EFF0EFC6034604001307B0049386A2
:1010900081866318E60003461400130750046305B5
:1010A000E60237D7EF011307B7DA23A4E186B74783
:1010B0006789938737521965DCC21305C5D0EF30B5
:1010C000F00A41016FF00F890346240013079005D1
:1010D000E319E6FC034634000547E314E6FC03C7C6
:1010E0000400E310E5FC37E70008938781861104CC
:1010F00031078346040005048507A38FD7FEE31A52
:10110000E4FE1965130585D35DBF6301050EEFF29B
:101110008F804111B74459012146AA852A849384BE
:10112000B454480026C0EFF00F86B1450A85EFF0B1
:101130002FBCFD57A306F1002317F1002A892306CF
:10114000A100EF20902737E50008EF20302D9147D0
:10115000AA896308F500EF20F027014541016FE0FF
:10116000DFFEA68537E50008EF20102FAA84E314E0
:1011700035FF924537EA000813054A00EF20D02DCD
:10118000AA89E31A95FCA24513058A00EF20D02C0A
:10119000AA84E31235FD936509F01305CA00EF2018
:1011A000B02B2A89EF201023E31999FA37E70008BA
:1011B0008A87930607010346070083C50700E39E5D
:1011C000C5F805078507E318D7FE81471387818691
:1011D000A1463306F400834506003386E700850701
:1011E0002300B600E397D7FE05458DBF01458280F9
:1011F000238C018603A7418623A0E186828005C156
:10120000814713870187A1463306F5008345060011
:101210003386E70085072300B600E397D7FE828078
:1012200003C58187828083C7818785CB83A601869A
:1012300083A74186958F9306401F63F0F602EFE285
:101240003FEF0945238C0186EFF0FF8319651305F5
:1012500045D5EF30A0716FE0FFEF8280630E054649
:10126000EFE27FEB03C78187034415106D71AA87F6
:1012700015EB85466309D40CC1466304D422C546E8
:101280006300D424C9466302D432130760046307A1
:10129000E432014681451305200FEFF0EFD1516193
:1012A0006FE0BFEA13076004636387061307500209
:1012B0006369870205476308E408130704FF13778F
:1012C000F70FD14663FEE602014681451305300F54
:1012D000EFF08FCE1965A2851305C5DBEF30A0595D
:1012E0007DBF1307A4FD1377F70F93060002E3ED0C
:1012F000E6FC99660A07938606F436971843028738
:1013000099660A07938646FC3697184302871307A7
:101310002006630DE434130740066305E4369307A3
:101320000006E313F4FA680023160100EF00F00D45
:10133000AA8909C58357C1006395073201468145D3
:101340001305100699BFB7572D30938767B43ECA6F
:101350008967938717133ECC03A74186214623A0B4
:10136000E1864C08094515BF0347251011CB0345FD
:1013700005003335A000A389A188EFF05F8A05B787
:10138000014681451305000F09BF83C74189054602
:101390004C08230AF1001305200201B7034725106A
:1013A00065D303450500B70700203335A00023822D
:1013B000A71423840188EFF0FF87D5B583C7518038
:1013C00005464C08230AF10013055002F9B583467F
:1013D00025100547E376D7FA83C7170003450500B4
:1013E000A2075D8DEFF07F865DBD0347251049DBC9
:1013F000034505003335A000EFF05F8B4DB5EFF0EE
:101400009F8C230AA10005464C081305200371B5E3
:101410000347251035D7034505003335A000EFF00D
:101420003F8CB5BDEFF03F8D230AA10005464C0867
:10143000130550039DB50347251039D30345050017
:101440003335A000EFF0FF8C99BD83C701890546B5
:101450004C08230AF1001305800381B5B707030088
:10146000938707103ECA11464C081305100435B582
:101470004808EFF0DFB921464C081305300431BDB0
:1014800083C74189230AF10083C75180A30AF10071
:10149000EFF0DF89230BA1000D464C081305500423
:1014A000EDBB8546238FD18483C627101D47E37982
:1014B000D7EC3E85EFF0BFD4014681454145F1BBF5
:1014C00083C627101D47E37DD7EA0147938501872F
:1014D00013868186214554083388E600B308C70087
:1014E000B306B70083C6060083C808000507B3C665
:1014F00016012300D800E310A7FE54089965680878
:101500003687938585010346070005072E96034617
:101510000600A30FC7FEE318A7FE1307B10103C51A
:1015200006008506135675000605498E03C506009C
:10153000298E2380C600E394E6FE74000D473685AD
:101540002D4813767700130606110A96034646F0D7
:1015500005071377F70F2E96034606008506A38F1F
:10156000C6FEE31007FF0147A1453306E500B38639
:10157000E7000346060083C606006311D61405077C
:10158000E315B7FE8547238CF18603A74186054501
:1015900023A0E186EFF02FCF4D4501468145EFF0C6
:1015A000AFA11965130585DE89A05145230AE10025
:1015B00005464C08DDB105474D45CDBF83C6271014
:1015C0001D47E37FD7DA3E85EFF03FB415C10145F3
:1015D000238C0186EFF02FCB130570040146814563
:1015E000EFF08F9D1965130505D7EF30203845B909
:1015F0001305000F01468145EFF00F9C1965130597
:1016000005D8E5B7858D1394050141808147637541
:101610008A0085471304A00FB3859900228613051D
:101620006101230A2101A30AF100EFE0DFB51306EF
:101630002400A2941376F60F4C0813051006C2047A
:101640000509EFF06F97C1801379F90F8355C10039
:10165000E3EAB4FA19654A86130545D9EF30A021AB
:101660003DB981440149130AA00FCDB78345251028
:101670001307B00F9387F5FF93F7F70FE362F7D0E7
:10168000012B31B9834625101547E37BD7CE83461E
:1016900015000347050003445500A206D98E0347F1
:1016A00025000345350083C547004207558F620575
:1016B000598DB52BE30504BEFD23D5B60145238C1A
:1016C0000186EFF04FBC514501468145EFF0CF8ECA
:1016D0001965130585DD11BF8280EFE2DFA31D646C
:1016E000B7540040B70900102A8913041453938497
:1016F0000440054A938909407D1401CCCA8526859A
:10170000EF209009630A4501CE852685EF20700AF7
:1017100065D501456FE07FA30545EDBF6304061263
:10172000EFE27F9F375900402A8AAE8913050940AE
:101730008545B28437040300EF20007D13051400B3
:10174000693F4DC583C5C180130509400146EF209F
:101750005002370B070013052B08413741C9130509
:101760000940D285EF20E07F13054B08BD373DCD02
:10177000130509408545EF20207913051400B13F7A
:1017800035C583C5C180130509400546EF20607E3D
:1017900013052400993739C9B75A00400149138B02
:1017A000F4FF138A0A4013040404631A2B018145D1
:1017B0005285EF20207985455285EF20C07622851D
:1017C000293F0DC55285EF20207AB38729010509ED
:1017D0002380A70093170901C183E3E897FC1385D1
:1017E0000A408545EF2000760545A1A0375400400A
:1017F000130504408545EF20E0741305044085453A
:10180000EF206072130504408545EF2080771305B3
:1018100004408145EF20E0761305044085459D6432
:10182000EF20C06C9384145313040440FD1481E42E
:1018300001456FE09F91B70502002285EF20607798
:1018400075F5FDB705458280EFE2FF8C797185451E
:101850003545EF20900D854537052200EF20D00E4D
:10186000B71401401144E1478D494C0013850480B1
:10187000231281003EC64EC4EF206043A1474C00B6
:1018800013850480374900402312F10022C6EF205F
:101890000042716413040420B7070C000C08130500
:1018A00009403ECC22C802CA231E0100EF2090232B
:1018B000130509408545EF20B02E05461305094064
:1018C00093055052EF20502FB7E700E00547238BD8
:1018D000E7423707400023A2E7109307000C2312CA
:1018E000F1004C00F147138504C03EC64EC4EF2002
:1018F000003CE1679387076A3ED0B707FFBF3ED23F
:10190000B7070004B7540040938707033ED40C1078
:101910009167138504402316F102EF20C04B138515
:1019200004408545EF20805C2398018A2397018A33
:101930002393018A2392018A2386018A238F018AB5
:10194000A38E018A2390018C238C018A196523AA16
:10195000018A13060002A285130545DF23A48180B6
:10196000EF20707145616FE04FFEEFE2EFF983C742
:10197000818B03A6418605474111638FE7028946A3
:10198000638BD70AA1E783A7418B9305700CB3073C
:10199000F64063F6F50023AAC18A238CE18AEFF0B2
:1019A0003F88631005122398018A2397018A2386B2
:1019B000018A41016FE0CFF841468A850145EFF089
:1019C000FFD501E9238F018AA38E018A238C018A26
:1019D000F9B70347010093076004E315F7FE0347D7
:1019E00011009307B004E31FF7FC8347810003470E
:1019F00071009306F03FA207D98F1387F7FF4207C4
:101A00004183E3E1E6FC83463100238ED18A83469D
:101A10004100A38DD18A83465100238DD18A83460C
:101A20006100A38CD18A2390F18C2399018A894784
:101A3000238CF18AADB703D5218B83D7018C414725
:101A4000898F3E84C207C1836373F7004144420417
:101A50004180410522868A851375F50FEFF01FCC72
:101A600031C903DB218B138501FE22868A855A95B5
:101A7000EFE06FF15A94420483D5018C41802399A1
:101A8000818AE36EB4F00547238FE18A83C7D18B47
:101A9000238C018A81EF03C7B18B83C6918B03C668
:101AA000A18B1965130585E2EF20F05C8547A38EB5
:101AB000F18AF5B5238F018AA38E018A2390018CC8
:101AC00031B703A7018E9547E315F7EE03C6C18A28
:101AD00083A941860DC283A7818A0947B387F9404C
:101AE000637BF700938501DA13053006EFE03FD8FA
:101AF00019C12386018A138A01DE938B01DA03C799
:101B0000C18A81461308F00303D5018B83D5E18A8E
:101B10009317050113960501C18341826367B506DA
:101B2000918FC207C18381EBE38506E823A4218B53
:101B30002386E18ABDBD83D6E18A930717005E97AD
:101B4000D29603C6060083D6E18A93F7F70F2300E7
:101B5000C700850693F6F61F2397D18A85466373DF
:101B6000F80213060004938501DA1305300623A456
:101B7000318B2386F18AEFE09FCFE30C05E22386C9
:101B8000018AB5BF4E893E8741B79387072049BF79
:101B900025CDBDC9EFE2CFD90147138801BA83D75C
:101BA000618A03D6418A850793F7F71F631CF60203
:101BB00083A5018A850523A0B18A13F7F50385471C
:101BC0006317F7001965130505E5EF20D04A37457F
:101BD000004005469305707213050540EF20C07D57
:101BE0006FE04FD703D6618AB308E50083C80800C9
:101BF00042960507230016012393F18A93170701E4
:101C0000C183E3EEB7F8E1B7828083C7E18B81C778
:101C100083D7018C91E719C123100500014582800B
:101C200001E5138501FE82802310F500DDBFEFE2A0
:101C30002FD04111AE8421C903A781802A84630477
:101C4000A7043749004023A4A1802AC0B7070C008D
:101C50008A85130509403EC402C223160100EF2005
:101C60006068854513050940EF2080739305505245
:101C7000130509400546EF2020741965A285130558
:101C800085E7EF20503F89CC03C7C180630A9700E6
:101C90001965A685130545E923869180EF20B03D9F
:101CA00041016FE02FCB2398018A2397018A239368
:101CB000018A2392018A2386018A238F018AA38EB7
:101CC000018A2390018C1965238C018A130505EB89
:101CD00023AA018A6F2090495D7122DE37440040BB
:101CE0002ADC2EDA130504409305505286C696C4AA
:101CF0009AC29EC032D836D63AD43ED242D046CED0
:101D000072CC76CA7AC87EC6EF20806E0DC9835623
:101D1000444083D7018B03D7E18A8507C20693F736
:101D2000F71FC182630DF70083D5018B138701DE96
:101D300093F6F60F2E972300D7002398F18A3744A5
:101D400000409305707213050440EF20606A0DC9CE
:101D500083D6618A83D7418A6388F60483D6418A11
:101D6000938701BAB69783C7070093F7F70F23123B
:101D7000F44083D7418A850793F7F71F2392F18AAE
:101D80007254B640A642164386436255D255425617
:101D9000B256225792570258F248624ED24E424FE4
:101DA000B24F6161730020300146930570721305D4
:101DB0000440EF206060E9B701A041113AC63EC47B
:101DC00083A74186850723A2F186B707004079578C
:101DD0002398E7003247A2474101730020304111A8
:101DE0003EC4B707EFBE3AC69387070837E700E05F
:101DF0003CC701A0B71702409843B706FFF0411156
:101E00001367170098C3D84337060200758FD8C3ED
:101E10009843B706F7FEFD16758F98C39843B7062B
:101E2000FCFFFD16758F98C3D843B70601FFFD165A
:101E3000758FD8C337079F0098C702C402C698435E
:101E4000C166558F98C3B716024005679C42F18F53
:101E50003EC6A24785073EC4B24781E7A247E39743
:101E6000E7FEB71702409C4337070200F98FC5C74A
:101E700085473EC6324785476317F70AB7170240C2
:101E8000D843B706C1FFFD16D8C3D84337060002B2
:101E9000D8C3D84313670740D8C3D843758FD8C376
:101EA000D843B7061100558FD8C39843B706000131
:101EB000558F98C385678507B71602409842718F82
:101EC00019E3FD17E5FFB71702409843B706000274
:101ED000758F1DC3D843B71602402146719BD8C3E6
:101EE000D84313672700D8C385678507D842318B4D
:101EF0006304C700FD17FDFBB7170240D843A14696
:101F0000318B631CD700B777DC02938707C023A807
:101F1000F1804101828002C6B1BF9843B70600FF3D
:101F2000FD16758F98C3B7170240D843719BD8C36D
:101F3000D843D8C3B7177A009387072023A8F18026
:101F400005472381E18CF1B7371702405C43A14676
:101F5000B18B6397D7065C435843C166C983BD8B79
:101F6000758F8907C5466393D700C94701EF374787
:101F7000024003270780418B09CF37177A001307E8
:101F8000072021A8371702405843B7060200758F73
:101F90006DD737173D0013070790B387E702371750
:101FA0000240544337070020130707009182BD8A7F
:101FB000369703470700B3D7E70023A8F180828054
:101FC000B7177A0093870720D9BF39712AD637050A
:101FD000040006DE16DC1ADA1ED82ED432D236D031
:101FE0003ACE3ECC42CA46C872C676C47AC27EC0D9
:101FF000EF10F03BF250E2525253C2533255A25509
:10200000125682567247E2475248C248324EA24E9A
:10201000124F824F216173002030397106DE16DCC9
:102020001ADA1ED82AD62ED432D236D03ACE3ECCA8
:1020300042CA46C872C676C47AC27EC06D2AF250C1
:10204000E2525253C2533255A2551256825672472B
:10205000E2475248C248324EA24E124F824F21618F
:1020600073002030EFE2CF8C0111680002C602C875
:1020700002CA02CC02CEEF10907F3247B7479508D4
:102080009387074009456300F702B7E7B8059387D0
:10209000078005456309F700B777DC02938707C01F
:1020A0006315F7000145EF10F07A8545370580008C
:1020B000EF20800905616FE0EF890D4723A0E18ED5
:1020C000828003C7A14009C7154723A0E18E828003
:1020D0000547E5BFEFE2CF85011137050400EF109A
:1020E000102DB707040005443EC80808C1473ECC80
:1020F00022CE02CAEF109025930740122800231425
:10210000F10022C623050100EF10306E9307A003F3
:1021100028002314F100EF10506D05616FE08F83EC
:10212000EFE20F81AA842E8411458545EF10F07FE0
:10213000B7670040938707C49843A9C4C166F516E2
:10214000758F98C3B717014093870780D843B71698
:10215000F0FFFD16758FD8C3D847F9769386F67FC2
:10216000758FD8C7D843B7460400558FD8C3B74733
:1021700002409387078098431DCC1367270098C3BC
:102180006FD05FFD136727004207418398C3B717DD
:10219000014093870780D843B716F0FFFD16758F6F
:1021A000D8C3D847F9769386F67F758FD8C7D843BA
:1021B000B73603005DBF759BD9B78280EFD25FF75A
:1021C00039718A850945EF107001AA8401446319A9
:1021D00094008D650945EF10E05421616FD09FF7A1
:1021E000B307810003C507000504EFE02FD4C5B78E
:1021F000A381018C8280EFD2BFF3376600401306C3
:1022000006C51C42C1651385F5FFB7360020E98F6E
:102210009906B69786079C4303D7018D938505C021
:10222000ED8F0111638BE7001C42137707C0E98F24
:10223000B69786079443558F98C3B7660040938638
:1022400046C49C42C207C1832397F18C03D7E18C1B
:1022500083D7018F7D8F1377072001CF4167130745
:10226000F7DF98C203C7C18C05071377F70F2386E2
:10227000E18C03D7E18CF98FC207C18763D40700D3
:10228000EF10400383D7E18C03D7018FF98F93F7C9
:10229000074091CFC1679387F7BF3767004023227C
:1022A000F7C4B70700209387470ADC43829703D718
:1022B000E18C83D7018F89667D8F758F19C7396748
:1022C000B76600407D1723A2E6C403D7E18CF98FDF
:1022D0000567F98F89CBBD6737670040FD1723225B
:1022E000F7C40145512383D7E18C03D7018FF98FC0
:1022F000AD83858B89CF83A7018363880710712104
:10230000BD67376700409387F77F2322F7C483D7E1
:10231000E18C03D7018FF98F93F70710E5C7B767F3
:1023200000404167938647C41306F7EF90C2938637
:1023300087C494429395060163D2050C83A6818CD1
:10234000850623A4D18C83A5818C8D4663FAB60AB9
:10235000938607C49C42A18BC5E78C427D17F98DFB
:1023600023A2B18CB76500400145138E05C02143FF
:1023700013182500B308C80183A808001304080235
:1023800033082400B3F8E800232018FF0505E31103
:1023900065FE03A5418C938505C41365150023A232
:1023A000A18C03A5418C798D88C103A5418C7999B5
:1023B00023A2A18C83A6418C758F98C1B76500407C
:1023C000938645C49842137707407DDB41679305A8
:1023D000F7BF376500408CC2130505C09306F7FFB1
:1023E000214813972700930507028A9583A505FEC8
:1023F0002A978507F58D0CC3E39507FF23A4018C6D
:102400001D459D2105616FD0FFD40945B129CDBD82
:1024100083C7A14081C7154723A0E18E8280114761
:1024200023A0E18E8280828099E513352500134533
:102430001500060582800945828019E583A7818FF2
:102440001D472398E70082801385818282806FF088
:10245000DFFE03A7818F930610020945834707001B
:1024600093F7F707639BD702834617006383F6024F
:10247000930700026393F60289679387E744EFD2DC
:102480003FCB1CCF231907000145829701456FD030
:102490007FCC89679387A743DDB7828003A7818FAD
:1024A0009306100201458347070093F7F707639EE1
:1024B000D70083471700130720026388E70093873C
:1024C000D7FDB337F000139517008280EFD25FC6B7
:1024D00083A7818F238507005124B76700400566D5
:1024E00037670040938707C01306F6F0930507C2CD
:1024F0009443F18E94C39107E39CB7FE130747C43E
:102500009307F00F1CC3EF1020488145014523A01D
:10251000018EEFF0FFC05145EF1040558545054550
:10252000EFF01FC06FD01FC3EFD29FC019670347E2
:10253000371583A7818F0145A384E7002395070002
:10254000EF10C016930500200145EF102017C1457C
:102550000145EF10A018930500040145EF10602F0E
:10256000930500080145EF10C02C0145EF10E0264F
:10257000B707002083C5070D0145EF10A0350145C1
:10258000EF10801FB7670040938707C0984391669C
:10259000758F19CB984385669386F6F0758FB16673
:1025A00093860608558F98C3B7670040938707C086
:1025B00098431377070419CB984385669386F6F002
:1025C000758FA1669386060C558F98C3930500609E
:1025D0000545EF10A00E930500020545EF10001011
:1025E0009305000C0545EF10C02481450545EF100B
:1025F0006013B7670040938747C098431377070479
:1026000019CB984385669386F6F0758FA1669386FD
:10261000060C558F98C3B7670040938747C098430F
:102620009166758F19CB984385669386F6F0758F02
:10263000B16693860608558F98C381450945EF100A
:10264000E00781450945EF10600993050010094531
:10265000EF102020930500040945EF10A0278D6599
:102660000945EF10200CB7670040938787C0984357
:102670009166758F19CB984385669386F6F0758FB2
:10268000B16693860608558F98C3B7670040938755
:1026900087C098431377070419CB984385669386C0
:1026A000F6F0758FA1669386060C558F98C3814509
:1026B0000D45EF10A000930500020D45EF1000023C
:1026C000930500140D45EF10C01681450D45EF1020
:1026D0006005B76700409387C7C098431377070426
:1026E00019CB984385669386F6F0758FA16693861D
:1026F000060C558F98C3B76700409387C7C09843AF
:102700009166758F19CB984385669386F6F0758F21
:10271000B16693860608558F98C30145EF00102CCB
:10272000054723A0E18E6FD0FFA29385C1810DAD37
:102730009385418135A583A7818F83C53700914754
:1027400063E9B700B7070020938707068E05BE959B
:1027500001AD01458280828082808280B76700401F
:10276000138707C4854614C323200700938747C4F3
:1027700023A00700F177938707F02398F18EB167C4
:10278000938707F01CC301458280B767004083A789
:1027900007C4376700404168C207C18381461303FD
:1027A00007C07D189385013EA14813962600330586
:1027B000660008412E9685063375050108C2E3962A
:1027C00016FF93E60740130707C414C393E61740A8
:1027D000F99B14C31395070193E7074041811CC37C
:1027E000B7660040138746C41C4393F70740FDDBE0
:1027F000C1669387F6BF1CC3B767004001471383C8
:1028000007C01386F6FFA148931627003388D5002A
:10281000032808009A9605073378C80023A006010C
:10282000E31417FF938707C41367854098C3984341
:10283000420741831367470098C36FF01F88EFD2A8
:102840003F8F37640040130404C41C40C207C18397
:10285000ED9BC207C1831CC0EFF0BF86B1679387B1
:1028600007F01CC06FD01F8FEFD29F8C9D47138441
:10287000818D6303F50008C01C401547636EF700A7
:1028800019678A071307471ABA979C43828783A759
:10289000418D89E7EFF0BFFA994711A095471CC019
:1028A00001A8EFF0DFF991471CC0054723AAE18C8E
:1028B0006FD05F8A89472302F4008D47CDB78347E5
:1028C0004400FD1793F7F70F2302F40083474400F9
:1028D000E5F39147E9B737670040130707C41C4386
:1028E000C207C18393E707011CC395471CC0A947D2
:1028F0002302F40075BF83474400FD1793F7F70FD9
:102900002302F40083474400C5F7376700401307EC
:1029100007C41C43C207C183BD9BC207C1831CC33C
:1029200099471CC023AA018C61B7EFD27F8001E9CF
:1029300083A7818F05472398E7006FD0BF8183A7C6
:10294000C18E9C43829703A5818F2905FDB7EFD2E5
:102950002FFE01E983A7818F05472398E7006FD0F9
:102960006FFF83A7C18E9C47829703A5818F310596
:10297000FDB703A7818F51C5EFD28FFB2394018E42
:102980008347070093F7F70785EF0347970093778F
:10299000070281C789472384F18E1377070483C711
:1029A000818E09CF93E717002384F18E83A7C18E10
:1029B0009C4B82971385818E6FD0CFF9F99BEDB731
:1029C0008546E389D7FE89460145E397D7FE03474D
:1029D0005700B7660040938606C09377F7008A07D2
:1029E000B69762079C4361876359070093F7070313
:1029F0004147E39DE7FA854745BF0D67F98F0567B6
:102A0000CDBF89472318F70001458280EFD2AFF090
:102A100083A4818F03D4040103C7840051EC914740
:102A20006316F70403A7418E8547631CF702B76757
:102A3000004083A707C5373700200907C207C183B5
:102A4000BA97860723A0070093070003239FF18E00
:102A500023A2018E114983A7818F238427016FD080
:102A6000CFEEC147239FF18E1D49F5B711490144AF
:102A70009C4C42044180228582972A8A0145EF00BE
:102A8000705FAA8522865285EF00F03DA285014540
:102A9000EF00706283D704010D67818F2398F400E3
:102AA00083D724013E9493070003239FF18E23993B
:102AB00084002390E19045B783D74401114963F323
:102AC00087000949E3F687FA3E845DB783A7818FC3
:102AD00083C6518203C73700094563E3E60283C614
:102AE000270099EE83D6470081EEEFD26FE423856D
:102AF000E70083A7C18EDC43829701456FD08FE545
:102B00008280EFD2EFE283A7818F03A7418F41112B
:102B100083C53700184F03C55700029783A7818FDD
:102B200003C7A7001DCB2AC60DE903C7470015E759
:102B300083C727009DE383A7C18EDC47829783A7C5
:102B4000818F324503C75700A385E70003C73700CD
:102B50002386E70041016FD0EFDF0945E5BF83A77A
:102B6000818F03C707001377F70711EB03C797009F
:102B700081461377F7FDA384E700368582800946F6
:102B80008946E31CC7FE03D7270065FB03C7470040
:102B90006DF7EFD2EFD903C6570037670040130730
:102BA00007C01375F6F7131425003A94620618400F
:102BB00061864111635806041377070383C5418278
:102BC0008946637DB5021DCB83C7A70085CB1C401A
:102BD000635D060293F707034147639CE7001375A3
:102BE000F50F2AC6EF005042324593050003EF006F
:102BF000F02E83A7C18EDC4B82978146368541013A
:102C00006FD04FD58D66758F55BF0D67F98F0567EE
:102C1000E391E7FE15EDB707002083C5070DEF0030
:102C2000704B1C4071771307F7F8F98FC2070D67D7
:102C3000C183B98F617713070708D98FC207C18392
:102C40001CC08D661840758FE305D7FA1CC0DDBF28
:102C5000EF00F0381C4071771307F7F8F98FC207BF
:102C60000D67C183B98F617713070708D98FC20732
:102C7000C1831CC08D661840758FE30CD7F61CC04D
:102C8000DDBF03A6818F37670040130707C0834667
:102C9000560093F5F6F793972500BA97E206984306
:102CA000E18663D106061377070303C8418209450D
:102CB00063F6050983552600D1E149C30347A60001
:102CC00035CFEFD2EFC6984363D30604E5769386FB
:102CD000F6FB758F42074183E17613470701938620
:102CE0000608558F4207418398C34146944393F6A3
:102CF0000603639CC60083A7C18E9C4F8297014543
:102D00006FD04FC50D65698F4DB798C3C5B7F176C4
:102D10009386F6F8758F420785664183358FE17695
:102D200093860608558F4207418398C38D650566D3
:102D30009443ED8EE381C6FC98C3DDBF8280EFD261
:102D40002FBF03A7818F8347970093E70702A30450
:102D5000F70083A7C18EDC4F829701456FD08FBFEC
:102D600083A6818F03D7260119E583D74500998F64
:102D70002398F600828088413A958280EFD24FBB3B
:102D8000B707002083C5070D0145EF00B03483A7C6
:102D9000818F03C58700A1476318F500056723905D
:102DA000E1904147239FE18E5D15133515006FD0EB
:102DB0006FBAEFD2EFB703A9818F37660040930750
:102DC00006C5834689009C4325474111638AE60472
:102DD00041677D17B7360020F98F9106B6978607B1
:102DE0008443F98C8604B29483C704002300F9005D
:102DF00083C71400A300F90003D54400EF00F037A7
:102E00002311A90003D5840003A9818FEF00F036B8
:102E10002312A90003D7C40083A7818F2393E7005F
:102E200083A7818F054783D667002384E70083C487
:102E300017006397060E83C6070093F6F607D5EED4
:102E4000A5466396D400EFF07FC835E51DA89546EA
:102E5000639CD40403873700635C0700A14703A782
:102E6000818F2304F700EFF07FF141016FD08FAE27
:102E700003C7270065F703D747006DF383C7A70093
:102E8000F1FFB767004083A707C537370020090760
:102E9000C207C183BA97860723A007001307000360
:102EA000239FE18E994765BF8D466397D40283C601
:102EB0003700638DE60083A7418F2685DC4B829720
:102EC0000D47A547E30DE5F84DDD49BF83D7470022
:102ED000FDF3EFF0DFE695BFE39FE4FC03C73700A7
:102EE000E31B97FC03D7470079F783C7970093F755
:102EF0000702F1D3EFF0BFC689BF6398E600AD4784
:102F0000E39BF4FAEFF0FFBF89B78947E395F6FA40
:102F1000E382E4FE8D47E390F4FAEFF09FD635B7F5
:102F20009946639AD40203C6070083A6418F13769D
:102F3000F60771EA83C727006395E700DC4EA1E737
:102F4000D9A009476394E7009C52D5BF0D47639C05
:102F5000E70ADC52EDB7E9E883D62700CDE6D44393
:102F600041761306F60FF18E37060200639DC60800
:102F700083C6070093F6F60795EA83D74700C1E7B3
:102F80008D679387279703A7818F01451CCF23194E
:102F90000700829783A7818FC166FD1603D70701BB
:102FA000631ED70E25472384E70075BD6390E602B4
:102FB00003A7418F03C557008145184F029721E5AC
:102FC00083A7818F83C7A700C5FF35A80947639CE6
:102FD000E60203C75700B7660040938606C0137623
:102FE000F70093172600B6979C4393168701E18656
:102FF00063D9060293F7070383C641826375D6003F
:103000001377070771D303A7818F83A7418F0345E8
:1030100017009C4B82978D476317F50683A7818F16
:1030200051B78D66F58FC9BFA146639BD40083C796
:10303000070093F7F707E1FB8D679387A792A1B786
:1030400003A6418FA946E390D4FC83C6070093F6FC
:10305000F607E39AE6FA03C7A70055D703D7270078
:103060005DF3D843C1769386F60F758FC166E31C76
:10307000D7F8184E03C557008145029749F58D676B
:103080009387E79409B783A7818FC166FD1603D79D
:103090000701E309D7F089466303D50019E3214707
:1030A00019B78386070063D2060403D6670083A698
:1030B000418F32C6B24583C6C60263FAE500324785
:1030C0002398E700239AD700EFF05F9469BBE37B76
:1030D000C7FE6375D70023A2018EEDB73367D70211
:1030E00075F3054623A2C18EF1BF0D472384E70087
:1030F0000D672390E19085BBEFD2EF8103A4818F10
:10310000834784001387E7FF1377D70F71C71387AF
:10311000D7FF1377D70F55EB184C8357040105CF12
:1031200083544401B1C763F39700BE84C204C180D5
:103130002685029783570401AA890145858F2318A4
:10314000F40083572401A6972319F400A127AA8528
:1031500026864E852D2B8357040199CB0D6781451B
:1031600001452390E190812F13070003239FE18EF7
:10317000835704018356440103A7818F63EFD7006F
:103180008D472304F7008347870003A7818F23041B
:10319000F700EFF0BFBE6FC05FFB99C39547D5B78F
:1031A00099472304F700B767004083A707C5B736E0
:1031B00000208906C207C183B697860723A00700AF
:1031C00093060003239FD18E7DBF1D476396E700C2
:1031D00083A7418FDC478297A14745BF83C84182BF
:1031E00037660040856521680147130606C0938550
:1031F000F5F0130808086369170113650508B76738
:10320000004023A6A7C4828093162700B2969C4252
:10321000ED8FD98FB3E707019CC20507E9BFEFC265
:103220003FF183A7818F83C687001387E6FF13775B
:10323000D70F19EFEFF08FFD83A7818F83C787002A
:1032400003A7818F2304F700EFF05FB36FC09FF0F7
:1032500019476384E600A147E5B783C61700154701
:10326000639FE60003C707001377F70709EB03C561
:103270003700EFF0BFF683A7C18E9C53829783A7D8
:10328000418F9C478297C1BF82809387014023ACC6
:10329000F18E09472384E700B70700209387470A88
:1032A00023AAF18E9C43370700201307070823A6A3
:1032B000E18E8287EFC23FE64111B7090020370A4D
:1032C00000202317010093894904130A8A023767F3
:1032D0000040930747C49C4393960701C182C207ED
:1032E0002397D18CC18763D3071683D7E18C13054D
:1032F00007C0BD8B238EF18E639307301C410D6791
:10330000B166C207C1832390F19083D70190938661
:10331000F6F8A16593F70703239FF18E83D70190F9
:103320009385050837680040F98F2390F190184184
:10333000A5679387F7FB7D8F1C4113470702F58F25
:103340008966B58F931607015D8F4D8F18C1617720
:10335000C18213070708558F4207130500024183F6
:10336000930508C0944193F606036394A60E617713
:1033700013070708D98FC207376500408D65896636
:10338000C183130405C018406D8F6316D70C83D713
:10339000E18CC18BF9E71C40A5691387F9F0F98F1F
:1033A0001CC0EFF0DFE718401C40B1669386F6F8CA
:1033B000F58F83D6019005669389F9FBF18E3377FB
:1033C000370199C28566B58F83D601900966F18E63
:1033D00099C28966B58F83D6E18FC18A99C2134796
:1033E000070183D6E18F93F6060299C213470702BD
:1033F000216693160701130606085D8F518F376605
:1034000000402320E6C06177C18213070708558F6B
:103410004207376500404183130605C0144283D537
:10342000E18F93F60603639AD502617713070708C5
:10343000D98FC207376500408D65C183930605C0EB
:10344000984203D601906D8F631BE60041016FC067
:10345000DFCF98C131B71CC02DB718C275BF9CC251
:10346000F1BF1C40856A13870A80C207C1832317F6
:10347000F1008357E100F98FDDCF1C401387FAF884
:10348000F98F1CC0EFF0FF921840A5679387F7FBF8
:103490007D8F1C40B1669386F6F8F58F83D6019038
:1034A0000566F18E99C2B3C7570183D601900966AC
:1034B000F18E99C28966B58F83D6E18FC18A99C290
:1034C0001347070183D6E18F93F6060299C213478B
:1034D0000702216693160701130606085D8F518FB8
:1034E000376600402320E6C06177C18213070708D2
:1034F000558F4207376500404183130605C01442CB
:1035000083D5E18F93F606036395D50261771307A0
:103510000708D98FC207376500408D65C1839306C0
:1035200005C0984203D601906D8FE301C7F29CC29B
:10353000FDB718C2D9B78357E100C207C187E3D8E6
:1035400007D81C401387FAF8F98F1CC0EFF0DFBAD8
:103550001840A5679387F7FB7D8F1C40B166938663
:10356000F6F8F58F83D601900566F18E99C2B3C740
:10357000570183D601900966F18E99C28966B58F8D
:1035800083D6E18FC18A99C21347070183D6E18FA1
:1035900093F6060299C213470702216693160701A4
:1035A000130606085D8F518F376600402320E6C062
:1035B0006177C18213070708558F420737650040BE
:1035C0004183130605C0144283D5E18F93F60603A9
:1035D0006395D502617713070708D98FC20737654E
:1035E00000408D65C183930605C0984203D60190C3
:1035F0006D8FE30DC7E49CC2FDB718C2D9B713970E
:1036000027002A971443C206C1822317D10083568C
:10361000E100C206C18663DD0600FD1714438A0778
:103620000566D2971306F6F89C43F18E14C3829771
:103630008357E10093F70708E38B07C883C7C18F5F
:10364000B7660040938606C0139727003697FD178C
:1036500014438A07CE9725661306F6F09C43F18E35
:1036600014C38297ADB1B73700200506BE95058615
:10367000860511E282808347150003470500910506
:10368000A207D98F239EF5FE09057D16DDB7B73752
:1036900000200506BE950586860511E282809C41C4
:1036A00009057D16231FF5FE9105C5BF61994205E9
:1036B0004181B767004023A8A7C48280B767004054
:1036C000938707C00A053E951C4165771307F79855
:1036D000F98FDD8DC205C1810CC18280B7670040C2
:1036E000938707C00A053E951C4165771307F7FBD2
:1036F000F98FC20713F70501C18319C393C70701E7
:1037000013F7050219C393C7070261771307070868
:10371000D98FC207C1831CC1184113770703E31C6B
:10372000B7FE8280B7670040938707C00A053E95C1
:103730001C4171771307F7F8F98F0567C207B3F6D5
:10374000E500C18381C6B98FC207C1830967B3F69B
:10375000E50081C6B98FC207C183617713070708E7
:10376000D98FC207C1831CC18D661841758F631341
:10377000B70082801CC1D5BFB7670040938707C0E0
:103780000A053E951C4171771307F7F8F98FC207B8
:103790000D67C183B98F617713070708D98FC207F7
:1037A000C1831CC18D661841758F6313D700828059
:1037B0001CC1D5BFB7670040938707C00A053E9577
:1037C0001C4105671307F7E0F98F617713070708B6
:1037D000D98FC207C1831CC182806FF0BFFDB7675C
:1037E0000040938707C00A053E951C411167F98F79
:1037F00099CB1C4105671307F7F0F98F3167130761
:103800000708D98F1CC18280B7670040938707C023
:103810000A053E951C4193F7070499CB1C410567A7
:103820001307F7F0F98F21671307070CD98F1CC115
:103830008280B767004083A707C50E058581C20750
:10384000C1833E95B73700203E95060586050CC11D
:103850008280B767004083A707C50E058581C20730
:10386000C1833E95B737002091073E950605860532
:103870000CC18280B767004003A707C593173500C6
:1038800042074183BA9737370020BA97860703D596
:1038900007008280B767004003A707C5931735006C
:1038A00042074183BA97373700201107BA97860736
:1038B00003D507008280B767004083A707C50E05C0
:1038C000C207C1833E95B737002089073E9506059C
:1038D0000CC18280B767004003A707C59317350066
:1038E000420741833E97B737002099073E979307D9
:1038F000E003060763F3B70493D75500FD8981E51C
:10390000FD17C207C183AA07A166D58F1CC30DE5A9
:10391000B707002083C7070D1307E0036376F7029C
:1039200013D75700FD8B81E77D17420741832A0794
:10393000E1775D8F2398E18C828093D7150085898C
:1039400091C18507AA07D9B713D71700858B91C3F3
:1039500005072A07C5B7B767004003A707C5931730
:10396000350042074183BA97373700201907BA97C5
:10397000860788431375F53F828093178500218160
:103980005D8D420541818280B7670040138747C43F
:10399000232007007177130707F02398E18E316722
:1039A000938707C4130707F098C301458280EFC2CD
:1039B0002FF832849374F507268542042E894180BE
:1039C000EFF05FEBAA8522864A85EFF0DFC92685F6
:1039D000A285EFF05FEE01456FC0CFF7EFC24FF564
:1039E0009374F50726852E89EFF0FFF62A84268545
:1039F000EFF05FEAAA8522864A85EFF05FC922854B
:103A00006FC04FF5732500308280731005308280BF
:103A100083A7018137177A0013070720B3D7E7027E
:103A200093F7F70F2382F1901307803EB387E702E5
:103A30002391F1908280B7F700E0D8438146799BCB
:103A4000D8C303C741903306A70290CBD4CB984389
:103A50001367070198C398431367170298C3D843A5
:103A6000058B75DF9843799B98C38280B7F700E098
:103A7000D8438146799BD8C303D721903306A70248
:103A800090CBD4CB98431367070198C3984313672F
:103A9000170298C3D843058B75DF9843799B98C369
:103AA0008280EFC2EFE82A84116501118545110576
:103AB000AD2D930700202312F100371501408D47EB
:103AC0003EC44C00E147130505803EC6CD2222C806
:103AD00037440140B70708000C08130504803ECCAA
:103AE00002CA231E0100EF00E07F85451305048014
:103AF000EF00100B05616FC0EFE532858147B746D7
:103B0000014063C3A700828003D7068013770704B0
:103B100065DF3387F5000307070085072392E680FA
:103B2000CDB7AA8703A5418337170020130747E9BC
:103B3000AA9763EBE7003747002013070700636588
:103B4000F70023AAF18282807D55828058410C4182
:103B50005045B7070140938707403E9793C6F5FF4E
:103B600039C29043758E90C3D043F18ED4C31443B1
:103B7000CD8E14C3184190479346F7FF758E90C7BA
:103B8000D047F18ED4C7144541466399C600944787
:103B9000D98E94C7D447558FD8C78280B69794439F
:103BA000558F98C382801C43F58F1CC38280B70752
:103BB000014093870740C8CB8280B7076745372706
:103BC0000240938737125CC3B797EFCD9387B79ABC
:103BD0005CC38280372702401C4B93E707081CCB4D
:103BE0008280B7270240C847058911E5C847418947
:103BF000133515000D058280EFC28FD32A848544CA
:103C0000EFF03FFE6319950019E0154531A0EFF084
:103C10005FFD7D14C5BF75D86FC0CFD3EFC24FD144
:103C2000AA8437051300EFF03FFD91476314F502B6
:103C3000372402401C483705130093E727001CC8AF
:103C400044C81C4893E707041CC8EFF0FFFA1C485F
:103C5000F59B1CC86FC00FD0EFC2EFCB41112A8972
:103C60001565AE8402C69149EFF01FF9631E350356
:103C7000372402401C48156593E717001CC893972A
:103C80000401C1832310F900EFF01FF7631B350116
:103C900009094AC6B247C180156523909700EFF025
:103CA000BFF51C48F99B1CC841016FC00FCA9C4559
:103CB00013F7070113F8F70001C7D8413368E8008C
:103CC00037270240145B3707000F758F5DEB854681
:103CD000A382D190371701406317E50003D7050091
:103CE00035832390E50083D5050013F7F50F31C325
:103CF00018418146054E930E80023D4F930F80047C
:103D000021433316DE00B3F8C50063101603639237
:103D1000D70950C913962600B318CF0093C8F8FFEF
:103D200033F7E8003316C800518F8506E39B66FC25
:103D300018C11307F00F6375B70454410146054ECF
:103D4000930E8002130F800421431307860033175C
:103D5000EE00B3F8E500631117036390D70558C967
:103D6000931826003D47331717011347F7FFF98EC5
:103D7000B3181801B3E6D8000506E31866FC54C171
:103D8000828037170140E310E5F603C7519021DF29
:103D9000B1B7E391F7F910C9B5BFE393E7FD18C9CF
:103DA000C1B7B71701406316F50083C7519091C39F
:103DB000B5811C45FD8D3335B0008280B7170140B9
:103DC0006316F50083C7519091C3B58119C20CC920
:103DD00082804CC98280EFC2AFB501118354450087
:103DE0002A8468002E896124D24737470F001307C1
:103DF000072433D7E702C204C18093F404FCC20451
:103E0000B7869303C1809386F66F42074183D98CAE
:103E100063F4F6001307C0032312940083560400D2
:103E200061661306066AC206C182F99AC206C18299
:103E30002310D400832609006363D6068606B3D612
:103E4000D7021146B687C206C18263F3C600914706
:103E5000C207C1830507420741832310E402231EE2
:103E6000F40083570400035749008356A90093E7E1
:103E700017002310F40083570400558FC207C18335
:103E800093F757BFD98F2310F40003578900835746
:103E9000C900D98F2314F40005616FC0AFAB8355FF
:103EA000690031667D166399C5020D46B386C60268
:103EB000B3D7D702C207C1839396470199E293E72C
:103EC0001700A166D58F9306C0123307D702930659
:103ED000803E3347D702BDBF6546B386C602B3D71F
:103EE000D7029166C207C183D58FF9B78357050002
:103EF00091C593E717002310F5008280C207C183A4
:103F0000F99BC207C183C5BF8357050091C593E7DD
:103F100007102310F5008280C207C18393F7F7EFE3
:103F2000C207C183FDB78357050091C593E70720FA
:103F30002310F5008280C207C18393F7F7DFC20721
:103F4000C183FDB78357050091C593E70740231050
:103F5000F5008280C207C18393F7F7BFC207C18310
:103F6000FDB72318B5008280035505011375F50FC1
:103F7000828093F7E50F19C293E715002318F50027
:103F800082808357050091C52167D98F2310F500E2
:103F90008280C607C583DDBF835745010355850170
:103FA00042055D8D6D8D220521810D8D1335150026
:103FB0008280411102C402C693D7C5012AC63EC4FD
:103FC000A247A205A18199CBB247D1073EC6B2470D
:103FD000884341016D8D3335A0008280B247C18195
:103FE000E107EDB723A4A190828003A781908547C4
:103FF000834605006312F70283471500639DE702BD
:1040000083472500960793E707F837E700E093F723
:10401000F70F36972300F740054793D7560033171D
:10402000D700544191CE938707048A07B7E600E092
:10403000B69798C38280EDF3834725009607F1B7C2
:1040400093870706B7E600E08A07B69798C30F1074
:1040500000008280B7170240D843B70640FFFD1624
:10406000758FD8C3D8435A05598DC8C38280371776
:1040700002405C43A146B18B6394D70A5C4358432A
:10408000C166C983BD8B758F8907C5466393D70009
:10409000C94701EF3747024003270780418B09CF0B
:1040A00037177A001307072021A837170240584313
:1040B000B7060200758F6DD737173D0013070790BD
:1040C000B387E7021CC1371602405442370700206D
:1040D0001307470D9182BD8ABA9683C60600B3D7EF
:1040E000D7005CC15442A1829D8ABA9683C606005D
:1040F000B3D6D70014C55442AD829D8A3697034784
:10410000070093868183B3D7E7005CC558423983A3
:104110000D8B369703470700B3D7E7021CC982808F
:10412000B7177A009387072071BF99C537170240E8
:104130001C4FC98F1CCF8280B7170240984F134580
:10414000F5FF798D88CF828099C5371702405C4F83
:10415000C98F5CCF8280B7170240D84F1345F5FF57
:10416000798DC8CF828099C5371702405C47C98FC7
:104170005CC78280B7170240D8471345F5FF798D99
:10418000C8C7828099C5371702401C4BC98F1CCB0A
:104190008280B7170240984B1345F5FF798D88CB85
:1041A0008280EFB2FFF8B7370140938707C0631FE3
:1041B000F5000564854513050480EFF0DFFA8145BD
:1041C00013050480EFF03FFA6FB0DFF8B707004047
:1041D000631BF50085450545EFF0DFFA8145054590
:1041E000EFF05FFAD5B7938707406319F50085456F
:1041F0000945EFF03FF981450945DDB7B7170040A4
:10420000138707806319E50085451145EFF09FF797
:1042100081451145F1B7938707C0E317F5FA854546
:104220002145EFF03FF6814521455DBF83570500ED
:1042300037370140130707C0C207C1836300E50297
:1042400037070040630CE500130707406308E500EB
:1042500037170040130707806317E50003D72500D1
:1042600093F7F7F8D98F03D7650093F7F7CFC20715
:10427000C183D98F2310F50083D745002316F5029B
:1042800083D705002314F502B7370140938707C091
:104290006316F50083C785002318F5028547231AA6
:1042A000F50082808357050091C593E7170023101E
:1042B000F5008280C207C183F99BC207C183C5BFD5
:1042C0008357C50009C6CD8F2316F500828093C59C
:1042D000F5FFED8FD5BF93C5F5FFC205C18123184A
:1042E000B5008280EFB2DFE403570501F577FD17D3
:1042F0007D8F83D7650083D685000111D98F231860
:10430000F50083D745000357C5002A84D58F83D68F
:10431000A500AE84D58FFD769386369F758FD98F95
:104320002316F5008357450103D7C500C207C18393
:1043300093F7F7CFD98F231AF5006800EFF03FD33A
:10434000B7470140938707806316F404E247654549
:10435000B335F502904081460A063305F502A522E1
:10436000930640063357D5021306F063120793579E
:104370004700B387F602B307F540920793872703F8
:10438000637CF6004107420741832314E400056182
:104390006FB05FDCD24765BFB3D7D7025D8FE5B79B
:1043A0008357C50091C50967D98F2316F500828010
:1043B00079777D17F98FD5BF13F7F50F85471583EB
:1043C000B395B7006319F7009307C500984301CE72
:1043D0004D8F98C38280894693074501E318D7FE25
:1043E00093070501E5B793C5F5FFF98D8CC382806E
:1043F00093F6F50F054695822A87B317B6006393A7
:10440000C6028356C50033F5F60083570700C2077E
:10441000C18301C9A18105473317B700F98F33352F
:10442000F000828009466395C60083560501E1BF0E
:1044300083564501C9BF01A097C1FF1F93818150D9
:1044400017110020130101BC172500001305C5EC4E
:1044500097C5FF1F938505BB17C6FF1F1306C6D25E
:1044600063FAC5008322050023A0550011059105BC
:10447000E3EAC5FE1385418497D5FF1F9385C5A147
:104480006377B500232005001105E36DB5FEFD42FD
:10449000739002BC894273904280930280087390AB
:1044A000023097C2FFFF938222B693E232007390EC
:1044B0005230EFD03F9497C2FFFF938242D873905F
:1044C0001234730020303288AA882E87C5EE63F339
:1044D000C510C1676360F61AB7070001B337F6006D
:1044E000B307F040E19BE1073353F6009726000045
:1044F000938606CD9A9683C6060013030002B697EC
:10450000B306F340630BF3003397D500B357F500C0
:104510003318D6005D8FB318D500135608013355F4
:10452000C70293160801C18293D708013377C702E7
:10453000B385A6024207D98F63FAB700C297130763
:10454000F5FF63E4070163E1B7323A858D8F33D716
:10455000C702C20893D80801B3F7C702B386E602C0
:10456000C207B3E8F80063FBD800C2989307F7FFCF
:1045700063E50801791763E3D8003E874205598D4A
:104580008145828063F5D500814501458280C16700
:1045900063EAF618B7070001B3B7F600B307F040B7
:1045A000E19BE10733D8F60017270000130747C146
:1045B000429703470700930800023E973388E8407C
:1045C0006397E81863E4B6283335C5001345150032
:1045D0008145828055C6C1676372F626133706107F
:1045E000134717000E07B356E6009727000093877E
:1045F00027BDB69783C7070093060002BA97B38E0C
:10460000F640639FF608B387C540935606014206FD
:104610004182854533D5D70213D70801B3F7D702B6
:104620003303C502C207D98F63FA6700C297130725
:10463000F5FF63E4070163E667223A85B3876740C5
:1046400033D7D702C20893D80801B3F7D70233068D
:10465000C702C207B3E8F80063FBC800C29893071B
:10466000F7FF63E50801791763E3C8003E87420559
:10467000598D82809337061093C717008E07ADB50A
:104680008146972700009387A7B3B69783C7070093
:10469000014793060002BA97B38EF640E385F6F61B
:1046A0003318D60133D3F50093560801335ED30295
:1046B00013160801B395D5014182B357F500CD8F8C
:1046C00013D70701B318D5013373D302B305C6035B
:1046D000420333676700637BB70042971305FEFF11
:1046E000636D0717637BB716791E42970D8F33559D
:1046F000D702C207C1833377D7023303A60242072A
:10470000D98F63FB6700C2971307F5FF63E30715B3
:1047100063F167147915C29793150E01B38767404B
:10472000C98DCDBD93B7061093C717008E0733D838
:10473000F600172700001307A7A8429703470700B2
:10474000930800023E973388E840E38DE8E6335E45
:10475000E600B3960601336EDE00B3D8E500935E43
:104760000E01B3D7D80313130E01B39505011353EC
:1047700003013357E5004D8F9356070133160601A9
:10478000B3F8D803B305F302C208B3E6160163FB1E
:10479000B600F2969388F7FF63E3C60D63F1B60C9B
:1047A000F917F2968D8EB3D5D60342074183B3F63F
:1047B000D603B308B302C206558F637B1701729705
:1047C0009386F5FF6369C70963771709F91572972F
:1047D000C207C16ECD8F9386FEFFB3F5D70013D30A
:1047E0000701F18E4182338ED50233071741B3069C
:1047F000D30293580E01B385C502B695C69533030F
:10480000C30263F3D500769393D605019A9663634A
:10481000D7026305D7003E8581458280C166FD16BB
:1048200033F7D5004207337EDE003315050172975A
:10483000E373E5FE1385F7FF81458280B70700012A
:104840006377F60293560601414745B38145054516
:1048500082803A85D1B5B685A5BF2A8E41BDC6876F
:1048600091B77915C297D9BB7915C297C5B193563F
:10487000860161479DBB397132D436D63EDA2ED2DD
:104880003AD842DC46DE83A7C1838C4754102A867F
:104890003E8506CE36C6C521F240216182801C517C
:1048A000011122CC26CA4AC806CE4EC652C40045C3
:1048B000AA842E8999E3EF00505C7C50858B81EBB4
:1048C0008357C40093F7072099E3284C012C8357A2
:1048D000C400A18B99C31C48BDEFA2852685152A6B
:1048E0003DC9FD547C50858B81EB8357C40093F701
:1048F000072099E3284CE522F24062444249B2493C
:10490000224A2685D244056182801CC4050963C9F8
:1049100007021C401387170018C02380B7001C44EF
:1049200083450900FD17F5F11CC463D907022286EF
:10493000A94526858920FD57E305F5FAA9445DB709
:10494000184C63C4E700E39645FD228626852520A2
:10495000E31735FD79B7FD59294AD1B71C401387B4
:10496000170018C029472380E700C9BFAA8503A5FF
:10497000C1836FF0DFF2011122CC26CA4AC806CEED
:104980004EC62A89AE84328409C51C5199E3EF00D2
:10499000D04E1C4C1CC48357C400A18B99C31C4827
:1049A00091EFA2854A85B52011C9FD54F2406244B9
:1049B0004249B2492685D244056182801C4018488C
:1049C00093F9F40F93F4F40F3385E7405C486347A1
:1049D000F500A2854A85EF00F03061F91C44FD170F
:1049E0001CC41C401387170018C023803701584887
:1049F000930715006309F7008357C400858BDDD743
:104A0000A947E395F4FAA2854A85EF00B02D59DD58
:104A100069BF411122C426C206C6AA8403A5C18368
:104A20002E8409C51C5199E3EF0030458317C4005B
:104A300013F7870021EB13F7070109EB254798C00F
:104A400093E707042316F4007D55A5A8918B8DC725
:104A50004C5889C9930744046384F500268549208E
:104A6000232A04028357C4002322040093F7B7FDCE
:104A70002316F4001C481CC08357C40093E787002A
:104A80002316F4001C4889EF8317C40013F707208E
:104A900001C793F7070889C7A2852685EF00104D47
:104AA0008317C40013F7170015C3584823240400C4
:104AB0003307E04018CC1848014501E713F7070811
:104AC00041F3B240224492444101828013F727000F
:104AD000814611E3544814C4F9BF828082808280E9
:104AE000D1CD83A7C5FF011122CC06CE1384C5FF0B
:104AF00063D307003E942AC60124138781911C4387
:104B0000324581EB2322040000C36244F240056178
:104B1000C5AA637DF4001040B306C4006396D700B5
:104B20009443DC43B29614C05CC0F9BF3E87DC43BB
:104B300099C3E37DF4FE14433306D700631F860058
:104B40001040B29614C33306D700E390C7FC9043DD
:104B5000DC43B29614C35CC34DBF6375C400B14758
:104B60001CC165B71040B306C4006396D7009443D8
:104B7000DC43B29614C05CC040C341BF8280411187
:104B80004AC0138941918327090022C426C206C660
:104B9000AA842E8491E78145EF00D0602320A900EC
:104BA000A2852685EF0010607D59631A25017D548A
:104BB000B24022852244924402494101828013047A
:104BC00035007198E30685FEB305A4402685EF0005
:104BD000705DE31F25FDE1BF011126CA93843500F6
:104BE000F1984AC806CE22CC4EC652C4A104B147A1
:104BF0002A8963F6F406B14463E5B4064A85ED28D4
:104C00009389819183A709003E8425E8A6854A857A
:104C1000EFF0FFF6FD572A84631EF50C03A409008C
:104C2000A287CDEB71C0032A040081454A85229AF0
:104C3000EF005057631AAA0A1C404A859D8CA6852E
:104C4000EFF0FFF3FD576301F50A1C40A6971CC067
:104C500083A70900D84351E323AC019081A0E3DD91
:104C600004F8B1472320F9000145F2406244D244E0
:104C70004249B249224A056182801440858E63C848
:104C800006042D47637DD70204C033079400639662
:104C9000870223A0E9005C4014C35CC34A858D20D1
:104CA0001305B4009307440061993307F540E30E00
:104CB000F5FA3A94898F1CC04DBFD8C3E9BF58405C
:104CC0006395870023A0E900D1BFD8C3C1BFA287E5
:104CD000404025BF3E84DC43A9B73E87DC43E39ECA
:104CE00087FE232207005DBFB1472320F9004A85D4
:104CF00001289DBF04C15DB71385C1906FF01FDE11
:104D00001385C1906FF0BFDD1C46FD171CC663DA2A
:104D10000700184E63C5E700A9476394F5006FF0DC
:104D20009FC51C422E851387170018C22380B70029
:104D30008280011122CC26CA4AC84EC652C406CE71
:104D40002A89AE893284B304D6007D5A6314940054
:104D5000014511A8834504004E864A85EFF0DFFA2D
:104D60000504E31545FFF2406244D2444249B2498A
:104D7000224A05618280357122CD26CB4AC94EC7B1
:104D800006CF52C556C35AC1DEDEE2DCE6DAAA8996
:104D9000AE843289368409C51C5199E3EF00F00DC9
:104DA000FC50858B89EB83D7C40093F7072081E7FC
:104DB000A84CEFF0BFD283D7C400A18B99C39C4805
:104DC000A1E3A6854E85EFF0DFC41DC9FC50858B9D
:104DD00099CF7D55FA406A44DA444A49BA492A4A89
:104DE0009A4A0A4BF65B665CD65C0D61828083D77B
:104DF000C40093F70720F1FFA84CEFF05FCED1BFBE
:104E000093070002A304F1029307000302D22305D3
:104E1000F10222C6930B5002971A0000938A4A0BA4
:104E2000054C294B4A848347040099C3639D770945
:104E3000B30C2441630E2401E6864A86A6854E857E
:104E4000EFF03FEFFD576301F51A9257E6973ED218
:104E500083470400638A0718FD571309140002C82A
:104E600002CE3ECA02CCA309010482D483450900C4
:104E700015465685EF00F024C2471304190031E5AA
:104E800013F7070109C713070002A309E10413F789
:104E9000870009C71307B002A309E104834609008C
:104EA0001307A002638BE602F2474A848146254637
:104EB0000347040093051400130707FD6375E60616
:104EC0008DC63ECE1DA00504B9BF3305554133152F
:104ED000AC00C98F3EC8228951BF324793064700B4
:104EE000184336C6634A07023ACE034704009307C5
:104EF000E002631EF704034714009307A002631A3D
:104F0000F702B2470904138747009C433AC663D3AC
:104F10000700FD573ECA25A83307E04093E7270066
:104F20003ACE3EC8D9B7B38767032E848546BA9771
:104F300041B7050402CA814681472546034704005C
:104F400093051400130707FD6376E606E1F6834533
:104F500004000D4617150000130505F8EF00701644
:104F600011CD97170000938727F71D8DC2471307B0
:104F700000043317A700D98F05043EC883450400F9
:104F8000194617150000130565F5130914002304CD
:104F9000B102EF00101325CD9307000095E74247BB
:104FA000B2471377071009CF91073EC69257D297A1
:104FB0003ED28DBDB38767032E848546BA97BDBFA9
:104FC0009D07E19BA107D5B778009706000093865F
:104FD00086D626860C084E8597000000E700000064
:104FE000FD572A8AE314F5FCFC50858B89EB83D7A7
:104FF000C40093F7072081E7A84CEFF05FAE83D79A
:10500000C40093F70704E39607DC1255E1B3780078
:1050100097060000938626D226860C084E85112A14
:10502000C1B7797156CA9C49BA8A984522D44AD0E8
:105030004ECE52CC06D626D25AC85EC6AA892E8437
:105040003289368A63D3E700BA872320F900034701
:10505000340401C785072320F9001C4093F7070299
:1050600091C78327090089072320F9000440998804
:1050700091E8130B9401FD5B5C4403270900998FB1
:1050800063CCF40483473404B336F0001C4093F738
:105090000702A5EB13063404D2854E85829AFD578C
:1050A0006303F5041C4011478144998B6399E70021
:1050B0004444832709009D8C63D3040081441C442D
:1050C00018486354F700998FBE94014969047D5BC9
:1050D00063982405014509A885465A86D2854E85E0
:1050E000829A631E75017D55B25022549254025922
:1050F000F249624AD24A424BB24B456182808504F2
:10510000A5BF3307D40013060003A301C704034758
:10511000540493871600A2978906A381E7049DBFD4
:1051200085462286D2854E85829AE30E65FB050967
:1051300045B7797122D44AD04ECE52CC06D626D26B
:1051400056CA5AC803C88501930780072A892E8446
:10515000B289368A63E207039307200693863504F3
:1051600063E10703630B081C930780051716000013
:10517000130646D76308F814930424042301040596
:1051800015A89307D8F993F7F70F5546E366F6FE8F
:10519000171600001306C6128A07B2979C43B297EF
:1051A00082871C4393842504938647009C4314C341
:1051B0002381F50485475DA290411C4313750608C1
:1051C0009385470039C19C430CC3584063DD0712E7
:1051D0009305D002A301B40418C463500704B307B5
:1051E000F040171600001306E6CF2948B68433F7BF
:1051F0000703FD143297034707002380E4003E872E
:10520000B3D70703E37507FFB1A89C4313750604E2
:105210000CC345DDC207C1874DBF6D9A10C0C1B731
:105220008C41104313F505081C42110611E593F556
:10523000050499C1C207C18310C31307F0061716EE
:105240000000130626CA631EE80A2148A3010404CD
:10525000584018C4E34C07F80C40ED990CC0D9F73E
:10526000B68449F7A147631EF8001C40858B91CB9B
:1052700058401C4863C7E70093070003A38FF4FE60
:10528000FD14858E14C85287CE867000A2854A858B
:10529000EFF03FD9FD5A6317550D7D55B25022549A
:1052A00092540259F249624AD24A424B4561828085
:1052B0009C4193E707029CC1130880071716000062
:1052C000130686C3A30204050C40084313F805081F
:1052D0001C4111056318080013F805046304080055
:1052E000C207C18308C313F7150001C793E5050280
:1052F0000CC099C3414899BF18401377F7FD18C0F7
:10530000D5BF2948A1B7171600001306A6BD294826
:1053100081B790411C43CC49137806081385470098
:105320006306080008C39C438CC301A808C3137616
:1053300006049C4375DA2390B70023280400B68442
:1053400099B71C43D04181459386470014C38443D9
:105350002685852B19C1058D48C05C401CC8A3015A
:10536000040415B714482686CE854A85029AE306BA
:1053700055F31C40898B8DE7B2474844E350F5F262
:105380003E8529BF85465686CE854A85029AE30624
:1053900065F185045C443247998FE3C5F4FEE9BFAB
:1053A0008144930A94017D5BF5B78397C500011191
:1053B00022CC26CA06CE4AC84EC613F78700AA8456
:1053C0002E8471E7D8416345E000B8416359E00895
:1053D000585451C7B18303A90400858B23A004004E
:1053E0000C50A1CF70488357C400918B99C75C4083
:1053F0001D8E5C5899C33C401D8E5C540C508146F8
:1054000026858297FD57630EF5041C480567232205
:1054100004001CC08357C400F98F91C368C84C585E
:1054200023A024018DCD930744046385F5002685D0
:10543000EFF00FEB232A04021DA0014685462685C6
:105440000297FD572A86E310F5FA9C40C9DF75479D
:105450006385E70059476395E70623A024010145CA
:10546000BDA098408317C40001CFF5466305D7005F
:10547000D9466319D7041C48232204001CC045B731
:105480001848B1832322040018C0858B79B783A9FB
:105490000501E38609FC03A905008D8B23A03501D6
:1054A00033093941014791E3D84918C4E35920FB36
:1054B0001C540C50CA864E86268582976340A002F3
:1054C0008317C40093E707042316F4007D55F240C8
:1054D0006244D2444249B24905618280AA993309A3
:1054E000A940E9B79C49411106C622C426C281EBF6
:1054F0008144B24022442685924441018280AA849C
:105500002E8401C51C5191E38D2A8317C400EDD36D
:105510007850058B19E793F7072081E7284CEFF0C7
:10552000EFDB2685A285EFF05FE87C50AA84858BAF
:10553000E9F38357C40093F70720C5FF284CEFF029
:105540000FDA45BF411122C406C62A842316B500CE
:105550002317C5002320050023220500232405006E
:105560002322050623280500232A0500232C0500F5
:10557000214681451305C505EFA05FC297070000CE
:105580009387C7285CD0970700009387272B1CD4EC
:10559000970700009387672F5CD4970700009387D5
:1055A00027321CD800D09387C141630AF400938747
:1055B00041486306F4009387C14E6319F400130554
:1055C00084052244B24041016FF02FD1B240224401
:1055D0004101828017B6FF1F1306C6B5970500006C
:1055E000938585F017B5FF1F130505B07DA84C41C5
:1055F000411122C406C69387C1412A846384F50001
:10560000EFF05FEE0C44938741486385F5002285F7
:10561000EFF05FED4C449387C14E6388F50022851F
:105620002244B24041016FF0FFEBB24022444101FD
:105630008280411197070000938707FA0146914540
:105640001385C14106C623AEF190EFF0BFEF0546CA
:10565000A54513854148EFF0FFEEB2400946C94524
:105660001385C14E41016FF0FFED138501916FF07D
:10567000EFC6138501916FF08FC6411122C406C693
:105680002A84EFF09FFE1C5091C72244B240410192
:105690006FF03FFE970700009387A7F51CD083A704
:1056A000C191E5F7EFF0FFF8CDB7797122D44AD078
:1056B0004ECE52CC5AC85EC606D626D256CAAA8943
:1056C0002E8A32840149054BFD5B0444832A440041
:1056D000FD1A63D00A0200406DF8B2502254925471
:1056E000F249624AD24A424BB24B4A85025945615D
:1056F000828083D7C400637BFB008397E4006387C9
:105700007701A6854E85029A3369A90093848406A1
:10571000C1B75971A2D42E848395E500A6D2CAD010
:1057200086D6B284368963D305028357C40093F7C3
:1057300007088DEB13070040B65026542320F900CC
:1057400098C0065996540145656182803000552AFB
:10575000E34D05FC3247BD67F98F7977BA9793B768
:105760001700C9BF814713070004F9B783D7C500E5
:10577000797122D406D626D24AD04ECE898B2E8479
:1057800091CF930774041CC01CC885475CC8B250F5
:10579000225492540259F2494561828074003000CB
:1057A000AA84EFF01FF7A2492A892685CE85EFF05B
:1057B000AFC201ED8317C40013F7072069FBF19B0B
:1057C00093E727002316F4006DBF8357C40008C079
:1057D00008C893E707082316F400B247232A3401C8
:1057E00089CF8315E4002685892201C98357C40027
:1057F000F19B93E717002316F4008357C40033E5A9
:1058000027012316A40061B7411122C42E84839579
:10581000E50006C69D22634905007C48AA977CC81E
:10582000B2402244410182808357C4007D777D17B6
:10583000F98F2316F400EDB783D7C500011122CCF0
:1058400026CA4AC84EC606CE93F70710AA842E84ED
:105850003289B68991C78395E50089460146CD28EE
:105860008357C4007D777D17F98F8315E4002316D5
:10587000F4006244F240CE864A86B2494249268507
:10588000D2440561A1A2411122C42E848395E50072
:1058900006C67D287D578357C400631BE5007D77CE
:1058A0007D17F98F2316F400B24022444101828013
:1058B0000567D98F2316F40068C8FDB78395E50006
:1058C00031A893F5F50F2A966314C500014582802F
:1058D00083470500E38DB7FE0505FDB7411122C4DE
:1058E0002A842E8523A0019206C63922FD5763160D
:1058F000F50083A7019291C31CC0B240224441012C
:105900008280411122C42A842E85B28523A001926F
:1059100006C6CD28FD576316F50083A7019291C3F3
:105920001CC0B240224441018280411122C42A8419
:105930002E8523A0019206C6E128FD576316F500C7
:1059400083A7019291C31CC0B240224441018280CE
:10595000411122C42A842E85B285368623A0019265
:1059600006C66D28FD576316F50083A7019291C303
:105970001CC0B240224441018280411122C42A84C9
:105980002E85B285368623A0019206C67128FD5762
:105990006316F50083A7019291C31CC0B240224454
:1059A00041018280411122C42A842E8523A00192C4
:1059B00006C6EFE00F97FD576316F50083A7019227
:1059C00091C31CC0B240224441018280411122C4D3
:1059D0002A842E85B285368623A0019206C6EFE082
:1059E000CF91FD576316F50083A7019291C31CC0A8
:1059F000B2402244410182809307800523A0F192A6
:105A00007D5582809307800523A0F1927D55828089
:105A10009307800523A0F1920145828093078005BA
:105A200023A0F1927D5582809307800523A0F192F7
:105A30007D5582801B5B316D1B5B39326D464B2D72
:105A4000303120426F6F740D0A1B5B306D00000017
:105A50001B5B39366D4D310D0A1B5B306D0000004C
:105A60001B5B39336D5B434C4B5D205741524E49B4
:105A70004E473A204853452F504C4C20E590AFE517
:105A80008AA8E5A4B1E8B4A5EFBC8CE5B7B2E59B64
:105A90009EE980802048534920384D487AEFBC88E1
:105AA00055534220E4B88DE58FAFE794A8EFBC8949
:105AB0000D0A1B5B306D00001B5B39366D4D320DDE
:105AC0000A1B5B306D0000001B5B39366D4D330DDA
:105AD0000A1B5B306D0000001B5B39366D4D340DC9
