:040000006F40C04B42
:1000040000000000000000003C1E0000621E000012
:1000140000000000BA4400000000000000000000DE
:10002400BA440000BA4400000000000000000000D0
:10003400BA44000000000000BA44000000000000C0
:10004400BA440000BA440000BA440000BA440000B4
:10005400BA440000BA440000BA440000BA440000A4
:10006400BA440000BA440000BA440000BA44000094
:10007400BA440000BA440000BA440000BA44000084
:10008400BA440000BA440000BA440000BA44000074
:100094009E200000BA440000BA440000BA440000A4
:1000A400BA440000BA440000BA440000BA44000054
:1000B4003E1E0000BA440000BA440000BA440000E6
:1000C400BA440000BA440000BA440000BA44000034
:1000D400BA440000960700005C1D0000BA4400000A
:1000E400BA440000BA4400004E200000BA440000A4
:0C00F400BA440000BA440000BA44000006
:10010000397101436EC619A0397141536AC866CA74
:1001100062CC5ECE19A0397101535AD056D252D456
:100120004ED64AD826DA22DC06DE330161408282CE
:1001300041114AC026C222C406C68282B24D410184
:10014000024D924C224CB24B4101024B924A224A40
:10015000B2494101024992442244B24041018280A5
:1001600015C22A8385466367B500FD561307F6FF5F
:100170003A93BA9583830500230073007D16369366
:10018000B6956DFA82802A8309CA8383050023000D
:1001900073007D16050385056DFA82802A8311C6DA
:1001A0002300B3007D16050365FE8280EFF25FF841
:1001B00085451145EF30B07F85450545EF4000018D
:1001C000014549BFEFF2DFF641113705004002C299
:1001D00002C423160100EF40000583A701813747C1
:1001E0000F0013070724B3D7E7024C003705004080
:1001F00023130100FD172312F10089679387F7701D
:100200003EC4EF40E00A854537050040EF40E0146A
:100210000546854537050040EF40C012B7E700E0CE
:1002200005472386E742056723A2E7108545370582
:100230000040EF40600F410131BFEFF2DFED4111AF
:100240000545EF307062EF107058EF30B004716503
:1002500013050520EF30300D913FAD37EF005013FF
:100260000145EF00D0087D21EF10C000EF001067BE
:100270006800EF0070601965130505B7EF4040771F
:100280001964130584AFEF40A0762945EF3050067E
:1002900019651305C5B2EF4040662945EF3050059A
:1002A00019651305C5B4EF40A0742945EF3050041B
:1002B0008346E1000346D1008345C100196513055B
:1002C00045B7EF4080632945EF3090021966996584
:1002D0001965130646B9938505BA1305C5BAEF40EB
:1002E000C0612945EF30D00019669965196513067C
:1002F00006B9938585BC130505BDEF40006029450F
:10030000EF30007FEF0050683DC99965938585AB5C
:100310001965130585BEEF40405E2945EF30407DED
:10032000130584AFEF40C06C83C7618C91C719651A
:10033000130505C0EF40605C1969EF102059EF000C
:100340009028EF10705A130909FFEF20507C914953
:10035000EF109060994AEF005075EF00C07DEF00FC
:10036000F043EF007018EF00103683A7C18483A418
:10037000418663EEFA068A07CA979C43828799658D
:10038000938585AD71B703A7418E95476311F70635
:1003900023A491841965854723A6F184130585C597
:1003A000EF400065A9A083A6418E1547639EE60233
:1003B00005472382E18483A7818413071003B38751
:1003C000F4406376F70283C551841965130545C867
:1003D0008505EF4080520D45EF006071D92123A4BF
:1003E000918423A6318521A083C74184E9F7EF10CA
:1003F000006031212DD1EF00B06E1929A1BFEF00AF
:10040000706A19C91965130505CAEF40605E054594
:10041000EF00E06D954795A0EF00E07609C51965FE
:10042000130505CCB5BF83A7818413073006B387B6
:10043000F440E37EF7FA83C551849387150093F760
:10044000F70FA382F1840947636FF70089051965E7
:100450000D4693F5F50F130505CFEF40004A9121A6
:1004600023A4918469B719658D45130545D1EF40E3
:10047000C0480945EF00A067994723A6F18485BFCE
:10048000EF0050622DF5F5B7EF00D06149F1EF00B4
:10049000806F19C519651305C5D4EF40605581B744
:1004A00083A781841307B012B387F440E371F7F494
:1004B0007DB7EFF25FC683C7718C4111AA842E8687
:1004C0008DC7B767004083A7C7C01307000293F723
:1004D0000703638AE70003A7418583A74186998FB5
:1004E00025476374F706A383018C03A7418E9547C4
:1004F00001456317F70283C7718C9DE3A685130539
:100500003008EF3000538547A383F18C03A7418661
:100510000D459305000323AAE184EF3060240545CF
:10052000410125B1294532C6EF3020599387C9C012
:100530009C43324693F70703E38747FB83C7718CDD
:10054000CDD77D19E31009FE4DB71309900CB7699B
:100550000040130A0002DDB72A8601470145937760
:10056000F70F63E3B7008280B307E60083C7070095
:100570003D8DA14713188501931615001358884126
:1005800013F5F60F6356080093C6160313F5F60F1E
:10059000FD1793F7F70FF9FF0507D1B7EFF25FB932
:1005A000AA84EF30604E2A899307800873B00780D1
:1005B0000F10000083A7018A19476362F7121967B9
:1005C0008A071307C700BA979C4382879307E007FF
:1005D000639DF400854723A0F18A238E0188A38DB3
:1005E0000188238D0188A38C01884A85EF30204A39
:1005F00095B6A38D9188894723A0F18A238291AA79
:100600000547238EE188D5B7238D918803C7C1891B
:100610009307170093F7F70F238EF188938741AA6A
:10062000BA97238097008D4723A0F18A03C6B1892A
:10063000854663F0C60283C7B189F91793F7F70FB0
:10064000A38CF18883C79189CDF3954723A0F18AC4
:1006500069BFA38C0188FDB783C6C1899387160043
:1006600093F7F70F238EF188938741AAB6972380DB
:10067000970003C7C18983C791898907E367F7F6A4
:10068000E9B783C5B189138541AAF9356399A404F3
:1006900099476DBF9307F0076393F40483C76180A4
:1006A0009DCF83C6A1899387019A93F6F60FA38005
:1006B000D71083C6B1891387019A93F6F60F23806A
:1006C000D71003C691891376F60F2381C71083C70D
:1006D000918989EB8547A301F7102383018023A02B
:1006E000018A21B783C791898147138641AA83C5AF
:1006F0009189E3F1B7FE93852700B29583C5050084
:100700003308F700850793F5F50F2300B80093F73A
:10071000F70FF1BFEFF2DFA141119307004037154A
:1007200001402312F1004C009147130505803EC69D
:10073000EF302060374501408357C58013050580A1
:10074000054693E747002316F5008357C500930538
:10075000505293E707012316F500EF30304EB7E70C
:1007600000E0A38A07423707200023A2E710B7471B
:100770000140138507808545EF30D04A23A0018AC8
:1007800005472383E1809387019AA38107104101E4
:100790006FF05F9C21B55D7122DE374401402ADC99
:1007A0002EDA130504809305505286C696C49AC269
:1007B0009EC032D836D63AD43ED242D046CE72CC43
:1007C00076CA7AC87EC6EF30F04A11C50355448018
:1007D0001375F50FE1337254B640A64216438643B3
:1007E0006255D2554256B256225792570258F24895
:1007F000624ED24E424FB24F6161730020309387F8
:10080000019A83C737101385019A91E301458280CD
:100810009387019AA381071005472383E180828093
:10082000EFF21F916D712E87328411C2A5C193071B
:10083000E0072306F1009307240093F5F70FA306C2
:10084000B1002307A100814793F6F70F9384360088
:1008500093F4F40F13860411B304260063EB8602AD
:100860001305D100D5399307440093F7F70F938709
:10087000071193055400238EA4EE8A971307F007FF
:1008800093F5F50F6800238EE7EE253151616FF087
:100890007F8CB306F70083C606008507238ED4EE4F
:1008A00065B7EFF2FF8841119307E0272314F100A9
:1008B00089458947130591002305F1007139A30586
:1008C000A1009307F007954528002306F100D536CF
:1008D00041016FF03F88EFF2BF856D71AA862E87C8
:1008E000328419C20145A5C19307E0072306F10030
:1008F0009307240093F5F70FA306B1002307D10057
:10090000814793F6F70F9384360093F4F40F138620
:100910000411B304260063EB86021305D1002D39C0
:100920009307440093F7F70F93870711930554003B
:10093000238EA4EE8A971307F00793F5F50F68004E
:10094000238EE7EEBD3651616FF0DF80B306F7000E
:1009500083C606008507238ED4EE65B7EFF24FFD00
:100960004111935706012315C10061822304A100A0
:10097000A304B100A306C1002C00194613051005FD
:100980002306F100893F41016FF0CFFCEFF2CFF772
:100990008547AA8A2E8AB2896303F5049967196686
:1009A000938587D81306C6D885476301FA049966EC
:1009B000938686D983C7C18795CF9967938707B9EF
:1009C00019654E87130585DBEF30307383C4C1870B
:1009D00095C44E86D285568551376FF06FF699676C
:1009E00019669385C7D7130606D87DBF9966938687
:1009F00006D9C9B79967938707DAD9B7370B0020AB
:100A000083270B14054785076373F7003E8783C769
:100A100031852320EB14A54B63FCFB001306C006B5
:100A20009385419313858192EFF08FF3A3897185AC
:100A300003C73185B14693878192B306D702050774
:100A4000A389E184B697930650FA2380D7008326C2
:100A50000B1423814701A3805701A381070023A220
:100A6000370194C7EF30A01D37F50008EF30402361
:100A70009147138A81926305F500EF30E01DB1BF05
:100A800083C53185D567938767B4E205DD8D37F57A
:100A90000008EF30A02483250B1437F40008130559
:100AA0004400930B0401130C4401EF302023314B1D
:100AB000610483C73185E3F2F4FCB38964038504E0
:100AC00093F4F40FB30A3A0183A50A003385790140
:100AD000EF30C02083A54A0033858901EF30002024
:100AE00083A58A0033858900EF30401FD9B7EFF224
:100AF0002FE4A38EA18403A7418623ACE18405E102
:100B00002A848565371501400546938505801305C0
:100B100005C0EF30E032238E81846FF0AFE385654E
:100B200037150140014693850580130505C0EF3058
:100B300020310544CDB783C7D18509476387E700D6
:100B40000D4729466385E70082801306200383A7AB
:100B5000418683A581858D8FE3E8C7FE83A7418603
:100B600085653715014023ACF18403C6C1859385A3
:100B70000580130505C0133716003336C000238ED9
:100B8000E1846F30E02B03C5E185238F01848280EF
:100B9000EFF26FD8411185452145EF304061854521
:100BA0001145EF30C06085450545EF304060B70620
:100BB0000140DC42370700F17D17F98F370700024B
:100BC000D98F37140140DCC20D49E147C1444C00C4
:100BD000130504C02312F1004AC426C6EF30601585
:100BE000130504C00146A145EF30802505461305D5
:100BF00004C0C145EF30C0248D674C00130504C00C
:100C00002312F1004AC426C6EF30A012130504C017
:100C100005468965EF30C0220146130504C085658D
:100C2000EF3000228569938909804C00130504C0C8
:100C3000231231014AC426C6EF30A00F0546CE85E7
:100C4000130504C0EF30C01F930700302312F100DA
:100C50004C0093078004130504C03EC6EF30600DBE
:100C600085474C00130504802312F1004AC426C6B0
:100C7000EF30200C0546854513050480EF30401CFD
:100C800041016FF08FCC3336A00037150140A145EC
:100C9000130505C0238CC1886F30801A3336A0003D
:100CA00037150140C145130505C0A382C1806F30CF
:100CB0002019096713070771BA876363A700AA871A
:100CC000A507C207C183A54605476385D700294705
:100CD00033D7E70283A741860145BA9723A8F18855
:100CE00005472386E1885DBF83C7C1889DC383A76D
:100CF000418683A60189958F63CD070083C7A188AC
:100D000023860188014589E7B707002003C54714FA
:100D100071B782803337A0001336150037150140B4
:100D20008965130505C0238BE1886F306011EFF2F0
:100D30002FC0371501408965130505C0EF30A00E9F
:100D4000133515006FF00FC13336A0003715014081
:100D50008565130505C0A38AC1886F30600EEFF268
:100D60002FBD371501408565130505C0EF30A00B79
:100D70007D15133515006FF0EFBD3337A000133626
:100D8000150037150140854513050580238AE18844
:100D90006F30000B03C5818983C751803335A000B4
:100DA00099C31365250083C7618999C313654500FD
:100DB00083C7518999C31365850083C7418999C346
:100DC000136505018280B7F7000803C60700130703
:100DD0006004B70500206312E60E03C61700130770
:100DE000B004631CE60C03C6270005476317E60C36
:100DF00003C7370029469377F70F6373E6008147EF
:100E0000A389F18437F7000803454700834757005B
:100E10000346670003477700A2074206D18F6207A7
:100E2000C98FD98F05476373F7003E8703C83185A3
:100E300023A0E514B7F7000813878192C107014684
:100E40006317C80003C7C1872388E184828083C6F3
:100E5000070005061376F60F2300D70083C6170098
:100E6000B107A300D70083C667FF2301D70083C65D
:100E700077FFA301D70083C887FF83C697FF03C509
:100E8000A7FF83C5B7FFA2064205C98EB3E61601C8
:100E9000E205CD8E54C383C8C7FF83C6D7FF03C501
:100EA000E7FF83C5F7FFA2064205C98EB3E6160128
:100EB000E205CD8E14C7310761B78547A389018448
:100EC00023A0F51441B7EFF20FA503C7C18701CFE7
:100ED00083C6018589EA83C6318591C68546238903
:100EE000D184A38801842388E18483C7218581CBB1
:100EF00003A7418E95476306F700238901846FF0AD
:100F0000CFA403C7118583C731856375F702B14646
:100F10003307D70293878192BA97D04383C52700BE
:100F200003C51700EFF09FA311C583C7118585077F
:100F3000A388F18403C9118583C73185E361F9FC76
:100F4000A3890184238901842947CA876373270100
:100F5000A94793F9F70F37F40008EF20504E0C40E3
:100F600037F500084104A205A181EF2030578144E4
:100F7000639B9900EF20504E1965CA851305C5DFA4
:100F8000EF30B017ADBF0C402285850493F505F016
:100F9000EF20D05493F4F40F3104D9BFEFF2AF97A0
:100FA0003719014093050010130509C003A44186B9
:100FB000EF2070679334150093050020130509C0D6
:100FC000EF20706683C6B18813351500638C9606D2
:100FD00003A7418885463307E44063F4E600A38510
:100FE000918803CAB18883C6A1886380A60603A737
:100FF000018885463307E44063F4E6002385A18831
:1010000003C9A18883C7918863040A0491E72286F3
:1010100085450545EFF09F970545EFF0DFC683C78F
:1010200081886300090491E7228685450945EFF030
:10103000FF950145EFF09FC6A38441892384218950
:101040006FF0AF9023A2818869BF23A081884DBF34
:10105000F9D7054522868945EFF05F9303C571896D
:101060006DBFF9DB094522868945EFF03F92B7074E
:10107000002003C547147DBF19C98547A300F500AB
:101080009547230005002301F500A3010500828098
:1010900029C5B7F7FF1F1387877E14439387C77E41
:1010A0002300D5001443A182A300D5001443C182BC
:1010B0002301D50018436183A301E500984323026F
:1010C000E50098432183A302E5009843418323036D
:1010D000E5009C43E183A303F5008280EFF24F8596
:1010E00041115C00B7E400083E8537E4000813872F
:1010F000C40083C6040085048507A38FD7FEE39A46
:10110000E4FEB145EFF04FC5834504009306B004FB
:101110001386C186639CD50483451400930650044E
:101120006396D50483452400930690056390D50407
:1011300083463400054893F5F60F6399060383C68A
:1011400004006315D5022384B18637E7000893872E
:10115000C186110431078346040005048507A38F67
:10116000D7FEE31AE4FE41016FE0DFFE238401862F
:1011700037D7EF011307B7DA23A6E186B7476789A8
:10118000938737525CC2C5B703C5818682806301ED
:10119000050EEFE25FF84111B74459012146AA85D7
:1011A0002A849384B454480026C0EFE0DFFDB145A3
:1011B0000A85EFF06FBAFD57A306F1002317F1007F
:1011C0002A892306A100EF20902737E50008EF20A9
:1011D000302D9147AA896308F500EF20F0270145DB
:1011E00041016FE09FF6A68537E50008EF20102F3C
:1011F000AA84E31435FF924537EA000813054A0034
:10120000EF20D02DAA89E31A95FCA24513058A0088
:10121000EF20D02CAA84E31235FD936509F0130565
:10122000CA00EF20B02B2A89EF201023E31999FA86
:1012300037E700088A87930607010346070083C53E
:101240000700E39EC5F805078507E318D7FE814729
:101250001387C186A1463306F40083450600338612
:10126000E70085072300B600E397D7FE05458DBF4D
:1012700001458280238E018603A7418623A0E18653
:10128000828005C1814713874187A1463306F50057
:10129000834506003386E70085072300B600E39701
:1012A000D7FE828003C5C187828083C7C18785CB73
:1012B00083A6018683A74186958F9306401F63F01E
:1012C000F602EFE2FFE60945238E0186EFF03F824A
:1012D00019651305C5E3EF30A0716FE0BFE78280A9
:1012E000630E0546EFE23FE303C7C18703441510D1
:1012F0006D71AA8715EB85466309D40CC14663045A
:10130000D422C5466300D424C9466302D4321307ED
:1013100060046307E432014681451305200FEFF0B6
:101320002FD051616FE07FE213076004636387068B
:10133000130750026369870205476308E40813072F
:1013400004FF1377F70FD14663FEE602014681459D
:101350001305300FEFF0CFCC1965A285130545EAD0
:10136000EF30A0597DBF1307A4FD1377F70F930645
:101370000002E3EDE6FC99660A079386860236973B
:101380001843028799660A079386C60A3697184358
:10139000028713072006630DE43413074006630534
:1013A000E43693070006E313F4FA680023160100FD
:1013B000EF00F00DAA8909C58357C1006395073274
:1013C000014681451305100699BFB7572D30938705
:1013D00067B43ECA8967938717133ECC03A741863B
:1013E000214623A0E1864C08094515BF0347251077
:1013F00011CB034505003335A000A38BA188EFF086
:101400009F8805B7014681451305000F09BF83C7B3
:10141000818905464C08230AF1001305200201B713
:101420000347251065D303450500B7070020333572
:10143000A0002382A71423860188EFF03F86D5B54C
:1014400083C7518005464C08230AF100130550025A
:10145000F9B5834625100547E376D7FA83C7170009
:1014600003450500A2075D8DEFF0BF845DBD034716
:10147000251049DB034505003335A000EFF09F89B7
:101480004DB5EFF0DF8A230AA10005464C0813058D
:10149000200371B50347251035D7034505003335C3
:1014A000A000EFF07F8AB5BDEFF07F8B230AA1008B
:1014B00005464C08130550039DB50347251039D345
:1014C000034505003335A000EFF03F8B99BD83C77E
:1014D000418905464C08230AF1001305800381B5B4
:1014E000B7070500938707103ECA11464C0813053D
:1014F000100435B54808EFF0BFB921464C08130574
:10150000300431BD83C78189230AF10083C751802C
:10151000A30AF100EFF01F88230BA1000D464C0831
:1015200013055004EDBB8546238FD18483C6271055
:101530001D47E379D7EC3E85EFF0BFD401468145E6
:101540004145F1BB83C627101D47E37DD7EA01471C
:10155000938541871386C186214554083388E60068
:10156000B308C700B306B70083C6060083C80800E7
:101570000507B3C616012300D800E310A7FE5408E0
:1015800099656808368793850510034607000507A7
:101590002E9603460600A30FC7FEE318A7FE130707
:1015A000B10103C506008506135675000605498E70
:1015B00003C50600298E2380C600E394E6FE74006E
:1015C0000D4736852D4813767700130606110A96C7
:1015D000034646F005071377F70F2E9603460600DD
:1015E0008506A38FC6FEE31007FF0147A14533061A
:1015F000E500B386E7000346060083C606006311D4
:10160000D6140507E315B7FE8547238EF18603A799
:101610004186054523A0E186EFF06FCD4D4501469B
:101620008145EFF0EF9F1965130505ED89A0514540
:10163000230AE10005464C08DDB105474D45CDBF05
:1016400083C627101D47E37FD7DA3E85EFF03FB40E
:1016500015C10145238E0186EFF06FC91305700493
:1016600001468145EFF0CF9B1965130585E5EF3005
:10167000203845B91305000F01468145EFF04F9A18
:101680001965130585E6E5B7858D1394050141803D
:10169000814763758A0085471304A00FB3859900BD
:1016A000228613056101230A2101A30AF100EFE05C
:1016B0009FAD13062400A2941376F60F4C08130571
:1016C0001006C2040509EFF0AF95C1801379F90F38
:1016D0008355C100E3EAB4FA19654A861305C5E7E4
:1016E000EF30A0213DB981440149130AA00FCDB7C5
:1016F000834525101307B00F9387F5FF93F7F70F76
:10170000E362F7D0012B31B9834625101547E37BFF
:10171000D7CE834615000347050003445500A206B3
:10172000D98E034725000345350083C5470042078E
:10173000558F6205598DB52BE30504BEFD23D5B643
:101740000145238E0186EFF08FBA51450146814550
:10175000EFF00F8D1965130505EC11BF8280EFE2E4
:101760009F9B1D64B7540040B70900102A891304D9
:10177000145393840440054A938909407D1401CC95
:10178000CA852685EF209009630A4501CE85268506
:10179000EF20700A65D501456FE03F9B0545EDBF21
:1017A00063040612EFE23F97375900402A8AAE8958
:1017B000130509408545B28437040300EF20007DFE
:1017C00013051400693F4DC583C5C1801305094049
:1017D0000146EF205002370B070013052B08413755
:1017E00041C913050940D285EF20E07F13054B085E
:1017F000BD373DCD130509408545EF202079130500
:101800001400B13F35C583C5C180130509400546A5
:10181000EF20607E13052400993739C9B75A00407C
:101820000149138BF4FF138A0A4013040404631A5A
:101830002B0181455285EF20207985455285EF2087
:10184000C0762285293F0DC55285EF20207AB387C7
:10185000290105092380A70093170901C183E3E843
:1018600097FC13850A408545EF2000760545A1A029
:1018700037540040130504408545EF20E0741305FC
:1018800004408545EF206072130504408545EF2034
:101890008077130504408145EF20E076130504406E
:1018A00085459D64EF20C06C938414531304044059
:1018B000FD1481E401456FE05F89B70502002285D0
:1018C000EF20607775F5FDB705458280EFE2BF84B4
:1018D000797185453545EF20900D85453705220006
:1018E000EF20D00EB71401401144E1478D494C0060
:1018F00013850480231281003EC64EC4EF2060434E
:10190000A1474C0013850480374900402312F100A1
:1019100022C6EF200042716413040420B7070C00B4
:101920000C08130509403ECC22C802CA231E010040
:10193000EF209023130509408545EF20B02E054682
:101940001305094093055052EF20502FB7E700E0F0
:101950000547238BE7423707400023A2E710930790
:10196000000C2312F1004C00F147138504C03EC661
:101970004EC4EF20003CE1679387076A3ED0B7076B
:10198000FFBF3ED2B7070004B75400409387070358
:101990003ED40C109167138504402316F102EF200A
:1019A000C04B138504408545EF20805C239A018A53
:1019B0002399018A2395018A2394018A2388018A25
:1019C0002381018CA380018C2392018C238E018AB8
:1019D000196523AC018A13060002A2851305C5ED23
:1019E00023A48180EF20707145616FE00FF6EFE274
:1019F000AFF183C7C18B03A6418605474111638FB1
:101A0000E7028946638BD70AA1E783A7818B9305F9
:101A1000700CB307F64063F6F50023ACC18A238E41
:101A2000E18AEFF03F8863100512239A018A239917
:101A3000018A2388018A41016FE08FF041468A853F
:101A40000145EFF0FFD501E92381018CA380018CD2
:101A5000238E018AF9B70347010093076004E31559
:101A6000F7FE034711009307B004E31FF7FC834719
:101A70008100034771009306F03FA207D98F1387B7
:101A8000F7FF42074183E3E1E6FC83463100238010
:101A9000D18C83464100A38FD18A83465100238F86
:101AA000D18A83466100A38ED18A2392F18C239B35
:101AB000018A8947238EF18AADB703D5618B83D71D
:101AC000418C4147898F3E84C207C1836373F7000D
:101AD000414442044180410522868A851375F50FF1
:101AE000EFF01FCC31C903DB618B138541FE2286E9
:101AF0008A855A95EFE02FE95A94420483D5418CA8
:101B00004180239B818AE36EB4F005472381E18CF9
:101B100083C7118C238E018A81EF03C7F18B83C6A3
:101B2000D18B03C6E18B1965130505F1EF20F05C3D
:101B30008547A380F18CF5B52381018CA380018CAE
:101B40002392018C31B703A7418E9547E315F7EE39
:101B500003C6018B83A941860DC283A7C18A0947A9
:101B6000B387F940637BF700938541DA13053006AC
:101B7000EFE07FD619C12388018A138A41DE938B57
:101B800041DA03C7018B81461308F00303D5418B6B
:101B900083D5218B9317050113960501C1834182DB
:101BA0006367B506918FC207C18381EBE38506E8C1
:101BB00023A6218B2388E18ABDBD83D6218B930781
:101BC00017005E97D29603C6060083D6218B93F743
:101BD000F70F2300C700850693F6F61F2399D18AD5
:101BE00085466373F80213060004938541DA1305F2
:101BF000300623A6318B2388F18AEFE0DFCDE30C9A
:101C000005E22388018AB5BF4E893E8741B7938795
:101C1000072049BF25CDBDC9EFE28FD10147138809
:101C200041BA83D7A18A03D6818A850793F7F71F24
:101C3000631CF60283A5418A850523A2B18A13F7A6
:101C4000F50385476317F7001965130585F3EF2042
:101C5000D04A37450040054693057072130505408C
:101C6000EF20C07D6FE00FCF03D6A18AB308E50057
:101C700083C8080042960507230016012395F18AC0
:101C800093170701C183E3EEB7F8E1B7828083C7FA
:101C9000218C81C783D7418C91E719C1231005009E
:101CA0000145828001E5138541FE82802310F50005
:101CB000DDBFEFE2EFC74111AE8421C903A78180E8
:101CC0002A846304A7043749004023A4A1802AC0C2
:101CD000B7070C008A85130509403EC402C22316CB
:101CE0000100EF206068854513050940EF208073EF
:101CF00093055052130509400546EF2020741965DD
:101D0000A285130505F6EF20503F89CC03C7C1809B
:101D1000630A97001965A6851305C5F72386918088
:101D2000EF20B03D41016FE0EFC2239A018A239971
:101D3000018A2395018A2394018A2388018A2381B9
:101D4000018CA380018C2392018C1965238E018A5A
:101D5000130585F923AC018A6F2090495D7122DE5D
:101D6000374400402ADC2EDA130504409305505214
:101D700086C696C49AC29EC032D836D63AD43ED2CF
:101D800042D046CE72CC76CA7AC87EC6EF20806E2C
:101D90000DC98356444083D7418B03D7218B8507D8
:101DA000C20693F7F71FC182630DF70083D5418BFD
:101DB000138741DE93F6F60F2E972300D700239A60
:101DC000F18A374400409305707213050440EF20F8
:101DD000606A0DC983D6A18A83D7818A6388F60495
:101DE00083D6818A938741BAB69783C7070093F752
:101DF000F70F2312F44083D7818A850793F7F71FE3
:101E00002394F18A7254B640A64216438643625523
:101E1000D2554256B256225792570258F248624E55
:101E2000D24E424FB24F616173002030014693059C
:101E3000707213050440EF206060E9B701A0411102
:101E40003AC63EC483A74186850723A2F186B70719
:101E5000004079572398E7003247A24741017300B9
:101E6000203041113EC4B707EFBE3AC6938707083A
:101E700037E700E03CC701A0B71702409843B70618
:101E8000FFF041111367170098C3D84337060200CB
:101E9000758FD8C39843B706F7FEFD16758F98C3A4
:101EA0009843B706FCFFFD16758F98C3D843B70655
:101EB00001FFFD16758FD8C337079F0098C702C46E
:101EC00002C69843C166558F98C3B716024005678E
:101ED0009C42F18F3EC6A24785073EC4B24781E7C8
:101EE000A247E397E7FEB71702409C43370702007B
:101EF000F98FC5C785473EC6324785476317F70A3E
:101F0000B7170240D843B706C1FFFD16D8C3D84360
:101F100037060002D8C3D84313670740D8C3D84355
:101F2000758FD8C3D843B7061100558FD8C39843CF
:101F3000B7060001558F98C385678507B71602401D
:101F40009842718F19E3FD17E5FFB71702409843D8
:101F5000B7060002758F1DC3D843B716024021464D
:101F6000719BD8C3D84313672700D8C385678507FB
:101F7000D842318B6304C700FD17FDFBB717024041
:101F8000D843A146318B631CD700B777DC02938717
:101F900007C023A8F1804101828002C6B1BF9843E7
:101FA000B70600FFFD16758F98C3B7170240D843D8
:101FB000719BD8C3D843D8C3B7177A00938707203B
:101FC00023A8F18005472383E18CF1B7371702403E
:101FD0005C43A146B18B6397D7065C435843C16607
:101FE000C983BD8B758F8907C5466393D700C947E1
:101FF00001EF3747024003270780418B09CF37178E
:102000007A001307072021A8371702405843B70664
:102010000200758F6DD737173D0013070790B38700
:10202000E702371702405443370700201307070021
:102030009182BD8A369703470700B3D7E70023A8EC
:10204000F1808280B7177A0093870720D9BF397152
:102050002AD63705040006DE16DC1ADA1ED82ED47E
:1020600032D236D03ACE3ECC42CA46C872C676C4C8
:102070007AC27EC0EF10F03BF250E2525253C2538C
:102080003255A255125682567247E2475248C2480C
:10209000324EA24E124F824F2161730020303971AF
:1020A00006DE16DC1ADA1ED82AD62ED432D236D064
:1020B0003ACE3ECC42CA46C872C676C47AC27EC008
:1020C0006D2AF250E2525253C2533255A255125663
:1020D00082567247E2475248C248324EA24E124FD1
:1020E000824F216173002030EFE28F84011168007C
:1020F00002C602C802CA02CC02CEEF10907F32475D
:10210000B74795089387074009456300F702B7E78B
:10211000B8059387078005456309F700B777DC02A8
:10212000938707C06315F7000145EF10F07A8545E6
:1021300037058000EF20800905616FE0AF810D4712
:1021400023A2E18E828003C7E14009C7154723A27D
:10215000E18E82800547E5BFEFD29FFD0111370573
:102160000400EF10102DB707040005443EC808080E
:10217000C1473ECC22CE02CAEF10902593074012F1
:1021800028002314F10022C623050100EF10306E51
:102190009307A00328002314F100EF10506D056190
:1021A0006FD05FFBEFD2DFF8AA842E8411458545FE
:1021B000EF10F07FB7670040938707C49843A9C426
:1021C000C166F516758F98C3B717014093870780CE
:1021D000D843B716F0FFFD16758FD8C3D847F976E8
:1021E0009386F67F758FD8C7D843B7460400558FBE
:1021F000D8C3B74702409387078098431DCC136725
:10220000270098C36FD01FF513672700420741834B
:1022100098C3B717014093870780D843B716F0FFDC
:10222000FD16758FD8C3D847F9769386F67F758FDC
:10223000D8C7D843B73603005DBF759BD9B7828036
:10224000EFD21FEF39718A850945EF107001AA841A
:102250000144631994008D650945EF10E054216134
:102260006FD05FEFB307810003C507000504EFE0FF
:102270006FD2C5B7A383018C8280EFD27FEB376624
:102280000040130606C51C42C1651385F5FFB7362D
:102290000020E98F9906B69786079C4303D7418DA6
:1022A000938505C0ED8F0111638BE7001C42137706
:1022B00007C0E98FB69786079443558F98C3B766D2
:1022C0000040938646C49C42C207C1832399F18C87
:1022D00003D7218D83D7418F7D8F1377072001CFBF
:1022E00041671307F7DF98C203C7018D050713770E
:1022F000F70F2388E18C03D7218DF98FC207C1879F
:1023000063D40700EF10400383D7218D03D7418F9B
:10231000F98F93F7074091CFC1679387F7BF37676E
:1023200000402322F7C4B70700209387470ADC4305
:10233000829703D7218D83D7418F89667D8F758FD3
:1023400019C73967B76600407D1723A2E6C403D7D3
:10235000218DF98F0567F98F89CBBD6737670040FD
:10236000FD172322F7C40145512383D7218D03D7BD
:10237000418FF98FAD83858B89CF83A701836388D4
:1023800007107121BD67376700409387F77F2322CD
:10239000F7C483D7218D03D7418FF98F93F70710A7
:1023A000E5C7B76700404167938647C41306F7EF58
:1023B00090C2938687C494429395060163D2050C1C
:1023C00083A6C18C850623A6D18C83A5C18C8D469E
:1023D00063FAB60A938607C49C42A18BC5E78C4278
:1023E0007D17F98D23A4B18CB76500400145138E8C
:1023F00005C0214313182500B308C80183A80800AD
:102400001304080233082400B3F8E800232018FF5F
:102410000505E31165FE03A5818C938505C413654D
:10242000150023A4A18C03A5818C798D88C103A5F7
:10243000818C799923A4A18C83A6818C758F98C1F6
:10244000B7650040938645C49842137707407DDB0B
:1024500041679305F7BF376500408CC2130505C07F
:102460009306F7FF214813972700930507028A95E3
:1024700083A505FE2A978507F58D0CC3E39507FF15
:1024800023A6018C1D459D2105616FD0BFCC094558
:10249000B129CDBD83C7E14081C7154723A2E18E95
:1024A0008280114723A2E18E8280828099E51335D4
:1024B000250013451500060582800945828019E52F
:1024C00083A7C18F1D472398E700828013858182EF
:1024D00082806FF0DFFE03A7C18F930610020945CB
:1024E0008347070093F7F707639BD70283461700DC
:1024F0006383F602930700026393F602896793876A
:10250000274DEFD2FFC21CCF231907000145829748
:1025100001456FD03FC489679387E74BDDB7828061
:1025200003A7C18F9306100201458347070093F765
:10253000F707639ED70083471700130720026388BD
:10254000E7009387D7FDB337F0001395170082801B
:10255000EFD21FBE83A7C18F238507005124B76721
:102560000040056637670040938707C01306F6F002
:10257000930507C29443F18E94C39107E39CB7FE81
:10258000130747C49307F00F1CC3EF102048814581
:10259000014523A2018EEFF0FFC05145EF104055D9
:1025A00085450545EFF01FC06FD0DFBAEFD25FB8A9
:1025B00019670347B72383A7C18F0145A384E700A9
:1025C00023950700EF10C016930500200145EF107A
:1025D0002017C1450145EF10A018930500040145DF
:1025E000EF10602F930500080145EF10C02C014546
:1025F000EF10E026B707002083C5070D0145EF1057
:10260000A0350145EF10801FB7670040938707C0D2
:1026100098439166758F19CB984385669386F6F03B
:10262000758FB16693860608558F98C3B7670040CB
:10263000938707C098431377070419CB984385669F
:102640009386F6F0758FA1669386060C558F98C316
:10265000930500600545EF10A00E930500020545A7
:10266000EF1000109305000C0545EF10C0248145C4
:102670000545EF106013B7670040938747C0984344
:102680001377070419CB984385669386F6F0758F08
:10269000A1669386060C558F98C3B7670040938751
:1026A00047C098439166758F19CB9843856693868A
:1026B000F6F0758FB16693860608558F98C38145ED
:1026C0000945EF10E00781450945EF1060099305C2
:1026D00000100945EF102020930500040945EF1074
:1026E000A0278D650945EF10200CB7670040938740
:1026F00087C098439166758F19CB984385669386FA
:10270000F6F0758FB16693860608558F98C3B76744
:102710000040938787C098431377070419CB9843E9
:1027200085669386F6F0758FA1669386060C558FA5
:1027300098C381450D45EF10A000930500020D459B
:10274000EF100002930500140D45EF10C0168145EF
:102750000D45EF106005B76700409387C7C09843E9
:102760001377070419CB984385669386F6F0758F27
:10277000A1669386060C558F98C3B7670040938770
:10278000C7C098439166758F19CB98438566938629
:10279000F6F0758FB16693860608558F98C301458C
:1027A000EF00102C054723A2E18E6FD0BF9A9385CE
:1027B000C1810DAD9385418135A583A7C18F83C5A7
:1027C0003700914763E9B700B707002093870706F2
:1027D0008E05BE9501AD0145828082808280828017
:1027E000B7670040138707C4854614C3232007003A
:1027F000938747C423A00700F177938707F0239AB4
:10280000F18EB167938707F01CC301458280B767DB
:10281000004083A707C4376700404168C207C183EF
:102820008146130307C07D189385413EA148139646
:1028300026003305660008412E968506337505018E
:1028400008C2E39616FF93E60740130707C414C3B4
:1028500093E61740F99B14C31395070193E70740CC
:1028600041811CC3B7660040138746C41C4393F7DD
:102870000740FDDBC1669387F6BF1CC3B767004006
:102880000147138307C01386F6FFA148931627005C
:102890003388D500032808009A9605073378C800C6
:1028A00023A00601E31417FF938707C4136785402D
:1028B00098C39843420741831367470098C36FF05A
:1028C0001F88EFD2FF8637640040130404C41C4005
:1028D000C207C183ED9BC207C1831CC0EFF0BF8656
:1028E000B167938707F01CC06FD0DF86EFD25F849B
:1028F0009D471384C18D6303F50008C01C40154734
:10290000636EF70019678A071307C728BA979C43B5
:10291000828783A7818D89E7EFF0BFFA994711A0DD
:1029200095471CC001A8EFF0DFF991471CC005478F
:1029300023ACE18C6FD01F8289472302F4008D47BE
:10294000CDB783474400FD1793F7F70F2302F40038
:1029500083474400E5F39147E9B737670040130721
:1029600007C41C43C207C18393E707011CC39547F3
:102970001CC0A9472302F40075BF83474400FD171C
:1029800093F7F70F2302F40083474400C5F7376736
:102990000040130707C41C43C207C183BD9BC20785
:1029A000C1831CC399471CC023AC018C61B7EFD213
:1029B0002FF801E983A7C18F05472398E7006FD05F
:1029C0006FF983A7018F9C43829703A5C18F2905C7
:1029D000FDB7EFD2EFF501E983A7C18F0547239833
:1029E000E7006FD02FF783A7018F9C47829703A53D
:1029F000C18F3105FDB703A7C18F51C5EFD24FF38A
:102A00002396018E8347070093F7F70785EF034767
:102A100097009377070281C789472386F18E137742
:102A2000070483C7C18E09CF93E717002386F18E71
:102A300083A7018F9C4B82971385C18E6FD08FF136
:102A4000F99BEDB78546E389D7FE89460145E397B3
:102A5000D7FE03475700B7660040938606C09377BA
:102A6000F7008A07B69762079C436187635907009E
:102A700093F707034147E39DE7FA854745BF0D6795
:102A8000F98F0567CDBF89472318F700014582807C
:102A9000EFD26FE883A4C18F03D4040103C784007D
:102AA00051EC91476316F70403A7818E8547631C99
:102AB000F702B767004083A707C53737002009072B
:102AC000C207C183BA97860723A0070093070003B4
:102AD0002391F19023A4018E114983A7C18F2384F0
:102AE00027016FD08FE6C1472391F1901D49F5B7BB
:102AF000114901449C4C42044180228582972A8AD4
:102B00000145EF00705FAA8522865285EF00F03DF7
:102B1000A2850145EF00706283D704010D67818FA4
:102B20002398F40083D724013E9493070003239154
:102B3000F190239984002392E19045B783D7440113
:102B4000114963F387000949E3F687FA3E845DB7CC
:102B500083A7C18F83C6518203C73700094563E34A
:102B6000E60283C6270099EE83D6470081EEEFD2B6
:102B70002FDC2385E70083A7018FDC438297014583
:102B80006FD04FDD8280EFD2AFDA83A7C18F03A76A
:102B9000818F411183C53700184F03C55700029735
:102BA00083A7C18F03C7A7001DCB2AC60DE903C7A2
:102BB000470015E783C727009DE383A7018FDC4704
:102BC000829783A7C18F324503C75700A385E700CB
:102BD00003C737002386E70041016FD0AFD709450F
:102BE000E5BF83A7C18F03C707001377F70711EB72
:102BF00003C7970081461377F7FDA384E700368566
:102C0000828009468946E31CC7FE03D7270065FB7F
:102C100003C747006DF7EFD2AFD103C65700376740
:102C20000040130707C01375F6F7131425003A94F4
:102C30006206184061864111635806041377070342
:102C400083C541828946637DB5021DCB83C7A7003A
:102C500085CB1C40635D060293F707034147639CE5
:102C6000E7001375F50F2AC6EF0050423245930571
:102C70000003EF00F02E83A7018FDC4B8297814683
:102C8000368541016FD00FCD8D66758F55BF0D67AD
:102C9000F98F0567E391E7FE15EDB707002083C5BF
:102CA000070DEF00704B1C4071771307F7F8F98F91
:102CB000C2070D67C183B98F617713070708D98FE2
:102CC000C207C1831CC08D661840758FE305D7FA13
:102CD0001CC0DDBFEF00F0381C4071771307F7F818
:102CE000F98FC2070D67C183B98F61771307070892
:102CF000D98FC207C1831CC08D661840758FE30C45
:102D0000D7F61CC0DDBF03A6C18F3767004013078D
:102D100007C08346560093F5F6F793972500BA97B8
:102D2000E2069843E18663D106061377070303C8DA
:102D30004182094563F6050983552600D1E149C35F
:102D40000347A60035CFEFD2AFBE984363D3060446
:102D5000E5769386F6FB758F42074183E17613474C
:102D6000070193860608558F4207418398C3414661
:102D7000944393F60603639CC60083A7018F9C4F80
:102D8000829701456FD00FBD0D65698F4DB798C310
:102D9000C5B7F1769386F6F8758F4207856641834D
:102DA000358FE17693860608558F4207418398C395
:102DB0008D6505669443ED8EE381C6FC98C3DDBF47
:102DC0008280EFD2EFB603A7C18F8347970093E7C6
:102DD0000702A304F70083A7018FDC4F8297014508
:102DE0006FD04FB783A6C18F03D7260119E583D7CC
:102DF0004500998F2398F600828088413A95828019
:102E0000EFD20FB3B707002083C5070D0145EF00D0
:102E1000B03483A7C18F03C58700A1476318F500AD
:102E200005672392E19041472391E1905D151335A9
:102E300015006FD02FB2EFD2AFAF03A9C18F3766A5
:102E40000040930706C5834689009C4325474111EE
:102E5000638AE60441677D17B7360020F98F910633
:102E6000B69786078443F98C8604B29483C704001E
:102E70002300F90083C71400A300F90003D5440020
:102E8000EF00F0372311A90003D5840003A9C18FF7
:102E9000EF00F0362312A90003D7C40083A7C18F27
:102EA0002393E70083A7C18F054783D66700238458
:102EB000E70083C417006397060E83C6070093F6E6
:102EC000F607D5EEA5466396D400EFF07FC835E54A
:102ED0001DA89546639CD40403873700635C0700F4
:102EE000A14703A7C18F2304F700EFF07FF1410151
:102EF0006FD04FA603C7270065F703D747006DF3D0
:102F000083C7A700F1FFB767004083A707C537371E
:102F100000200907C207C183BA97860723A00700CC
:102F2000130700032391E190994765BF8D4663978E
:102F3000D40283C63700638DE60083A7818F268580
:102F4000DC4B82970D47A547E30DE5F84DDD49BF02
:102F500083D74700FDF3EFF0DFE695BFE39FE4FC86
:102F600003C73700E31B97FC03D7470079F783C7F4
:102F7000970093F70702F1D3EFF0BFC689BF6398BC
:102F8000E600AD47E39BF4FAEFF0FFBF89B789474E
:102F9000E395F6FAE382E4FE8D47E390F4FAEFF06E
:102FA0009FD635B79946639AD40203C6070083A615
:102FB000818F1376F60771EA83C727006395E700D0
:102FC000DC4EA1E7D9A009476394E7009C52D5BF26
:102FD0000D47639CE70ADC52EDB7E9E883D627008A
:102FE000CDE6D44341761306F60FF18E3706020084
:102FF000639DC60883C6070093F6F60795EA83D754
:103000004700C1E78D679387679F03A7C18F01457D
:103010001CCF23190700829783A7C18FC166FD16B5
:1030200003D70701631ED70E25472384E70075BD2C
:103030006390E60203A7818F03C557008145184FAF
:10304000029721E583A7C18F83C7A700C5FF35A8D5
:103050000947639CE60203C75700B76600409386A2
:1030600006C01376F70093172600B6979C43931675
:103070008701E18663D9060293F7070383C641827D
:103080006375D6001377070771D303A7C18F83A792
:10309000818F034517009C4B82978D476317F50678
:1030A00083A7C18F51B78D66F58FC9BFA146639BBA
:1030B000D40083C7070093F7F707E1FB8D67938779
:1030C000E79AA1B703A6818FA946E390D4FC83C6F3
:1030D000070093F6F607E39AE6FA03C7A70055D769
:1030E00003D727005DF3D843C1769386F60F758F1B
:1030F000C166E31CD7F8184E03C5570081450297F7
:1031000049F58D679387279D09B783A7C18FC1664E
:10311000FD1603D70701E309D7F089466303D500FD
:1031200019E3214719B78386070063D2060403D643
:10313000670083A6818F32C6B24583C6C60263FA92
:10314000E50032472398E700239AD700EFF05F9419
:1031500069BBE37BC7FE6375D70023A4018EEDB77F
:103160003367D70275F3054623A4C18EF1BF0D471F
:103170002384E7000D672392E19085BBEFC2BFF97E
:1031800003A4C18F834784001387E7FF1377D70F0A
:1031900071C71387D7FF1377D70F55EB184C835799
:1031A000040105CF83544401B1C763F39700BE8483
:1031B000C204C1802685029783570401AA8901456C
:1031C000858F2318F40083572401A6972319F40050
:1031D000A127AA8526864E852D2B8357040199CBDE
:1031E0000D67814501452392E190812F130700036C
:1031F0002391E190835704018356440103A7C18FB3
:1032000063EFD7008D472304F7008347870003A7A8
:10321000C18F2304F700EFF0BFBE6FC01FF399C347
:103220009547D5B799472304F700B767004083A7B0
:1032300007C5B73600208906C207C183B69786073F
:1032400023A00700930600032391D1907DBF1D4763
:103250006396E70083A7818FDC478297A14745BF2C
:1032600083C841823766004085652168014713069F
:1032700006C09385F5F01308080863691701136504
:103280000508B767004023A6A7C4828093162700CD
:10329000B2969C42ED8FD98FB3E707019CC2050718
:1032A000E9BFEFC2FFE883A7C18F83C687001387FA
:1032B000E6FF1377D70F19EFEFF08FFD83A7C18FCC
:1032C00083C7870003A7C18F2304F700EFF05FB324
:1032D0006FC05FE819476384E600A147E5B783C67E
:1032E00017001547639FE60003C707001377F7072A
:1032F00009EB03C53700EFF0BFF683A7018F9C539E
:10330000829783A7818F9C478297C1BF82809387D2
:10331000414023AEF18E09472384E700B707002020
:103320009387470A23ACF18E9C433707002013078D
:10333000070823A8E18E8287EFC2FFDD4111B7099C
:103340000020370A00202317010093894904130A3B
:103350008A0237670040930747C49C43939607014E
:10336000C182C2072399D18CC18763D3071683D743
:10337000218D130507C0BD8B2380F1906393073027
:103380001C410D67B166C207C1832392F19083D7B8
:1033900041909386F6F8A16593F707032391F19086
:1033A00083D741909385050837680040F98F2392B1
:1033B000F1901841A5679387F7FB7D8F1C41134758
:1033C0000702F58F8966B58F931607015D8F4D8FC4
:1033D00018C16177C18213070708558F420713058B
:1033E00000024183930508C0944193F60603639459
:1033F000A60E617713070708D98FC207376500400B
:103400008D658966C183130405C018406D8F6316EE
:10341000D70C83D7218DC18BF9E71C40A569138791
:10342000F9F0F98F1CC0EFF0DFE718401C40B166DF
:103430009386F6F8F58F83D6419005669389F9FB5C
:10344000F18E3377370199C28566B58F83D6419067
:103450000966F18E99C28966B58F83D62190C18A9B
:1034600099C21347070183D6219093F6060299C2A9
:1034700013470702216693160701130606085D8F9E
:10348000518F376600402320E6C06177C182130761
:103490000708558F4207376500404183130605C072
:1034A000144283D5219093F60603639AD50261777F
:1034B00013070708D98FC207376500408D65C183A0
:1034C000930605C0984203D641906D8F631BE600BA
:1034D00041016FC09FC798C131B71CC02DB718C23A
:1034E00075BF9CC2F1BF1C40856A13870A80C20762
:1034F000C1832317F1008357E100F98FDDCF1C4012
:103500001387FAF8F98F1CC0EFF0FF921840A567F7
:103510009387F7FB7D8F1C40B1669386F6F8F58F95
:1035200083D641900566F18E99C2B3C7570183D601
:1035300041900966F18E99C28966B58F83D6219034
:10354000C18A99C21347070183D6219093F60602D8
:1035500099C213470702216693160701130606084E
:103560005D8F518F376600402320E6C06177C182AE
:1035700013070708558F420737650040418313063C
:1035800005C0144283D5219093F606036395D502B6
:10359000617713070708D98FC207376500408D652B
:1035A000C183930605C0984203D641906D8FE30115
:1035B000C7F29CC2FDB718C2D9B78357E100C20752
:1035C000C187E3D807D81C401387FAF8F98F1CC0CD
:1035D000EFF0DFBA1840A5679387F7FB7D8F1C409B
:1035E000B1669386F6F8F58F83D641900566F18E25
:1035F00099C2B3C7570183D641900966F18E99C22B
:103600008966B58F83D62190C18A99C21347070175
:1036100083D6219093F6060299C2134707022166CA
:1036200093160701130606085D8F518F3766004019
:103630002320E6C06177C18213070708558F420730
:10364000376500404183130605C0144283D521909D
:1036500093F606036395D502617713070708D98FA0
:10366000C207376500408D65C183930605C0984247
:1036700003D641906D8FE30DC7E49CC2FDB718C21D
:10368000D9B7139727002A971443C206C18223177C
:10369000D1008356E100C206C18663DD0600FD1736
:1036A00014438A070566D2971306F6F89C43F18EF9
:1036B00014C382978357E10093F70708E38B07C889
:1036C00083C70190B7660040938606C01397270012
:1036D0003697FD1714438A07CE9725661306F6F032
:1036E0009C43F18E14C38297ADB1B7370020050615
:1036F000BE950586860511E2828083471500034743
:1037000005009105A207D98F239EF5FE09057D16B8
:10371000DDB7B73700200506BE950586860511E2A0
:1037200082809C4109057D16231FF5FE9105C5BFCA
:10373000619942054181B767004023A8A7C48280F0
:10374000B7670040938707C00A053E951C4165771F
:103750001307F798F98FDD8DC205C1810CC18280F6
:10376000B7670040938707C00A053E951C416577FF
:103770001307F7FBF98FC20713F70501C18319C3BC
:1037800093C7070113F7050219C393C707026177AF
:1037900013070708D98FC207C1831CC118411377CB
:1037A0000703E31CB7FE8280B7670040938707C01A
:1037B0000A053E951C4171771307F7F8F98F0567E5
:1037C000C207B3F6E500C18381C6B98FC207C183C2
:1037D0000967B3F6E50081C6B98FC207C183617777
:1037E00013070708D98FC207C1831CC18D66184112
:1037F000758F6313B70082801CC1D5BFB7670040C7
:10380000938707C00A053E951C4171771307F7F8A7
:10381000F98FC2070D67C183B98F61771307070856
:10382000D98FC207C1831CC18D661841758F631380
:10383000D70082801CC1D5BFB7670040938707C0FF
:103840000A053E951C4105671307F7E0F98F61777C
:1038500013070708D98FC207C1831CC182806FF08C
:10386000BFFDB7670040938707C00A053E951C411E
:103870001167F98F99CB1C4105671307F7F0F98F92
:10388000316713070708D98F1CC18280B7670040D2
:10389000938707C00A053E951C4193F7070499CB0F
:1038A0001C4105671307F7F0F98F21671307070C11
:1038B000D98F1CC18280B767004083A707C50E055A
:1038C0008581C207C1833E95B73700203E95060526
:1038D00086050CC18280B767004083A707C50E0527
:1038E0008581C207C1833E95B737002091073E9579
:1038F000060586050CC18280B767004003A707C58F
:103900009317350042074183BA9737370020BA979B
:10391000860703D507008280B767004003A707C565
:103920009317350042074183BA97373700201107B4
:10393000BA97860703D507008280B767004083A740
:1039400007C50E05C207C1833E95B737002089071A
:103950003E9506050CC18280B767004003A707C5E6
:1039600093173500420741833E97B73700209907E8
:103970003E979307E003060763F3B70493D7550018
:10398000FD8981E5FD17C207C183AA07A166D58F0E
:103990001CC30DE5B707002083C7070D1307E0031D
:1039A0006376F70213D75700FD8B81E77D17420737
:1039B00041832A07E1775D8F239AE18C828093D738
:1039C0001500858991C18507AA07D9B713D71700B4
:1039D000858B91C305072A07C5B7B767004003A7C2
:1039E00007C59317350042074183BA973737002040
:1039F0001907BA97860788431375F53F8280931796
:103A0000850021815D8D420541818280B76700403C
:103A1000138747C4232007007177130707F0239A01
:103A2000E18E3167938707C4130707F098C30145F8
:103A30008280EFC2EFEF32849374F507268542044B
:103A40002E894180EFF05FEBAA8522864A85EFF050
:103A5000DFC92685A285EFF05FEE01456FC08FEFCD
:103A6000EFC20FED9374F50726852E89EFF0FFF670
:103A70002A842685EFF05FEAAA8522864A85EFF040
:103A80005FC922856FC00FED7325003082807310EF
:103A90000530828083A7018137177A00130707203A
:103AA000B3D7E70293F7F70F2384F1901307803E13
:103AB000B387E7022393F1908280B7F700E0D84301
:103AC0008146799BD8C303C781903306A70290CB68
:103AD000D4CB98431367070198C398431367170221
:103AE00098C3D843058B75DF9843799B98C3828030
:103AF000B7F700E0D8438146799BD8C303D76190DC
:103B00003306A70290CBD4CB98431367070198C321
:103B100098431367170298C3D843058B75DF984302
:103B2000799B98C38280EFC2AFE02A8411650111AE
:103B300085451105AD2D930700202312F10037159F
:103B400001408D473EC44C00E147130505803EC649
:103B5000CD2222C837440140B70708000C081305DE
:103B600004803ECC02CA231E0100EF00E07F8545A1
:103B700013050480EF00100B05616FC0AFDD3285C7
:103B80008147B746014063C3A700828003D7068000
:103B90001377070465DF3387F50003070700850700
:103BA0002392E680CDB7AA8703A54183371700206B
:103BB000130787E9AA9763EBE7003747002013074D
:103BC00007006365F70023AAF18282807D55828019
:103BD00058410C415045B7070140938707403E9735
:103BE00093C6F5FF39C29043758E90C3D043F18ED2
:103BF000D4C31443CD8E14C3184190479346F7FFA6
:103C0000758E90C7D047F18ED4C71445414663994D
:103C1000C6009447D98E94C7D447558FD8C78280A1
:103C2000B6979443558F98C382801C43F58F1CC36D
:103C30008280B707014093870740C8CB8280B707CF
:103C4000674537270240938737125CC3B797EFCD9C
:103C50009387B79A5CC38280372702401C4B93E757
:103C600007081CCB8280B7270240C847058911E5A9
:103C7000C8474189133515000D058280EFC24FCB2F
:103C80002A848544EFF03FFE6319950019E015453D
:103C900031A0EFF05FFD7D14C5BF75D86FC08FCB2D
:103CA000EFC20FC9AA8437051300EFF03FFD91471B
:103CB0006314F502372402401C483705130093E7CC
:103CC00027001CC844C81C4893E707041CC8EFF031
:103CD000FFFA1C48F59B1CC86FC0CFC7EFC2AFC32B
:103CE00041112A891565AE8402C69149EFF01FF98A
:103CF000631E3503372402401C48156593E71700FF
:103D00001CC893970401C1832310F900EFF01FF73B
:103D1000631B350109094AC6B247C1801565239066
:103D20009700EFF0BFF51C48F99B1CC841016FC01C
:103D3000CFC19C4513F7070113F8F70001C7D8411D
:103D40003368E80037270240145B3707000F758F90
:103D50005DEB8546A384D190371701406317E500DA
:103D600003D7050035832390E50083D5050013F7BD
:103D7000F50F31C318418146054E930E80023D4F29
:103D8000930F800421433316DE00B3F8C50063109F
:103D900016036392D70950C913962600B318CF00B3
:103DA00093C8F8FF33F7E8003316C800518F850633
:103DB000E39B66FC18C11307F00F6375B704544109
:103DC0000146054E930E8002130F80042143130712
:103DD00086003317EE00B3F8E50063111703639014
:103DE000D70558C9931826003D47331717011347C5
:103DF000F7FFF98EB3181801B3E6D8000506E318EB
:103E000066FC54C1828037170140E310E5F603C712
:103E1000919021DFB1B7E391F7F910C9B5BFE393F2
:103E2000E7FD18C9C1B7B71701406316F50083C78E
:103E3000919091C3B5811C45FD8D3335B0008280D2
:103E4000B71701406316F50083C7919091C3B58100
:103E500019C20CC982804CC98280EFC26FAD0111BA
:103E6000835445002A8468002E896124D24737474D
:103E70000F001307072433D7E702C204C18093F46D
:103E800004FCC204B7869303C1809386F66F420791
:103E90004183D98C63F4F6001307C0032312940006
:103EA0008356040061661306066AC206C182F99A47
:103EB000C206C1822310D400832609006363D6069C
:103EC0008606B3D6D7021146B687C206C18263F30F
:103ED000C6009147C207C1830507420741832310EB
:103EE000E402231EF400835704000357490083565D
:103EF000A90093E717002310F40083570400558F9F
:103F0000C207C18393F757BFD98F2310F40003571B
:103F100089008357C900D98F2314F40005616FC04D
:103F20006FA38355690031667D166399C5020D46FE
:103F3000B386C602B3D7D702C207C183939647019F
:103F400099E293E71700A166D58F9306C012330755
:103F5000D7029306803E3347D702BDBF6546B3867E
:103F6000C602B3D7D7029166C207C183D58FF9B70E
:103F70008357050091C593E717002310F500828051
:103F8000C207C183F99BC207C183C5BF8357050020
:103F900091C593E707102310F5008280C207C18303
:103FA00093F7F7EFC207C183FDB78357050091C5AB
:103FB00093E707202310F5008280C207C18393F79F
:103FC000F7DFC207C183FDB78357050091C593E7AB
:103FD00007402310F5008280C207C18393F7F7BF23
:103FE000C207C183FDB72318B500828003550501C0
:103FF0001375F50F828093F7E50F19C293E715004B
:104000002318F50082808357050091C52167D98F59
:104010002310F5008280C607C583DDBF83574501A5
:104020000355850142055D8D6D8D220521810D8D24
:10403000133515008280411102C402C693D7C50111
:104040002AC63EC4A247A205A18199CBB247D10797
:104050003EC6B247884341016D8D3335A000828052
:10406000B247C181E107EDB723A6A190828003A7E3
:10407000C1908547834605006312F7028347150008
:10408000639DE70283472500960793E707F837E724
:1040900000E093F7F70F36972300F740054793D7D3
:1040A00056003317D700544191CE938707048A07EF
:1040B000B7E600E0B69798C38280EDF3834725000A
:1040C0009607F1B793870706B7E600E08A07B69729
:1040D00098C30F1000008280B7170240D843B7067C
:1040E00040FFFD16758FD8C3D8435A05598DC8C3F4
:1040F0008280371702405C43A146B18B6394D70A94
:104100005C435843C166C983BD8B758F8907C5461B
:104110006393D700C94701EF374702400327078061
:10412000418B09CF37177A001307072021A83717CB
:1041300002405843B7060200758F6DD737173D0010
:1041400013070790B387E7021CC137160240544299
:10415000370700201307470D9182BD8ABA9683C6A0
:104160000600B3D7D7005CC15442A1829D8ABA969B
:1041700083C60600B3D6D70014C55442AD829D8ACB
:1041800036970347070093868183B3D7E7005CC562
:10419000584239830D8B369703470700B3D7E702A0
:1041A0001CC98280B7177A009387072071BF99C511
:1041B000371702401C4FC98F1CCF8280B7170240AF
:1041C000984F1345F5FF798D88CF828099C53717B1
:1041D00002405C4FC98F5CCF8280B7170240D84F36
:1041E0001345F5FF798DC8CF828099C537170240F6
:1041F0005C47C98F5CC78280B7170240D847134518
:10420000F5FF798DC8C7828099C5371702401C4BCE
:10421000C98F1CCB8280B7170240984B1345F5FF1E
:10422000798D88CB8280EFB2BFF0B737014093879A
:1042300007C0631FF5000564854513050480EFF092
:10424000DFFA814513050480EFF03FFA6FB09FF06D
:10425000B7070040631BF50085450545EFF0DFFA21
:1042600081450545EFF05FFAD5B79387074063199D
:10427000F50085450945EFF03FF981450945DDB772
:10428000B7170040138707806319E500854511457E
:10429000EFF09FF781451145F1B7938707C0E3170A
:1042A000F5FA85452145EFF03FF6814521455DBF93
:1042B0008357050037370140130707C0C207C18382
:1042C0006300E50237070040630CE5001307074071
:1042D0006308E50037170040130707806317E50000
:1042E00003D7250093F7F7F8D98F03D7650093F725
:1042F000F7CFC207C183D98F2310F50083D74500BC
:104300002316F50283D705002314F502B7370140C1
:10431000938707C06316F50083C785002318F5024D
:104320008547231AF50082808357050091C593E7DE
:1043300017002310F5008280C207C183F99BC207D2
:10434000C183C5BF8357C50009C6CD8F2316F500AD
:10435000828093C5F5FFED8FD5BF93C5F5FFC205EC
:10436000C1812318B5008280EFB29FDC035705019D
:10437000F577FD177D8F83D7650083D68500011102
:10438000D98F2318F50083D745000357C5002A8429
:10439000D58F83D6A500AE84D58FFD769386369FC4
:1043A000758FD98F2316F5008357450103D7C500B4
:1043B000C207C18393F7F7CFD98F231AF50068009E
:1043C000EFF03FD3B7470140938707806316F404AB
:1043D000E2476545B335F502904081460A0633054C
:1043E000F502A522930640063357D5021306F06363
:1043F000120793574700B387F602B307F5409207B9
:1044000093872703637CF600410742074183231407
:10441000E40005616FB01FD4D24765BFB3D7D702A0
:104420005D8FE5B78357C50091C50967D98F2316FE
:10443000F500828079777D17F98FD5BF13F7F50FD7
:1044400085471583B395B7006319F7009307C50037
:10445000984301CE4D8F98C38280894693074501CA
:10446000E318D7FE93070501E5B793C5F5FFF98D6E
:104470008CC3828093F6F50F054695822A87B31781
:10448000B6006393C6028356C50033F5F600835722
:104490000700C207C18301C9A18105473317B700CF
:1044A000F98F3335F000828009466395C600835644
:1044B0000501E1BF83564501C9BF01A097C1FF1F98
:1044C00093814148171100201301C1B31725000043
:1044D000130505F397C5FF1F9385C5B217C6FF1FC8
:1044E000130686CA63FAC5008322050023A055007F
:1044F00011059105E3EAC5FE1385418497D5FF1F99
:104500009385C5996377B500232005001105E36DF8
:10451000B5FEFD42739002BC8942739042809302C3
:1045200080087390023097C2FFFF9382E2AD93E25E
:10453000320073905230EFD03F9497C2FFFF9382C6
:1045400002D073901234730020303288AA882E87EC
:10455000C5EE63F3C510C1676360F61AB7070001C3
:10456000B337F600B307F040E19BE1073353F600A1
:1045700097260000938646D39A9683C606001303B7
:104580000002B697B306F340630BF3003397D500F0
:10459000B357F5003318D6005D8FB318D500135606
:1045A00008013355C70293160801C18293D7080149
:1045B0003377C702B385A6024207D98F63FAB700E3
:1045C000C2971307F5FF63E4070163E1B7323A8549
:1045D0008D8F33D7C702C20893D80801B3F7C7023B
:1045E000B386E602C207B3E8F80063FBD800C298BE
:1045F0009307F7FF63E50801791763E3D8003E8767
:104600004205598D8145828063F5D500814501457C
:104610008280C16763EAF618B7070001B3B7F600F6
:10462000B307F040E19BE10733D8F60017270000FD
:10463000130787C7429703470700930800023E9776
:104640003388E8406397E81863E4B6283335C5003B
:10465000134515008145828055C6C1676372F626F1
:1046600013370610134717000E07B356E6009727B7
:104670000000938767C3B69783C7070093060002BD
:10468000BA97B38EF640639FF608B387C54093563A
:10469000060142064182854533D5D70213D708016A
:1046A000B3F7D7023303C502C207D98F63FA670095
:1046B000C2971307F5FF63E4070163E667223A85B3
:1046C000B387674033D7D702C20893D80801B3F73E
:1046D000D7023306C702C207B3E8F80063FBC8007D
:1046E000C2989307F7FF63E50801791763E3C800F1
:1046F0003E874205598D82809337061093C7170075
:104700008E07ADB58146972700009387E7B9B69726
:1047100083C70700014793060002BA97B38EF6409D
:10472000E385F6F63318D60133D3F5009356080126
:10473000335ED30213160801B395D5014182B357F6
:10474000F500CD8F13D70701B318D5013373D3020A
:10475000B305C603420333676700637BB700429724
:104760001305FEFF636D0717637BB716791E42972B
:104770000D8F3355D702C207C1833377D702330376
:10478000A6024207D98F63FB6700C2971307F5FFA4
:1047900063E3071563F167147915C29793150E014A
:1047A000B3876740C98DCDBD93B7061093C7170077
:1047B0008E0733D8F600172700001307E7AE42979D
:1047C00003470700930800023E973388E840E38DD3
:1047D000E8E6335EE600B3960601336EDE00B3D83A
:1047E000E500935E0E01B3D7D80313130E01B39502
:1047F0000501135303013357E5004D8F935607010D
:1048000033160601B3F8D803B305F302C208B3E6C2
:10481000160163FBB600F2969388F7FF63E3C60DBB
:1048200063F1B60CF917F2968D8EB3D5D603420715
:104830004183B3F6D603B308B302C206558F637B38
:10484000170172979386F5FF6369C70963771709A4
:10485000F9157297C207C16ECD8F9386FEFFB3F52F
:10486000D70013D30701F18E4182338ED50233076F
:104870001741B306D30293580E01B385C502B6950E
:10488000C6953303C30263F3D500769393D605012F
:104890009A966363D7026305D7003E85814582807F
:1048A000C166FD1633F7D5004207337EDE003315AF
:1048B00005017297E373E5FE1385F7FF814582805A
:1048C000B70700016377F60293560601414745B3E7
:1048D0008145054582803A85D1B5B685A5BF2A8E2A
:1048E00041BDC68791B77915C297D9BB7915C297D3
:1048F000C5B19356860161479DBB397132D436D616
:104900003EDA2ED23AD842DC46DE83A7C1838C47FA
:1049100054102A863E8506CE36C6C521F240216156
:1049200082801C51011122CC26CA4AC806CE4EC62E
:1049300052C40045AA842E8999E3EF00505C7C5054
:10494000858B81EB8357C40093F7072099E3284CAC
:10495000012C8357C400A18B99C31C48BDEFA285CD
:104960002685152A3DC9FD547C50858B81EB8357E4
:10497000C40093F7072099E3284CE522F2406244F3
:104980004249B249224A2685D244056182801CC42C
:10499000050963C907021C401387170018C023804C
:1049A000B7001C4483450900FD17F5F11CC463D909
:1049B00007022286A94526858920FD57E305F5FAD9
:1049C000A9445DB7184C63C4E700E39645FD228611
:1049D00026852520E31735FD79B7FD59294AD1B73A
:1049E0001C401387170018C029472380E700C9BF60
:1049F000AA8503A5C1836FF0DFF2011122CC26CA7C
:104A00004AC806CE4EC62A89AE84328409C51C51D6
:104A100099E3EF00D04E1C4C1CC48357C400A18BFB
:104A200099C31C4891EFA2854A85B52011C9FD5450
:104A3000F24062444249B2492685D24405618280EF
:104A40001C40184893F9F40F93F4F40F3385E740B2
:104A50005C486347F500A2854A85EF00F03061F9B4
:104A60001C44FD171CC41C401387170018C023806A
:104A700037015848930715006309F7008357C400AE
:104A8000858BDDD7A947E395F4FAA2854A85EF0027
:104A9000B02D59DD69BF411122C426C206C6AA84C1
:104AA00003A5C1832E8409C51C5199E3EF0030454D
:104AB0008317C40013F7870021EB13F7070109EBF5
:104AC000254798C093E707042316F4007D55A5A851
:104AD000918B8DC74C5889C9930744046384F500B2
:104AE00026854920232A04028357C4002322040078
:104AF00093F7B7FD2316F4001C481CC08357C4006D
:104B000093E787002316F4001C4889EF8317C4003D
:104B100013F7072001C793F7070889C7A2852685E1
:104B2000EF00104D8317C40013F7170015C3584842
:104B3000232404003307E04018CC1848014501E75E
:104B400013F7070841F3B2402244924441018280A6
:104B500013F72700814611E3544814C4F9BF82803B
:104B600082808280D1CD83A7C5FF011122CC06CEE1
:104B70001384C5FF63D307003E942AC6012413871C
:104B8000C1911C43324581EB2322040000C36244DF
:104B9000F2400561C5AA637DF4001040B306C4006D
:104BA0006396D7009443DC43B29614C05CC0F9BF4F
:104BB0003E87DC4399C3E37DF4FE14433306D700FC
:104BC000631F86001040B29614C33306D700E390EB
:104BD000C7FC9043DC43B29614C35CC34DBF6375FE
:104BE000C400B1471CC165B71040B306C40063964A
:104BF000D7009443DC43B29614C05CC040C341BFAD
:104C0000828041114AC0138981918327090022C4FF
:104C100026C206C6AA842E8491E78145EF00D060A3
:104C20002320A900A2852685EF0010607D59631A14
:104C300025017D54B240228522449244024941011B
:104C40008280130435007198E30685FEB305A44005
:104C50002685EF00705DE31F25FDE1BF011126CA27
:104C600093843500F1984AC806CE22CC4EC652C471
:104C7000A104B1472A8963F6F406B14463E5B4069A
:104C80004A85ED289389C19183A709003E8425E8D0
:104C9000A6854A85EFF0FFF6FD572A84631EF50CC2
:104CA00003A40900A287CDEB71C0032A040081454B
:104CB0004A85229AEF005057631AAA0A1C404A8577
:104CC0009D8CA685EFF0FFF3FD576301F50A1C40AC
:104CD000A6971CC083A70900D84351E323AE0190D7
:104CE00081A0E3DD04F8B1472320F9000145F2403B
:104CF0006244D2444249B249224A0561828014404A
:104D0000858E63C806042D47637DD70204C0330730
:104D100094006396870223A0E9005C4014C35CC33F
:104D20004A858D201305B400930744006199330729
:104D3000F540E30EF5FA3A94898F1CC04DBFD8C3F5
:104D4000E9BF58406395870023A0E900D1BFD8C3CD
:104D5000C1BFA287404025BF3E84DC43A9B73E8740
:104D6000DC43E39E87FE232207005DBFB14723207B
:104D7000F9004A8501289DBF04C15DB713850191E3
:104D80006FF01FDE138501916FF0BFDD1C46FD172C
:104D90001CC663DA0700184E63C5E700A947639491
:104DA000F5006FF09FC51C422E851387170018C2AF
:104DB0002380B7008280011122CC26CA4AC84EC681
:104DC00052C406CE2A89AE893284B304D6007D5AF5
:104DD00063149400014511A8834504004E864A855A
:104DE000EFF0DFFA0504E31545FFF2406244D244D8
:104DF0004249B249224A05618280357122CD26CBD3
:104E00004AC94EC706CF52C556C35AC1DEDEE2DCE0
:104E1000E6DAAA89AE843289368409C51C5199E341
:104E2000EF00F00DFC50858B89EB83D7C40093F71E
:104E3000072081E7A84CEFF0BFD283D7C400A18B35
:104E400099C39C48A1E3A6854E85EFF0DFC41DC938
:104E5000FC50858B99CF7D55FA406A44DA444A4923
:104E6000BA492A4A9A4A0A4BF65B665CD65C0D61DF
:104E7000828083D7C40093F70720F1FFA84CEFF09E
:104E80005FCED1BF93070002A304F1029307000392
:104E900002D22305F10222C6930B5002971A00009A
:104EA000938A8A11054C294B4A848347040099C38D
:104EB000639D7709B30C2441630E2401E6864A867C
:104EC000A6854E85EFF03FEFFD576301F51A925727
:104ED000E6973ED283470400638A0718FD571309FB
:104EE000140002C802CE3ECA02CCA309010482D437
:104EF0008345090015465685EF00F024C247130488
:104F0000190031E513F7070109C713070002A309C8
:104F1000E10413F7870009C71307B002A309E104EE
:104F2000834609001307A002638BE602F2474A8416
:104F3000814625460347040093051400130707FD27
:104F40006375E6068DC63ECE1DA00504B9BF3305C8
:104F500055413315AC00C98F3EC8228951BF324735
:104F600093064700184336C6634A07023ACE034702
:104F700004009307E002631EF7040347140093073D
:104F8000A002631AF702B2470904138747009C4343
:104F90003AC663D30700FD573ECA25A83307E04051
:104FA00093E727003ACE3EC8D9B7B38767032E846C
:104FB0008546BA9741B7050402CA8146814725460E
:104FC0000347040093051400130707FD6376E60604
:104FD000E1F6834504000D4617150000130545FE54
:104FE000EF00701611CD97170000938767FD1D8D98
:104FF000C247130700043317A700D98F05043EC822
:10500000834504001946171500001305A5FB130975
:1050100014002304B102EF00101325CD9307000004
:1050200095E74247B2471377071009CF91073EC66D
:105030009257D2973ED28DBDB38767032E848546A3
:10504000BA97BDBF9D07E19BA107D5B7780097062A
:105050000000938686D626860C084E8597000000B1
:10506000E7000000FD572A8AE314F5FCFC50858B0D
:1050700089EB83D7C40093F7072081E7A84CEFF0B2
:105080005FAE83D7C40093F70704E39607DC12559D
:10509000E1B3780097060000938626D226860C0896
:1050A0004E85112AC1B7797156CA9C49BA8A98456A
:1050B00022D44AD04ECE52CC06D626D25AC85EC68C
:1050C000AA892E843289368A63D3E700BA872320DF
:1050D000F9000347340401C785072320F9001C4069
:1050E00093F7070291C78327090089072320F90056
:1050F0000440998891E8130B9401FD5B5C440327FD
:105100000900998F63CCF40483473404B336F0006C
:105110001C4093F70702A5EB13063404D2854E8595
:10512000829AFD576303F5041C4011478144998B13
:105130006399E7004444832709009D8C63D30400EE
:1051400081441C4418486354F700998FBE94014968
:1051500069047D5B63982405014509A885465A8644
:10516000D2854E85829A631E75017D55B2502254B8
:1051700092540259F249624AD24A424BB24B4561BB
:1051800082808504A5BF3307D40013060003A30162
:10519000C7040347540493871600A2978906A38186
:1051A000E7049DBF85462286D2854E85829AE30E0E
:1051B00065FB050945B7797122D44AD04ECE52CC51
:1051C00006D626D256CA5AC803C885019307800757
:1051D0002A892E84B289368A63E207039307200660
:1051E0009386350463E10703630B081C930780056E
:1051F00017160000130686DD6308F81493042404D0
:105200002301040515A89307D8F993F7F70F55461E
:10521000E366F6FE17160000130606198A07B29712
:105220009C43B29782871C4393842504938647004E
:105230009C4314C32381F50485475DA290411C4320
:10524000137506089385470039C19C430CC3584029
:1052500063DD07129305D002A301B40418C46350A0
:105260000704B307F04017160000130626D6294896
:10527000B68433F70703FD143297034707002380F2
:10528000E4003E87B3D70703E37507FFB1A89C434B
:10529000137506040CC345DDC207C1874DBF6D9A67
:1052A00010C0C1B78C41104313F505081C4211060C
:1052B00011E593F5050499C1C207C18310C3130713
:1052C000F00617160000130666D0631EE80A214890
:1052D000A3010404584018C4E34C07F80C40ED99AE
:1052E0000CC0D9F7B68449F7A147631EF8001C40EB
:1052F000858B91CB58401C4863C7E7009307000398
:10530000A38FF4FEFD14858E14C85287CE867000DC
:10531000A2854A85EFF03FD9FD5A6317550D7D559B
:10532000B250225492540259F249624AD24A424B34
:10533000456182809C4193E707029CC11308800766
:10534000171600001306C6C9A30204050C40084343
:1053500013F805081C4111056318080013F805042B
:1053600063040800C207C18308C313F7150001C70F
:1053700093E505020CC099C3414899BF18401377C3
:10538000F7FD18C0D5BF2948A1B7171600001306AE
:10539000E6C3294881B790411C43CC4913780608DD
:1053A000138547006306080008C39C438CC301A80B
:1053B00008C3137606049C4375DA2390B7002328AC
:1053C0000400B68499B71C43D041814593864700B9
:1053D00014C384432685852B19C1058D48C05C40C4
:1053E0001CC8A301040415B714482686CE854A8537
:1053F000029AE30655F31C40898B8DE7B247484477
:10540000E350F5F23E8529BF85465686CE854A850E
:10541000029AE30665F185045C443247998FE3C53F
:10542000F4FEE9BF8144930A94017D5BF5B783974D
:10543000C500011122CC26CA06CE4AC84EC613F7B3
:105440008700AA842E8471E7D8416345E000B84103
:105450006359E008585451C7B18303A90400858BF0
:1054600023A004000C50A1CF70488357C400918B37
:1054700099C75C401D8E5C5899C33C401D8E5C549E
:105480000C50814626858297FD57630EF5041C4813
:105490000567232204001CC08357C400F98F91C301
:1054A00068C84C5823A024018DCD9307440463851C
:1054B000F5002685EFF00FEB232A04021DA001461C
:1054C000854626850297FD572A86E310F5FA9C400B
:1054D000C9DF75476385E70059476395E70623A051
:1054E00024010145BDA098408317C40001CFF546B3
:1054F0006305D700D9466319D7041C48232204004A
:105500001CC045B71848B1832322040018C0858BFE
:1055100079B783A90501E38609FC03A905008D8BF2
:1055200023A0350133093941014791E3D84918C413
:10553000E35920FB1C540C50CA864E862685829760
:105540006340A0028317C40093E707042316F40006
:105550007D55F2406244D2444249B249056182809D
:10556000AA993309A940E9B79C49411106C622C44A
:1055700026C281EB8144B2402244268592444101F7
:105580008280AA842E8401C51C5191E38D2A831741
:10559000C400EDD37850058B19E793F7072081E716
:1055A000284CEFF0EFDB2685A285EFF05FE87C501A
:1055B000AA84858BE9F38357C40093F70720C5FFBE
:1055C000284CEFF00FDA45BF411122C406C62A84E9
:1055D0002316B5002317C50023200500232205004C
:1055E000232405002322050623280500232A05007D
:1055F000232C0500214681451305C505EFA01FBAE0
:10560000970700009387C7285CD09707000093870F
:10561000272B1CD4970700009387672F5CD497072C
:105620000000938727321CD800D093870142630A79
:10563000F400938781486306F4009387014F631950
:10564000F400130584052244B24041016FF02FD1CC
:10565000B24022444101828017B6FF1F130686AD77
:1056600097050000938585F017B5FF1F1305C5A7A3
:105670007DA84C41411122C406C6938701422A8469
:105680006384F500EFF05FEE0C44938781486385F7
:10569000F5002285EFF05FED4C449387014F63885E
:1056A000F50022852244B24041016FF0FFEBB24089
:1056B000224441018280411197070000938707FA35
:1056C000014691451385014206C623A0F192EFF0F1
:1056D000BFEF0546A54513858148EFF0FFEEB240C8
:1056E0000946C9451385014F41016FF0FFED138550
:1056F00041916FF0EFC6138541916FF08FC6411154
:1057000022C406C62A84EFF09FFE1C5091C7224493
:10571000B24041016FF03FFE970700009387A7F565
:105720001CD083A70192E5F7EFF0FFF8CDB77971B0
:1057300022D44AD04ECE52CC5AC85EC606D626D205
:1057400056CAAA892E8A32840149054BFD5B04445E
:10575000832A4400FD1A63D00A0200406DF8B2505B
:1057600022549254F249624AD24A424BB24B4A8581
:1057700002594561828083D7C400637BFB00839715
:10578000E40063877701A6854E85029A3369A900F4
:1057900093848406C1B75971A2D42E848395E50001
:1057A000A6D2CAD086D6B284368963D3050283577F
:1057B000C40093F707088DEB13070040B65026543A
:1057C0002320F90098C006599654014565618280EE
:1057D0003000552AE34D05FC3247BD67F98F7977D4
:1057E000BA9793B71700C9BF814713070004F9B7E9
:1057F00083D7C500797122D406D626D24AD04ECEA0
:10580000898B2E8491CF930774041CC01CC88547D4
:105810005CC8B250225492540259F24945618280C8
:1058200074003000AA84EFF01FF7A2492A89268568
:10583000CE85EFF0AFC201ED8317C40013F7072048
:1058400069FBF19B93E727002316F4006DBF835794
:10585000C40008C008C893E707082316F400B2473D
:10586000232A340189CF8315E4002685892201C9C2
:105870008357C400F19B93E717002316F400835766
:10588000C40033E527012316A40061B7411122C4E7
:105890002E848395E50006C69D22634905007C4859
:1058A000AA977CC8B2402244410182808357C40039
:1058B0007D777D17F98F2316F400EDB783D7C500E8
:1058C000011122CC26CA4AC84EC606CE93F707104D
:1058D000AA842E843289B68991C78395E5008946CA
:1058E0000146CD288357C4007D777D17F98F831536
:1058F000E4002316F4006244F240CE864A86B249A0
:1059000042492685D2440561A1A2411122C42E84B8
:105910008395E50006C67D287D578357C400631B29
:10592000E5007D777D17F98F2316F400B2402244FD
:10593000410182800567D98F2316F40068C8FDB73E
:105940008395E50031A893F5F50F2A966314C500F9
:105950000145828083470500E38DB7FE0505FDB74D
:10596000411122C42A842E8523A2019206C639221F
:10597000FD576316F50083A7419291C31CC0B24046
:10598000224441018280411122C42A842E85B2859D
:1059900023A2019206C6CD28FD576316F50083A702
:1059A000419291C31CC0B240224441018280411106
:1059B00022C42A842E8523A2019206C6E128FD571F
:1059C0006316F50083A7419291C31CC0B2402244E4
:1059D00041018280411122C42A842E85B2853686F7
:1059E00023A2019206C66D28FD576316F50083A712
:1059F000419291C31CC0B2402244410182804111B6
:105A000022C42A842E85B285368623A2019206C638
:105A10007128FD576316F50083A7419291C31CC0FE
:105A2000B240224441018280411122C42A842E8541
:105A300023A2019206C6EFE00F97FD576316F5000B
:105A400083A7419291C31CC0B2402244410182808D
:105A5000411122C42A842E85B285368623A2019262
:105A600006C6EFE0CF91FD576316F50083A741927C
:105A700091C31CC0B240224441018280930780053B
:105A800023A2F1927D5582809307800523A2F19293
:105A90007D5582809307800523A2F1920145828083
:105AA0009307800523A2F1927D558280930780059C
:105AB00023A2F1927D5582801B5B39326D62757233
:105AC0006E6564202866726F6D20666C617368294C
:105AD0001B5B306D000000001B5B39336D6E6F7413
